:020000040800F2
:1000000000090020E1040008FD13000801140008A5
:10001000551400080114000829140008E30400081E
:10002000E3040008E3040008E3040008B535000811
:10003000E3040008E3040008E3040008513B00085F
:10004000E3040008E3040008E3040008E3040008F4
:10005000E3040008E30400083539000861390008AA
:100060008D390008B9390008E5390008E3040008B3
:10007000E3040008E3040008E3040008E3040008C4
:10008000E3040008E3040008E30400086D25000809
:10009000D92500082D26000881260008113A0008FD
:1000A000E3040008E3040008E3040008E304000894
:1000B000E3040008E3040008E3040008E304000884
:1000C000E3040008E3040008E3040008E304000874
:1000D000E30400083D2A0008512A0008E304000850
:1000E000793A0008E3040008E3040008E304000888
:1000F000E3040008E3040008E3040008E304000844
:10010000E3040008E3040008E3040008E304000833
:10011000E3040008E3040008E3040008E304000823
:10012000E3040008E3040008E3040008E304000813
:10013000E3040008E3040008E3040008E304000803
:10014000E3040008E3040008E3040008E3040008F3
:10015000E3040008E3040008E3040008E3040008E3
:10016000E3040008E3040008E3040008E3040008D3
:10017000E3040008E3040008E3040008E3040008C3
:10018000E3040008E3040008E3040008E3040008B3
:10019000E3040008E3040008E3040008E3040008A3
:1001A000D0400B1CD1409C46203AD34018435242C9
:1001B00063469340184370479140031C90409C460F
:1001C000203A9340194352426346D3401943704743
:1001D00053B94AB9002908BF00281CBF4FF0FF31AE
:1001E0004FF0FF3000F07AB9ADF1080C6DE904CEA4
:1001F00000F006F8DDF804E0DDE9022304B0704702
:100200002DE9F0478C460D460446089E002B51D13F
:100210008A4217466DD9B2FA82FEBEF1000F0BD0AA
:10022000CEF1200C01FA0EF520FA0CFC02FA0EF7C2
:100230004CEA050C00FA0EF44FEA174A250CBCFBF9
:10024000FAF81FFA87F90AFB18CC45EA0C4508FBB7
:1002500009F3AB420AD9ED1908F1FF3280F023818E
:10026000AB4240F22081A8F102083D44ED1AA4B24D
:10027000B5FBFAF00AFB105544EA054400FB09F906
:10028000A14509D9E41900F1FF3380F00A81A145A5
:1002900040F2078102383C44A4EB090440EA0840DC
:1002A0000021002E61D024FA0EF400233460736024
:1002B000BDE8F0878B4207D9002E54D0002186E894
:1002C00021000846BDE8F087B3FA83F1002940F029
:1002D0008E80AB4202D3824200F2FA80841A65EB30
:1002E00003050120AC46002E3FD086E81010BDE883
:1002F000F08712B90127B7FBF2F7B7FA87FEBEF114
:10030000000F34D1EB1B3A0C1FFA87FC0121B3FB21
:10031000F2F8250C02FB183345EA03450CFB08F301
:10032000AB4207D9ED1908F1FF3002D2AB4200F21F
:10033000D1808046ED1AA3B2B5FBF2F002FB105556
:1003400043EA05440CFB00FCA44507D9E41900F17D
:10035000FF3302D2A44500F2B8801846A4EB0C0487
:1003600040EA08409DE731463046BDE8F087CEF1CF
:10037000200405FA0EF307FA0EF720FA04F83A0CF7
:1003800025FA04F448EA0308B4FBF2F14FEA1845F1
:1003900002FB11441FFA87FC45EA044501FB0CF3FC
:1003A000AB4200FA0EF409D9ED1901F1FF3080F0EB
:1003B0008A80AB4240F2878002393D44EB1A1FFA33
:1003C00088F5B3FBF2F002FB103345EA034500FB6E
:1003D0000CF3AB4207D9ED1900F1FF386FD2AB42F5
:1003E0006DD902383D44EB1A40EA01418FE7C1F173
:1003F000200722FA07F88B4005FA01F448EA0303C4
:1004000020FA07FE4FEA134CFD404EEA040EB5FBFE
:10041000FCF94FEA1E440CFB19551FFA83F844EA15
:10042000054509FB08F4AC4202FA01F200FA01FAB0
:1004300008D9ED1809F1FF3043D2AC4241D9A9F1F6
:1004400002091D442D1B1FFA8EFEB5FBFCF00CFBB0
:1004500010554EEA054400FB08F8A04507D9E418FA
:1004600000F1FF3529D2A04527D902381C4440EAC3
:100470000940A4EB0804A0FB02894C45C6464D4642
:1004800015D312D056B1BAEB0E0364EB050404FA8F
:1004900007F7CB401F43CC40376074600021BDE8B4
:1004A000F0871846F8E69046E0E6C245EAD2B8EB97
:1004B000020E69EB03050138E4E72846D7E740461A
:1004C00091E78146BEE7014678E702383C4445E7BC
:1004D000084608E7A8F102083D442BE7704700BF33
:1004E00002E000F000F8FEE772B6394880F30888B1
:1004F000384880F3098838484EF60851CEF200019A
:10050000086040F20000CCF200004EF63471CEF2EA
:1005100000010860BFF34F8FBFF36F8F40F2000000
:10052000C0F2F0004EF68851CEF200010860BFF331
:100530004F8FBFF36F8F4FF00000E1EE100A4EF6C1
:100540003C71CEF200010860062080F31488BFF3EE
:100550006F8F03F06DF803F015F94FF055301F4918
:100560001B4A91423CBF41F8040BFAE71C49194A67
:1005700091423CBF41F8040BFAE71A491A4A1B4B57
:100580009A423EBF51F8040B42F8040BF8E70020F2
:100590001749184A91423CBF41F8040BFAE703F0AF
:1005A0004BF803F031F9144C144DAC4203DA54F813
:1005B000041B8847F9E700F03FF8114C114DAC429D
:1005C00003DA54F8041B8847F9E703F033B8000056
:1005D0000009002000110020000000080001002098
:1005E00000090020004300080011002078110020BD
:1005F0007811002064260020A0010008A001000856
:10060000A0010008A00100082DE9F04F2DED108A8F
:10061000C1F80CD0C3689D46BDEC108ABDE8F08FD0
:10062000002383F311882846A047002002F0A6FD8E
:1006300002F04CFD00DFFEE7384B6FF013022DE9AE
:10064000F0416FF0670100241A7003225A709C7009
:10065000DC701C715C719C71DC711C7259729A7235
:10066000DC7202F051FF074602F09EFF0546C8BB50
:100670002B4B9F4238D001339F4238D0294B27F073
:10068000FF029A4237D1F8B200F052FAA84642F27D
:10069000107400F083FC00F051FA064678B384BB76
:1006A000464635B1204B9F4203D002F075FF00242F
:1006B0002646002002F032FF1C4B1B6913F040035A
:1006C00022D00EB100F034F800F08AFC00F01EFEDB
:1006D00000F0D4FE0546CCB900F0D8FC012002F0B1
:1006E00053FDF8E78046D4E780460446D1E7044648
:1006F0004FF00108CDE780464FF47A74C9E704460D
:10070000CFE74FF47A74CCE71C46DDE700F0B6FE85
:10071000401BA042E0D900F00BF8D9E77811002087
:10072000010007B0000008B0263A09B000040048F4
:1007300010B51C4B1C4953F8042F013200D110BDD9
:100740008B42F8D1194C1A4B22689A4228D9194B7E
:100750009B6803F1006303F5D0439A4220D202F074
:10076000EFFE02F001FF002000F0EAFD124B022034
:10077000187000F019FE114BDA690022DA61D969AC
:1007800099699A619B6972B60D4A0E4B13601B689A
:100790002268202181F311889D4683F30888104741
:1007A00010BD00BFFC6700081C6800080468000852
:1007B000FF6700087811002084110020001002401B
:1007C00008ED00E00068000809490B6849F269007B
:1007D0009AB21B0C00FB0233064A0B60136844F20A
:1007E000506198B21B0C01FB0030106080B2704762
:1007F000101100200C11002010B500211022044619
:1008000000F0ECFD034B03CB206061601868A06032
:1008100010BD00BFACF7FF1FF0B51F4CBBB000F020
:100820002DFEA368C31AF92B30D906AD2346A0606C
:1008300028220021284601F0AFFB04F10E0000F051
:10084000C5FD0023C6B2591D5F1CDBB2B3424FEA9F
:10085000C10107DA0E3323440822284601F09CFB2D
:100860003B46F0E7012303930823207B02930B4BC5
:100870000193C1F3CF013023059100930146049504
:1008800003A3D3E90023064801F056F93BB0F0BDBD
:1008900078F6339F93CACD8DC8210020D521002042
:1008A000A021002070B50D4614461E4601F0EAF85E
:1008B00050B9022E0ED1012C0CD112A3D3E9002382
:1008C000C5E90023012070BD052C14D003D8012CEC
:1008D00009D0002070BD282C09D0302CF9D10BA3F1
:1008E000D3E90023ECE70BA3D3E90023E8E70BA34C
:1008F000D3E90023E4E70BA3D3E90023E0E700BF3B
:10090000AFF30080401DA12026812A0B78F6339F8B
:1009100093CACD8D9E6AC421818A46EE26417272A9
:10092000DF25D7B7F017304A39059E5638B504464B
:100930000D46034620222846002101F02DFB227996
:100940002346032A28BF032203F8042F2846022245
:10095000202101F021FB62792346072A28BF0722C4
:1009600003F8052F28460322222101F015FBA27966
:100970002346072A28BF072203F8062F284603220A
:10098000252101F009FB284604F108031022282143
:1009900001F002FB382038BD2DE9F04FADF5017DA7
:1009A00021AE0EAD40F2791280460F46304600214E
:1009B00000F014FD48220021284600F00FFD00F051
:1009C0005DFD594B4FF47A72B0FBF2F0186093E87A
:1009D0000700012385E807002B740DF15A0000235E
:1009E0006B74FFF709FF032385F82030EC2385F8AB
:1009F000213007AB18464D4903F014F91B22286437
:100A00003146284685F83C20FFF790FF12AB04469C
:100A100001460822304601F0BFFA0822A1180DF164
:100A20004903304601F0B8FA0DF14A03082204F1F7
:100A30001001304601F0B0FA13AB202204F1180186
:100A4000304601F0A9FA14AB402204F138013046D7
:100A500001F0A2FA16AB082204F17801304601F049
:100A60009BFA0DF15903082204F18001304601F090
:100A700093FA04F1880A0DF15A0904F5847B4B4678
:100A80005146082230460AF1080A01F085FAD3459A
:100A900009F10109F3D11BAB08225946304601F098
:100AA0007BFA04F588744FF0000995F834304B4513
:100AB00010D84FF0000995F83C304B4515D92B6CF8
:100AC00021464B440822304601F066FA083409F109
:100AD0000109F0E7AB6B21464B440822304601F098
:100AE0005BFA083409F10109DFE7E31DC3F3CF0323
:100AF000F97E0593002304960393BB7E0293193776
:100B000001230093019706A3D3E90023404601F097
:100B100013F80DF5017DBDE8F08F00BFAFF3008045
:100B20009E6AC421818A46EE88110020DC3D0008BF
:100B3000014B1870704700BF94110020F0B52E4B88
:100B40001C7B85B02CB12D4B0E221A81002005B0E4
:100B5000F0BD2B4A1068516802AB03C308230DEBAC
:100B600003022849284803F03FF8054630B9234BD3
:100B700026480A221A8100F039FCE7E70369B3F539
:100B8000663F07D91D4A22480B211181194600F002
:100B90002DFCDBE7418BB1F57B7F08D0174B1D485F
:100BA0000C221A814FF47B7200F020FCCEE71A4A27
:100BB00015490244103B20469E1A00F063FC324661
:100BC000074605F11801204600F05CFCAB689F4227
:100BD00002D1EB6898420AD0084B0D221A8100908E
:100BE0003B46EA68A9680D4800F000FCAEE70C48F7
:100BF00000F0FCFB0120AAE7C8210020881100209A
:100C0000CC3C0008DC97030000680008D43C0008D6
:100C1000E03C0008F23C00080898FFF7103D00088F
:100C2000393D00082DE9F04FAFB006AF80460D46C4
:100C300000F028FF044600286CD12B7E022B18D12F
:100C4000EB8A012B15D100F019FC8146FFF7BCFDA2
:100C50004FF4C873BF4EB0FBF3F209F5167902FBEF
:100C60001300EB7E19FA80F0306093B9BA4B002282
:100C70001A70A437BD46BDE8F08F07F10C031C4481
:100C80000094002308224FEAC901284600F0E8FF3B
:100C90004C46AB8A013BA3425FFA84F90BD904F1BD
:100CA0000109B9F1110FE8D1AC4BAD4A40F239114D
:100CB000AC4802F06BFF07F11C00FFF79DFD2246D8
:100CC00007F11C0107F10C0002F07EFF034600282B
:100CD000CCD1B9F1100F07D09F4B83F80090336847
:100CE000A3F516733360C4E707F1A002014602F8CA
:100CF000950D28460092072200F0B2FFF97A7F296D
:100D000004DD994B964A4FF4A871D1E7404600F0B4
:100D10009DFEAEE7EB8A052B00F02E8106D8012B55
:100D2000A7D129464046FFF737FEA2E7282B3DD042
:100D3000302B9ED16B7E8D4C0133627BDBB29342B4
:100D4000EA4640F00081EA7E237B9A4240F0FB8035
:100D500007F1A003002623F8846D1022009331468A
:100D60000123284600F07CFFB5F81480A8F10208A2
:100D70001FFA88F808F1030323F003030A3323F072
:100D80000703ADEB030D0DF1180933469BB2B11CFF
:100D900098454FEAC10106F101066DDD4B44009311
:100DA00008220023284600F05BFFEEE7AB8A013BF8
:100DB0009BB2C92B3FF65DAF6C4E347B4CBB06F14A
:100DC0000C030093082223462146284600F048FFE2
:100DD000AB8A04F10109013BE4B29C424FEAC9012C
:100DE00009DA0E343444009400230822284600F027
:100DF00037FF4C46ECE700230022C6E9002300231E
:100E0000B36086F8D730C6F8D830337B0BB9EB7EA9
:100E10003373002407F11C0607F10C030822214656
:100E20003046FC603C617C6101F0B6F83B7C04F12B
:100E30000109A3424FEAC90107D97B69082223446B
:100E4000304601F0A9F84C46F0E7C1F3CF0100238A
:100E5000E87E059104960393AB7E0293193528230F
:100E600001460093019539A3D3E90023404600F0E1
:100E700063FEFFF7D1FCFCE694F8D70000F072FAAD
:100E8000D4F8D83006461BB994F8D70000F07AFAA7
:100E9000D4F8D83043449E4204D294F8D7000130AD
:100EA00000F070FA324B4FEA980B0025AAB25A456F
:100EB000104616DA5AB994F8D72042B9D4E900128C
:100EC0000A4304D1D9F800201A600135EEE7226800
:100ED00059F820107B6002EB800000F033FA7B6849
:100EE000F3E7D4E90023D4F8D85012EB080043F11B
:100EF0000001C4E90001454494F8D700C4F8D85073
:100F000000F030FA854209D394F8D730013384F8E1
:100F1000D730D4F8D8309E1BC4F8D860B8F1FF0F92
:100F20000ADC134B00201968207300F00BFAFFF75E
:100F300005FE08B1FFF7FCFB23680E4A9B0A01334C
:100F400013810023A360D54693E600BF2641727249
:100F5000DF25D7B79C21002099210020483D0008BB
:100F6000F83D0008A13D0008C33D0008C82100204D
:100F70000011002088110020BFF34F8F0549064B58
:100F8000CA6802F4E0621343CB60BFF34F8F00BF27
:100F9000FDE700BF00ED00E00400FA0508B54FF0E2
:100FA00000530B4A196891420AD10A4A597D1170BF
:100FB00009481B7D0373C92208490E3000F0FCF973
:100FC000E02200214FF00050BDE8084000F006BAD2
:100FD0009AAD44C594110020C821002016000020BD
:100FE00030B5204C2049214885B002236371042389
:100FF0000025ADF808300123ADF80C5007228DF81C
:101000000C308DF80B301A4B4B608DF80A2001F034
:10101000ADFD184B019500931749184B18484FF434
:10102000805200F0DDFC174B1978254611B11448A9
:1010300000F00CFD00F022FA0446FFF7C5FB4FF468
:10104000C87304F51674B0FBF3F202FB13000E4BE9
:1010500014FA80F0186002F0A7FA08B10F232B8170
:1010600005B030BD8811002004110020B8220020F6
:1010700003000600A508000898110020250C0008B0
:10108000A0210020941100209C2100202DE9F04F88
:1010900094A7D7E900670FF25429D9E900898D4C4C
:1010A00093B0DFF850B2DFF850A2204600F090FD78
:1010B0000CAD079098B310220021284600F08EF95D
:1010C000079B197B4FF0000261F3030219468DF86C
:1010D000302051F8040F49680EAA03C21B680D9A0C
:1010E00063F31C029DF830300D9243F020038DF81D
:1010F000303000232A461946584601F047FD079034
:1011000030B9204600F068FD079B8AF80030CCE734
:101110009AF80030072B3EDC01338AF800301822A1
:101120000021284600F05AF9DFF8C8A1002319462B
:101130002A46504601F052FD014680BB102208A805
:1011400000F04CF94FF09042536983F01003536163
:1011500000F096F90B4612A9024611E903000DF1C1
:10116000240E8EE803009DF83410C1F303008906B5
:101170004CBF0E99BDF838108DF82C0046BFC1F356
:101180001C0141F00041C1F30A010891204608A961
:1011900000F068FFCAE7204600F01EFDBFE72046CA
:1011A00000F070FC824600284AD1DFF850B100F010
:1011B00065F9DBF80030984242D300F05FF9079000
:1011C000FFF702FB079A8DF820A04FF4C87302F5D1
:1011D0001672B0FBF3F101FB130012FA80F0CBF8AA
:1011E0000000DFF81CB19BF8001011B901238DF845
:1011F000203028460791FFF7FFFA0799C1F1100A3E
:101200005FFA8AFABAF1060F28BF4FF0060A524673
:1012100029440DF1210000F0CFF80AF101030493F5
:1012200008AB0393182302932B4B019301230093E4
:1012300032463B46204600F027FC00238BF8003066
:1012400000F01CF9254ADFF8BCA01368C31AB3F5F7
:101250007A7F32D3106000F013F902460B46204625
:1012600000F0C0FC204600F00DFC30B39AF80C30C2
:10127000DFF894B0002B14BF032302238BF8053052
:1012800000F0FCF84FF47A732946B0FBF3F0CBF88A
:1012900000005846FFF74AFB182307300293104B13
:1012A0000193C0F3CF0040F25513049000930395CF
:1012B00042464B46204600F0E7FB9AF80C300BB153
:1012C000FFF7AAFA9AF80C30002B7FF4EAAE13B0BD
:1012D000BDE8F08FA021002098210020A822002046
:1012E000AC220020401DA12026812A0BF1C6A7C1F7
:1012F000D068080FB8220020AD2200209C210020D9
:1013000099210020C82100208811002070B501F02B
:10131000F1FF094C094E2070002530682378834284
:1013200008D901F0E3FF336805440133B5F5D04F28
:101330003360F2D370BD00BFB4220020B022002081
:1013400002F066B807B502AB00F1006043F8041D77
:101350000422194600F5D04002F006F803B05DF80B
:1013600004FB0000054B1A68054B1B789B1A83424F
:1013700002D9104401F0BABF00207047B02200200B
:10138000B422002038B5074D04462868204401F0F7
:10139000B3FF28B928682044BDE8384001F0BEBF3B
:1013A00038BD00BFB0220020022802BF4FF090439A
:1013B0004FF480129A61704710B50023934203D016
:1013C000CC5CC4540133F9E710BD0000024603466B
:1013D000981A13F9011B0029FAD1704702440346F9
:1013E000934202D003F8011BFAE770470FB40020C4
:1013F00004B070470EB4002003B07047FEE7000051
:1014000000B59BB0EFF3098168226846FFF7D4FF6F
:10141000EFF30583034B9A6B9A6A9A6A9A6A9A6AFF
:101420009B6AFEE700ED00E000B59BB0EFF3098199
:1014300068226846FFF7C0FFEFF30583044B9A6B01
:101440009A6A9A6A9A6A9A6A9A6A9B6AFEE700BFDF
:1014500000ED00E000B59BB0EFF30981682268461B
:10146000FFF7AAFFEFF30583034B5A6B9A6A9A6A58
:101470009A6A9A6A9B6AFEE700ED00E002F000B803
:1014800001F0DABF30B5084D0A4491420BD011F893
:10149000013B09245840013CF7D040F300032B40A6
:1014A00083EA5000F7E730BD2083B8ED02460068BC
:1014B00048B103681360D388118901339BB2994204
:1014C000D38038BF1381704770B588B00D4604468D
:1014D000202200216846FFF781FF20460495FFF790
:1014E000E5FF054658B16B46044608AE1A4603CAE6
:1014F000B24220606160134604F10804F6D1284628
:1015000008B070BD2DE9F04130B9274B274A40F2B1
:10151000C531274802F03AFB0B7C23B9254B234AFF
:1015200040F2C631F5E7C66986B9C161BDE8F08110
:10153000002B29DA930CAB4229D1B44201D10C60C3
:10154000F3E7C8F800100C60BDE8F0814B6823F0A9
:101550006047BD0C4FEAD37EC3F3807C15EA2305B8
:1015600038BF3D46B04634466368BEEBD37F23F0B8
:101570006042DDD1974203D1C3F380739C450AD109
:10158000974205E01C46EFE7AA4206D013469D426B
:101590002CBF00230123002BCFD12368A046002BB2
:1015A000F0D12160BDE8F081CC400008C03E0008C9
:1015B00084410008A541000808B5034A034B0448CC
:1015C00040F25E3102F0E2FA9C3E0008444100081D
:1015D0008441000808B503680B60C388016033B913
:1015E000044B054A05484FF4C76102F0CFFA013BAE
:1015F000C38008BD14410008103F00088441000862
:1016000070B50C4600F10C05616831B9E38A61F3ED
:101610000903E3820020002170BD0E682846FFF711
:10162000D9FF6660F0E7000008B5426832B10B4BA5
:101630000B4A0C4840F22F4102F0A8FAC37DC3F3D5
:101640008401013161F38603C375C38A62F3090320
:10165000C3821B0A62F3C713C37508BD604100084B
:10166000CC3E0008844100082DE9F047089E32B9BD
:101670001F4B204A204840F2395102F087FA01F00E
:1016800007054FEAD6082A4406F0070600EBD1000A
:101690004FF47F49954201D1BDE8F08705F0070E70
:1016A00006F0070AD645774638BF5746C7F1080700
:1016B000511BEC088F4228BF0F46045D08EBD60192
:1016C00004FA0EF413F801C029FA07FE24FA0AF40A
:1016D0005FFA8EFE8CEA04044EFA0AFE04EA0E0457
:1016E0008CEA040C03F801C03D443E44D2E700BF3D
:1016F000E0400008E43E0008844100082DE9F04184
:1017000006460F4600254FF6FF7441F221082A468F
:1017100030463946FEF744FDC0B284EA002408236F
:1017200014F4004F4FEA4404A4B203F1FF3318BF8E
:1017300084EA080413F0FF03F2D10835402DE6D106
:101740002046BDE8F081000010B50A4441F22104B2
:10175000914200D110BD11F8013B80EA032008231B
:1017600010F4004F4FEA400080B203F1FF3318BF7E
:10177000604013F0FF03F3D1EAE700002DE9F04FDA
:1017800085B08A468DE80C00BDF83C40814630B9F2
:10179000494B4A4A40F26E31494802F0F7F911F0DC
:1017A000604F04D0474B454A40F26F31F4E7009B4D
:1017B000002B7ED024B10E9B002B7AD0072C28D88A
:1017C00009F10C00FFF772FE054628B96FF002051B
:1017D000284605B0BDE8F08F14220021FFF7FEFD7A
:1017E00022460E9905F10800FFF7E6FD631C2B74F5
:1017F000009B1B782C4403F01F0363F03F0323720C
:101800004AF000436B6029464846FFF77BFE0125FE
:10181000DEE7019B1B0A4FF00008029300F10C0366
:101820004FF0800B4646454603930398FFF73EFE74
:1018300007460028CAD014220021FFF7CFFDB6BB0F
:101840009DF804303B729DF808307B7202220E9B9B
:10185000711E1944B4420AD9B8180132D2B211F833
:1018600001EF80F808E00136072AB6B2F2D1009BFA
:10187000197801F01F01B44208BF4FF0400BB818AF
:1018800041EA48114BEA0103037201324AF0004376
:101890007B603A7439464846FFF734FE0135B4425E
:1018A0002DB288F001084FF0000BBED190E7002266
:1018B000CDE76FF001058BE7CC400008B03E000893
:1018C00084410008F04000082DE9F0471E46CB8A0D
:1018D0009146C3F30902062A80460F4619D01346E3
:1018E0000021B0B28DB25A1992B2052A09D9A84284
:1018F00010D8FA8A034463F30902FA820120BDE892
:10190000F087A842F3D93A4419F80140947601319E
:10191000E8E70025FB8A7C68C3F30900821F1C23CB
:10192000B2FBF3FA03FB1A2A1FFA8AF27CB30121F5
:101930002368002B39D1B31F03441C20B3FBF0F301
:1019400001339BB299420CD2BAF1000F09D1404643
:10195000FFF7ACFD08B1C0F800A0206008B3044652
:101960000022B6B24FF0000AB54230D2691E494497
:101970001346E01801339BB211F801EF80F804E040
:1019800001351C2BADB214D0AE42F2D8ECE7404684
:10199000FFF78CFD044608B1002303607C60002C37
:1019A000DED16FF00200BDE8F087013189B21C463C
:1019B000BEE7AE42D8D94046FFF778FD08B1C0F87F
:1019C00000A020600028ECD004460022CCE7FB8A6F
:1019D000C3F30902164466F30903FB828EE7000095
:1019E000F8B50E4615461F46044628B9144B154A4D
:1019F00015484F2102F0CAF824220021FFF7EEFC1F
:101A0000069B6360079B23626A094FF6FF739A4245
:101A10004FF0000028BF1A46A7602070A061E06167
:101A200097B204F10C05824205D100232B60278276
:101A30006382A382F8BD2E60013035462036F2E77E
:101A4000C84000083C3E00088441000808B528B999
:101A5000084B094A7321094802F098F8037823B922
:101A60004BB2002B01DD017008BD054B024A7D2100
:101A7000F1E700BFCC400008483E00088441000860
:101A800010400008007870472DE9F7430D9EBDF81F
:101A900028900B9D9DF83040BDF8388007461946C8
:101AA000104616B9B8F1000F43D11F2C41D83B782E
:101AB000D3B9B8F1070F39D839F0030339D1424609
:101AC00031464FF6FF70FFF73FFE4FEA092920F03D
:101AD000010009F44079400449EA0464400C44EAF6
:101AE00040244FF6FF730DE043EA0923B8F1070FD6
:101AF00043EA0464F5D9FFF701FE42463146FFF799
:101B000023FE03468DE840012A4621463846FFF76A
:101B100035FE0DB9FFF750FD2B780133DBB21F2BDB
:101B200088BF00232B7003B0BDE8F0836FF0030083
:101B3000F9E76FF00100F6E72DE9F7430E9F0B9DE3
:101B40009DF83480BDF83C6081469DF8300007B9AF
:101B5000C6BB1F2836D899F800E0BEF1000F34D07C
:101B60000C0244F080049DF8281044EAC83444EA8A
:101B7000014444EA0E04072E44EA006415D91946CC
:101B80001046FFF7BBFD32463946FFF7DDFD034641
:101B9000019600972A4621464846FFF7EFFDB8F127
:101BA000010F0CD125B9FFF707FD4FF6FF73EFE7E3
:101BB0002B780133DBB21F2B88BF00232B7003B0BF
:101BC000BDE8F0836FF00100F9E76FF00300F6E77E
:101BD000C06900B104307047C1690B68C3610C3043
:101BE000FFF7F8BC2DE9F84FD0F818A0DFF86C80AB
:101BF000054616461F4654464FF0000900F10C0BEF
:101C00000CB9BDE8F88FD4E90223B21A67EB0303DD
:101C1000994508BF90451FD2AB699C422146284692
:101C20000DD1FFF7EDFCAB691B68AB61214658464F
:101C3000FFF7D0FCAC692346A2461C46E0E7FFF75D
:101C4000DFFC2368CAF8003021465846FFF7C2FC83
:101C50005446DAF80030EFE72368EDE780841E0091
:101C60002DE9F04F8BB00D4614460793DDF85090E8
:101C70008246002800F06481B9F1000F00F0608115
:101C8000531E3F2B00F25C81012A03D1079B002BDE
:101C900040F05681BAF81460F6000023B54208936C
:101CA000099380F053812B199E420AD2761B16F0BD
:101CB000FF0607D1AB4BAC4A40F26751AB4801F08D
:101CC00065FF2646DAF80C3023B9DAF81030002B1D
:101CD00000F0A5802F2D31D8C5F1300846454FF0D2
:101CE00000032CBF5FFA88F8B0460093294608AB82
:101CF0004246DAF80800FFF7B7FCA6EB08074544B0
:101D0000FFB2BAF8143003F10053063BDB00029334
:101D1000DAF80C3005934FF0300B059B002B51D0B7
:101D200087B9DAF81000002861D0002F5FD0AB45EA
:101D300050D98F4B8C4A40F2A651BFE737464FF03F
:101D40000008DEE7029B23B98A4B874A4FF4B16152
:101D5000B4E7029BE02B28BFE02306935B44AB4231
:101D600004931DD95B1B9F4226BFDBB203930397ED
:101D7000AB4504D97E4B7C4A40F291519EE70598D1
:101D8000CDF8008008ABA5EB0B01039A0430FFF7F8
:101D90006BFC039B9844FF1A1D445FFA88F8FFB25E
:101DA000049B9B4504D3744B6F4A40F29B5185E7DB
:101DB000029B069ADDF810B09B1A0293059B1B68E4
:101DC0000593AAE7029BBB42ABD26C4B664A40F23A
:101DD000A15173E7CDF800803A46A5EB0B0108ABA3
:101DE000FFF742FCB8443D445FFA88F80027BAF890
:101DF0001430B5EBC30F04D9614B5B4A40F2B151CB
:101E00005CE7B8F1400F04D95E4B574A40F2B2513B
:101E100054E767B15C4B544A40F2B3514EE700932C
:101E2000324608AB2946DAF80800FFF71DFC731E9E
:101E30003F2B35B201D8A64204DD544B544A40F240
:101E400035213BE760070AD00AAB03EBD4016242BD
:101E500011F8083C02F00702134101F8083C082C75
:101E600021D9102C21D9202C8CBF08230423079AB8
:101E7000002A6DD0B4EBC30F6CD0082C04F1FF32F4
:101E800015D89DF8203023FA02F2D10706D54FF07D
:101E9000FF3202FA04F423438DF820309DF82030FD
:101EA00089F800304EE00123E1E70223DFE7102C40
:101EB00011D8BDF8203023FA02F2D20706D54FF030
:101EC000FF3202FA04F42343ADF82030BDF820308D
:101ED000A9F8003036E0202C0ED8089921FA02F239
:101EE000D30705D54FF0FF3303FA04F40C430894ED
:101EF000089BC9F8003025E0402C1CD0DDE90867BC
:101F000030463946FEF74CF9002100F0010050EA56
:101F100001030BD0224601200021FEF74DF940427B
:101F200061EB410106430F43CDE90867DDE9082372
:101F3000C9E9002306E0174B154A4FF42071BDE6AE
:101F40006FF0010528460BB0BDE8F08F1D46F9E79C
:101F5000012CA3D0082CA1D9102CB7D9202CE5D85E
:101F6000C6E700BF1C3F0008F43E0008844100089B
:101F70003E3F00082B3F0008633F00088B3F0008EE
:101F8000B23F0008E03F0008F83F00081240000898
:101F9000743E00081040000830B585B030B9244BBD
:101FA000244A40F2B121244801F0F0FD23B9234B2B
:101FB000204A40F2B221F6E7402A04D9204B1D4ABC
:101FC00040F2B621EFE722B91D4B1A4A4FF42F71A8
:101FD000E9E70024012A0294039417D11B788DF8B5
:101FE000083053070AD004AB03EBD203554213F871
:101FF000084C05F00705AC4003F8084C0091034677
:10200000002102A8FFF730FB05B030BD082AE5D952
:10201000102A03D81B88ADF80830E2E7202A02D83E
:102020001B680293DDE7D3E90045CDE90245D8E717
:102030004C400008883E00088441000867400008C2
:102040001040000870B50C4600F10C05E16819B9A4
:10205000A1602161A18270BD0E682846FFF7BAFA1F
:10206000E660F3E72DE9F04FD1F8009091B0C9F3A5
:10207000C01604460D46CDE90223002E50D0C9F308
:10208000C03BC9F30626B9F1000F80F29F8119F019
:10209000C04F40F09B812B7B002B00F09781BBF160
:1020A000020F03D02278B24240F0938109F07F0200
:1020B000BBF1020F059236D119F07F0FC9F30F2A39
:1020C00001D10AF0030A2B447606059A93F803809F
:1020D00046EA0B4646EA82465FEAD81346EA0A0613
:1020E000069300F09A800022002310A961E90823DA
:1020F000059B009367685B4652462046B847002818
:1021000000F08880A7698FB9314604F10C00FFF711
:10211000DBF90746D0B96FF0020011B0BDE8F08FCF
:102120004FF0020BAFE7C9F3074ACCE73B699E4289
:102130000DD03F68002FF9D1314604F10C00FFF7B4
:10214000C3F907460028E6D0A3693B60A761DDE933
:102150000801FFF7D3FAB882F97D08F01F06C1F332
:102160008401711A89B20FFA81FED7E90223BEF108
:10217000000FB8BF01F1200EC9F30461B8BF0FFA18
:102180008EFE079152EA030100F02F81DDE9020182
:10219000801A61EB030102460B469F4800219942D9
:1021A00008BF9042C0F02181069B002B3FD0BEF1BA
:1021B000010F00F31A8118F0400F38D0DDE9022337
:1021C000C7E90223202200210DEB0200FFF706F9E8
:1021D000DDE90223CDE908232B1D0A932B7BADF803
:1021E00036A0013BDBB2ADF834309DF81C308DF8E1
:1021F0003A309DF814308DF83B3020468DF838B0D9
:102200008DF83960A36808A998473846FFF70CFA9B
:10221000002082E76FF00B007FE7A76917B96FF026
:102220000C007AE73B699E4296D03F68F6E7FB7D5B
:10223000C8F34012B2EBD31F40F0CE80C3F3840347
:10224000B34240F0CC8006992B7B4FEA981279B3C9
:10225000D2073CD4032B40F2C580DDE90223C7E955
:1022600002232B7BAE1D033BDBB23246394604F121
:102270000C00FFF729FB002808DA39462046FFF753
:10228000BFF93846FFF7D0F9032046E7AB883B8318
:102290002A7B033AD2B2B88A3146FFF755FAFB7D62
:1022A000B882DA43C2F3C01262F3C713FB75AFE71B
:1022B0006AB92E1D013BDBB23246394604F10C00EF
:1022C000FFF702FB0028D8DB2A7B013AE2E7FA8A13
:1022D000C2F30902013B052AD9B250D8281D0023B8
:1022E00099420AD907EB020E013210F801CB8EF8A1
:1022F0001AC00133062ADBB2F2D1DDE902898B4232
:1023000007F11A02CDE908890A9238BF04337A68C6
:102310000B9234BF5B1900230C93FB8AADF836A0F7
:10232000C3F3090319449DF81C308DF83A309DF829
:1023300014308DF83B300023ADF834108DF838B0F0
:102340008DF839607B602A7BB88A013A291DFFF736
:10235000FBF93B8BB882834203D1A36808A92046CE
:10236000984708A92046FFF76DFE3846FFF75CF94D
:10237000B88A3B8B984214BF11200020CDE67868C4
:1023800010B34FF0060E03689BB9A2EB0E021B2A96
:1023900013D80332024405F1040E1F309942ACD920
:1023A0001EF801CB02F801CF01339042DBB2F5D128
:1023B000A3E70EF11C0E1846E5E7184B184A19481A
:1023C00040F2B31101F0E2FB034696E76FF009001B
:1023D000A3E66FF00A00A0E66FF00D009DE66FF037
:1023E0000E009AE66FF00F0097E6FB7D68F3860318
:1023F0006FF3C713FB7539462046FFF701F9069BBB
:10240000002B7FF4D8AEFB7DC3F38402013262F36C
:102410008603FB7503E700BF80841E007C40000834
:10242000603E0008844100082DE9F0414C4EB04266
:1024300040F081804B4CDFF830E1E56945F00075F4
:10244000E561E469846AD4F8007207EA0E0747F090
:102450000107C4F80072D4F8005205EA0E0545F0F1
:10246000010545EA0121C4F80012002A65D00021C7
:10247000C4F81C120F46C4F80412C4F80C12C4F8B5
:10248000141204EBC10501310E29C5F84072C5F8DC
:102490004472F6D14FF0000E4FF0010C964510D16A
:1024A000826AD2F80032B04223F00103C2F800324F
:1024B00053D12C4BDA6922F00072DA61DB69BDE896
:1024C000F0819F781D8817F0010F18BFD4F804829F
:1024D0000CFA05F11CBF41EA0808C4F8048217F0A1
:1024E000020F1EBFD4F80C8241EA0808C4F80C821F
:1024F0007F0742BFD4F814720F43C4F8147204EB80
:10250000C5055F68C5F840729F68C5F84472D4F885
:102510001C522943C4F81C120C330EF1010EBDE706
:10252000846A0021C4F81C12C4F80412C4F80C1206
:10253000C4F81412AEE7002AF2D1836A0022C3F86D
:102540004022C3F84422C3F80422C3F81422012213
:10255000C3F80C22C3F81C22A2E7BDE8F08100BF3B
:10256000B8220020001002400000FFFF184A916AC4
:1025700008B58B688B6013F0010105D013F00C0FC8
:1025800014BF4FF480310121D80506D513F4406FF4
:1025900014BF41F4003141F00201D80306D513F411
:1025A000402F14BF41F4802141F00401D3690BB1E5
:1025B00007489847202383F311880021054800F03D
:1025C0000BFE002383F31188BDE8084001F002B838
:1025D000B8220020C022002038B5124CA36ADD6862
:1025E000AA0712D05A6922F002025A61A36913B1F4
:1025F000012120469847202383F3118800210A48AF
:1026000000F0EAFD002383F31188EB0606D5A36AE8
:102610001021D960236A0BB102489847BDE83840C1
:1026200000F0D8BFB8220020C822002038B5124CD4
:10263000A36A1D69AA0712D05A6922F010025A61D2
:10264000A36913B1022120469847202383F3118800
:1026500000210A4800F0C0FD002383F31188EB0637
:1026600006D5A36A10211961236A0BB10248984765
:10267000BDE8384000F0AEBFB8220020C8220020DC
:1026800038B50F4CA36A5D685D602A070AD503223E
:1026900022701A6822F002021A60636A13B10021E4
:1026A000204698476B0706D5A36A9969236A13B138
:1026B000090403489847BDE8384000F08BBF00BFCD
:1026C000B822002010B50F4C204600F03DFA0E4B0A
:1026D000A3620B21132000F017FA0B21142000F045
:1026E00013FA0B21152000F00FFA0B21162000F031
:1026F0000BFA002320461A460E21BDE81040FFF7D2
:1027000093BE00BFB8220020006400400F4B9842E7
:1027100010B5044605D10E4BDA6942F00072DA6159
:10272000DB69A36A01221A60A36A5A68D20707D537
:10273000626851681268D9611A60064A5A6110BD10
:102740000121082000F07CFCEEE700BFB822002049
:10275000001002405B87010003291AD8DFE801F06E
:10276000020A0F14836A9B6813F0E05F14BF012014
:1027700000207047836A9868C0F380607047836A5E
:102780009868C0F3C0607047836A9868C0F30070AF
:10279000704700207047000010B503291FD8DFE8FC
:1027A00001F0021F2327816A8B68C3F3016318338A
:1027B00001EB0313107881061ED55468C0F3001195
:1027C000490041EAC40141F0040100F00F005860E3
:1027D00090689860D268DA6041F00101196010BD1C
:1027E000836A03F5C073E5E7836A03F5C873E1E71D
:1027F000836A03F5D073DDE79488C0F300114900C4
:1028000041EA4451E1E7000001290CD003D3022939
:1028100010D000207047836ADA68920701D11869E6
:1028200003E001207047836AD86810F0030018BFE6
:1028300001207047836AF2E710B539B9836AD96815
:1028400089071BD11B699B0704D110BD012915D035
:10285000022948D1816AD1F8C031D1F8C401D1F838
:10286000C8411461D1F8CC41546120240C610C6939
:10287000A40717D14C6944F0100412E0816AD1F822
:10288000B031D1F8B401D1F8B8411461D1F8BC41EC
:1028900054612024CC60CC68A40703D14C6944F077
:1028A00002044C6111795C0864F304119C0864F320
:1028B0004511117189064BBF91681189DB085B0DC9
:1028C0004CBF63F31C0163F30A01137948BF9160A5
:1028D00060F3030313714FEA10234FEA104058BF0F
:1028E00011811370508010BD002304491A465A50BC
:1028F000C8180833802B4260F9D17047E4220020C9
:10290000026843681143016003B118477047000033
:10291000024A136843F0C003136070470038014057
:10292000024A136843F0C00313607047004400403C
:102930002DE9F047C66D3768F46934620546200713
:1029400019D014F0080F0CBF00218021E20748BF06
:1029500041F02001A30748BF41F04001600748BF94
:1029600041F48071202383F31188281DFFF7C8FFED
:10297000002383F31188E2050AD5202383F311880D
:102980004FF40071281DFFF7BBFF002383F311886C
:102990004FF020094FF0000A14F0200831D13B0617
:1029A00016D54FF0200905F1380A200610D589F315
:1029B0001188504600F04CFA00282FDA0821281D13
:1029C000FFF79EFF27F080033360002383F3118815
:1029D00079060DD562060BD5202383F31188EA6CA6
:1029E0002B6D9A4201D12B6CF3B9002383F311882C
:1029F000E30621D5AA6E1369F3B15069BDE8F0472B
:102A0000184789F31188B38C95F86410284619404B
:102A100000F0AAFA8AF31188F469BDE780B2308524
:102A200088F31188F469C0E71021281D27F04007BA
:102A3000FFF766FF3760D8E7BDE8F08708B50348C1
:102A4000FFF776FFBDE8084000F0C4BD6423002016
:102A500008B50348FFF76CFFBDE8084000F0BABDB9
:102A6000D023002037B51D4C1D4D204600F070FAD4
:102A7000009404F11400002320221A4900F032F9D6
:102A80002022009404F13800174B184900F0ACF9EB
:102A9000174BE3652566174C0C21252000F034F810
:102AA000204600F055FA04F114000094002320227F
:102AB000114900F017F904F1380000940F4B104948
:102AC000202200F091F90F4BE3650C2126202566AA
:102AD00003B0BDE8304000F017B800BF6423002009
:102AE000005125023C240020112900087C240020EC
:102AF00000380140D02300205C2400202129000858
:102B00009C2400200044004000F1604300F01F02BC
:102B1000400903F5614309018000C9B200F160403A
:102B200083F8001300F5614001239340C0F8803121
:102B30000360704700F16040090100F56D40C9B2C3
:102B400001767047FFF7BEBD00F108020123037054
:102B500082600023C26000F11002436002614261A2
:102B60008361C361036243627047000010B5202394
:102B7000044683F31188022303704160FFF7C6FD0A
:102B800003232370002383F3118810BD2DE9F04146
:102B90001F4604460D461646202383F3118800F194
:102BA00008082378042B0ED029462046FFF7D4FDD1
:102BB00048B1204632462946FFF7EEFD002080F35B
:102BC0001188BDE8F0813946404600F0E9FA002856
:102BD000E7D0002383F31188BDE8F0812DE9F041AF
:102BE0001F4604460D461646202383F3118800F144
:102BF00010082378042B0ED029462046FFF704FE48
:102C000048B1204632462946FFF716FE002080F3E1
:102C10001188BDE8F0813946404600F0C1FA00282D
:102C2000E7D0002383F31188BDE8F081F8B515469D
:102C300082680669AA420B46816938BF8568761AA0
:102C4000B542044607D218462A46FEF7B5FBA369EB
:102C50002B44A3610DE011D932461846FEF7ACFBB8
:102C6000AF1B3A46E1683044FEF7A6FBE2683A44FF
:102C7000A261A3685B1BA3602846F8BD18462A46DC
:102C8000FEF79AFBE368E4E783682DE9F041044628
:102C900093421546266938BF85684069361AB542A1
:102CA0000F4606D22A46FEF787FB63692B44636111
:102CB0000DE012D93246A5EB0608FEF77DFB424631
:102CC000B919E068FEF778FBE26842446261A368E4
:102CD0005B1BA3602846BDE8F0812A46FEF76CFB2B
:102CE000E368E4E710B50A440024C361029B006076
:102CF00040608460C160816141610261036210BD16
:102D000008B582694369934201D1826882B98268B9
:102D1000013282605A1C42611970426903699A4209
:102D200001D3C3684361002100F04AFA002008BDC6
:102D30004FF0FF3008BD000070B5202304460E465A
:102D400083F31188A568A5B1A368A269013BA360BC
:102D5000531CA36115782269934224BFE368A361E1
:102D6000E3690BB120469847002383F31188284676
:102D700070BD3146204600F013FA0028E2DA85F3F0
:102D8000118870BD2DE9F74F05460F4690469A46CB
:102D9000D0F81C90202686F311884FF0000B1446C3
:102DA00064B1224639462846FFF740FF034668B91A
:102DB0005146284600F0F4F90028F1D0002383F3AF
:102DC0001188A8EB040003B0BDE8F08FB9F1000F43
:102DD00003D001902846C847019B8BF31188E41A61
:102DE0001F4486F31188DBE7C16081614161C361E3
:102DF0001144009B00604060826001610362704783
:102E0000F8B504460E461746202383F31188A568BB
:102E1000A5B1A368013BA36063695A1C62611E707F
:102E2000236962699A4224BFE3686361E3690BB175
:102E300020469847002080F31188F8BD3946204687
:102E400000F0AEF90028E2DA85F31188F8BD000041
:102E5000836942699A4210B501D182687AB9826861
:102E6000013282605A1C82611C7803699A4201D344
:102E7000C3688361002100F0A3F9204610BD4FF024
:102E8000FF3010BD2DE9F74F05460F4690469A4694
:102E9000D0F81C90202686F311884FF0000B1446C2
:102EA00064B1224639462846FFF7EEFE034668B96C
:102EB0005146284600F074F90028F1D0002383F32E
:102EC0001188A8EB040003B0BDE8F08FB9F1000F42
:102ED00003D001902846C847019B8BF31188E41A60
:102EE0001F4486F31188DBE70268436811430160E1
:102EF00003B11847704700001430FFF743BF0000CC
:102F00004FF0FF331430FFF73DBF00003830FFF7BC
:102F1000B9BF00004FF0FF333830FFF7B3BF0000F8
:102F20001430FFF709BF00004FF0FF311430FFF7F6
:102F300003BF00003830FFF763BF00004FF0FF32DF
:102F40003830FFF75DBF000000207047FFF78ABDF3
:102F5000044B0360002343608360C3600123037458
:102F6000704700BFC041000838B5C36904460D462C
:102F70001BB904210844FFF7B7FF294604F11400E8
:102F8000FFF7BEFE002806DA201D4FF48061BDE881
:102F90003840FFF7A9BF38BD024B00221B605B60C1
:102FA0009A607047BC240020002303748268054B9C
:102FB0001B6899689142FBD25A68036042601060B6
:102FC00058607047BC24002008B5202383F3118883
:102FD000037C032B05D0042B0DD02BB983F3118870
:102FE00008BD436900221A604FF0FF334361FFF7C9
:102FF000DBFF0023F2E790E80C001A6002685360E0
:10300000F2E70000002303748268054B1B6899688F
:103010009142FBD85A680360426010605860704764
:10302000BC240020054B19690874186802681A60EE
:103030005360186101230374FDF7E6BABC24002035
:1030400030B54B1C87B005460A4C10D023690A4A9C
:1030500001A800F0DDF82846FFF7E4FF049B13B158
:1030600001A800F0EFF82369586907B030BDFFF7F9
:10307000D9FFF8E7BC240020C92F000838B50C4D53
:1030800041612B6981689A689142044603D8BDE882
:103090003840FFF789BF1846FFF786FF01232C61F0
:1030A000014623742046BDE83840FDF7ADBA00BFA5
:1030B000BC240020044B1A681B6990689B689842E6
:1030C00094BF002001207047BC24002010B5084C9C
:1030D000236820691A6822605460012223611A74EF
:1030E000FFF790FF01462069BDE81040FDF78CBA5C
:1030F000BC24002008B5FFF7DDFF18B1BDE808408B
:10310000FFF7E4BF08BD00008260022202740022C3
:10311000427470478368A3F17C0243F80C2C026967
:1031200043F83C2C426943F8382C074A43F81C2CDE
:10313000C26843F8102C022203F8082C002203F87E
:10314000072CA3F1180070472106000810B52023B2
:1031500083F31188FFF7DEFF00210446FFF78EFF9F
:10316000002383F31188204610BD0000024B1B6929
:1031700058610F20FFF756BFBC240020202383F3A3
:103180001188FFF7F3BF000008B50146202383F341
:1031900011880820FFF754FF002383F3118808BD2E
:1031A00049B1064B42681B6918605A60136043605E
:1031B0000420FFF745BF4FF0FF307047BC240020CC
:1031C0000368984206D01A68026050605961184638
:1031D000FFF7EABE7047000038B504460D46206888
:1031E000844200D138BD036823605C604561FFF70D
:1031F000DBFEF4E7054B03F114025A619A614FF0CC
:10320000FF32DA6100221A62704700BFBC2400203E
:1032100010B5C2600A4A036153699C68A1420CD888
:103220005C68036044602060586081609868411A5F
:1032300099604FF0FF33D36110BD091B1B68ECE7A9
:10324000BC240020036881689A680A449A60426836
:10325000136003685A600023C360024B4FF0FF32D3
:10326000DA617047BC24002000207047FEE70000B0
:10327000704700004FF0FF3070470000BFF34F8FE2
:10328000024AD368DB07FCD4704700BF002002402D
:1032900008B5074B1B7853B9FFF7F0FF054B1A69C8
:1032A000120641BF044A5A6002F188325A6008BDD2
:1032B0000C250020002002402301674508B5054B7E
:1032C0001B7833B9FFF7DAFF034A136943F0800331
:1032D000136108BD0C250020002002407F289ABF02
:1032E00000F58030C0020020704700004FF40060FD
:1032F00070470000802070477F2808B50BD8FFF783
:10330000EDFF00F500630268013204D1043083420E
:10331000F9D1012008BD002008BD00007F2810B5AC
:1033200004461CD8FFF7AAFFFFF7B2FF0D4BF322AC
:10333000DA6002221A61FFF7D1FF58611A6942F080
:1033400040021A61FFF79AFF4FF4006100F0F6F8AF
:10335000FFF7B4FF2046BDE81040FFF7CDBF0020C7
:1033600010BD00BF002002402DE9F84312F0010318
:10337000144606D0204B40F239221A600020BDE8E6
:10338000F88385181D4A954204D91B4A40F23E2114
:103390001160F3E7FFF77CFFFFF770FFDFF86C8049
:1033A000451A4FF00109012C05EB01060F4604D820
:1033B000FFF784FF0120BDE8F883C8F8109031F8CA
:1033C000023B3380FFF75AFF0020C8F81000338813
:1033D0003A889BB29A420DD0074B40F255221A60B0
:1033E000074B1E60074B1C60074B1F60FFF766FF13
:1033F000BDE8F883023CD6E708250020FFFF03085C
:10340000FC2400200425002000250020002002408C
:10341000084908B50B7828B153B9FFF739FF0123E4
:103420000B7008BD23B1BDE808400870FFF746BF28
:1034300008BD00BF0C25002038B500F079F90D4B10
:103440000D4A1C6A11684FF47A7303FB04F38B4234
:103450000A49D1E9004504D2003445F10105C1E92A
:103460000045E41845F10005136000F06BF92046B3
:10347000294638BDBC240020102500201825002036
:1034800008B5FFF7D9FF4FF47A720023FCF7A0FECE
:1034900008BD00BF10B50244064B0439D2B29042B9
:1034A00000D110BD441C00B253F8200041F8040FB5
:1034B000E0B2F4E750280040104B30B51C6A2404F9
:1034C00007D41C6A44F440741C621C6A44F400442F
:1034D0001C620B4C236843F4807323600244094B45
:1034E0000439D2B2904200D130BD441C00B251F830
:1034F000045F43F82050E0B2F4E700BF0010024040
:10350000007000405028004007B5012201A90020AA
:10351000FFF7C0FF019803B05DF804FB13B5044644
:10352000FFF7F2FFA04206D002A9012241F8044DA4
:103530000020FFF7C1FF02B010BD0000704700007F
:10354000074B45F255521A6002225A6040F6FF724C
:103550009A604CF6CC421A60024B01221A707047F6
:103560000030004021250020034B1B781BB1034B8A
:103570004AF6AA221A607047212500200030004038
:10358000034B1B689B0042BF024B01221A7070471D
:103590002410024020250020024B4FF080721A6058
:1035A000704700BF24100240014B1878704700BFDD
:1035B00020250020064A536823F001035360EFF3EF
:1035C0000983683383F30988002383F311887047E4
:1035D00030EF00E010B5202383F31188104B5B68B7
:1035E00013F4006318D0F1EE103AEFF309844FF0B2
:1035F000807344F84C3C0B4BDB6844F8083CA4F166
:10360000680383F30988FFF755FD18B1064B44F8AA
:10361000503C10BD054BFAE783F3118810BD00BF85
:1036200000ED00E030EF00E031060008340600084D
:1036300070470000FEE70000084A094B09498B4229
:1036400004D3094A0021934205D3704752F8040F6E
:1036500043F8040BF3E743F8041BF4E77443000852
:10366000642600206426002064260020FEE7000077
:1036700010B5174CFFF790FCFFF7BCFD80221549F1
:103680002046FFF741FD012344F8180C0374124B48
:10369000124AD96821F4E0610904090C0A4310496F
:1036A000DA60CA6842F08072CA600E490A6842F065
:1036B00001020A601022DA77202283F822200023F8
:1036C00083F3118862B60848BDE81040FFF73EBD9D
:1036D000E4240020E841000800ED00E00003FA05C2
:1036E000F0ED00E0001000E0F0410008F8B50F4CEC
:1036F000226A01322262224652F8141F9142154674
:1037000006D08B68013B8B60202663699A6802B102
:10371000F8BD1968DF68DA604D60616182F3118875
:103720001869B84786F31188EFE700BFBC24002072
:10373000EFF3118020B9EFF30583202282F3118883
:103740007047000010B558B9EFF30584C4F30804BE
:1037500014B180F3118810BDFFF7CCFC84F31188FD
:1037600010BD00004B6843608B688360CB68C3600A
:103770000B6943614B6903628B6943620B680360A9
:103780007047000008B5194B9A6A42F4FC029A622D
:103790009A6A22F4FC029A629A6A5A6942F4FC021A
:1037A0005A61134A5B6911464FF09040FFF7DAFF08
:1037B000104802F11C01FFF7D5FF0F4802F1380154
:1037C000FFF7D0FF0D4802F15401FFF7CBFF0C4883
:1037D00002F17001FFF7C6FF0A4802F18C01FFF702
:1037E000C1FFBDE8084000F065B800BF001002400E
:1037F000104200080004004800080048000C00487F
:10380000001000480014004808B500F08FF9FFF7D9
:103810002FFFBDE80840FFF7B3BE0000704700006F
:1038200010B5214CA26A62F4FC02A262A26A02F400
:10383000FC02A2624FF0FF31A26A22692161226973
:10384000002222612069E068E160E168E260E168ED
:10385000E169164841F08051E161E169016841F494
:1038600080710160216A01F44071B1F5407F1EBF93
:103870004FF4803323622262236A1B0407D4236A35
:1038800043F440732362236A43F40043236200F04D
:103890002DF9A369064A43F00103A361A3691368E4
:1038A00043F02003136010BD001002400070004080
:1038B000000001401C4B1A6842F001021A601A68AD
:1038C0009007FCD55A6822F003025A605A6812F039
:1038D0000C02FBD1196801F0F90119605A601A68ED
:1038E00042F480321A601A689103FCD50F4A5A607C
:1038F0004FF40452DA6230221A631A6842F080727E
:103900001A601A689201FCD5094A122111605A689E
:1039100042F002025A605A6802F00C02082AFAD1F8
:103920001A6B1A63704700BF0010024000241D008C
:1039300000200240084A08B5536911680B4003F0A3
:103940000103536123B1054A13680BB150689847CE
:10395000BDE80840FFF73EBE00040140E42200201D
:10396000084A08B5536911680B4003F0020353611C
:1039700023B1054A93680BB1D0689847BDE8084069
:10398000FFF728BE00040140E4220020084A08B5E1
:10399000536911680B4003F00403536123B1054AD6
:1039A00013690BB150699847BDE80840FFF712BE94
:1039B00000040140E4220020084A08B55369116858
:1039C0000B4003F00803536123B1054A93690BB11F
:1039D000D0699847BDE80840FFF7FCBD00040140EE
:1039E000E4220020084A08B5536911680B4003F02F
:1039F0001003536123B1054A136A0BB1506A98470B
:103A0000BDE80840FFF7E6BD00040140E4220020C5
:103A1000174B10B55C691A68144004F478725A6147
:103A2000A30604D5134A936A0BB1D06A984760067F
:103A300004D5104A136B0BB1506B9847210604D57F
:103A40000C4A936B0BB1D06B9847E20504D5094A39
:103A5000136C0BB1506C9847A30504D5054A936CC1
:103A60000BB1D06C9847BDE81040FFF7B3BD00BF65
:103A700000040140E42200201A4B10B55C691A686A
:103A8000144004F47C425A61620504D5164A136D51
:103A90000BB1506D9847230504D5134A936D0BB1B4
:103AA000D06D9847E00404D50F4A136E0BB1506EE9
:103AB0009847A10404D50C4A936E0BB1D06E984779
:103AC000620404D5084A136F0BB1506F9847230462
:103AD00004D5054A936F0BB1D06F9847BDE81040ED
:103AE000FFF778BD00040140E4220020062108B55C
:103AF0000846FFF709F806210720FFF705F8062119
:103B00000820FFF701F806210920FEF7FDFF062136
:103B10000A20FEF7F9FF06211720FEF7F5FF062120
:103B20002820BDE80840FEF7EFBF000008B5FFF70A
:103B300077FEFEF7D9FEFFF705F8FFF707FAFFF764
:103B40006DFEBDE8084000F001B8000000F00EB8BE
:103B500008B5202383F31188FFF7C8FD002383F302
:103B60001188BDE80840FFF735BD0000054B064A47
:103B70005A6000229A6007221A6008210B20FEF783
:103B8000D9BF00BF10E000E03F1901001FB51C467F
:103B9000094B1B680546D86852B1084B02928DE864
:103BA0000A0022462B460649FDF724FC00F042F8A5
:103BB000044B1A46F2E700BF14110020B842000877
:103BC000C5420008473D000810B501390244904243
:103BD00001D1002010BD10F8013B11F8014FA342A4
:103BE000F5D0181B10BD00002DE9F84307468846A4
:103BF00091461E468BB10D46A8EB0500B54207EB7A
:103C0000000402D20020BDE8F8833246494620462F
:103C1000FFF7DAFF18B1013DEEE7BDE8F883204673
:103C2000BDE8F883034611F8012B03F8012B002AA5
:103C3000F9D1704708B5062000F02CF80120FFF7F5
:103C400015FB00001F2938B504460D4604D916237C
:103C500003604FF0FF3038BD426C12B152F8213092
:103C60004BB9204600F030F82A4601462046BDE810
:103C7000384000F017B8012B0AD0591C03D1162385
:103C80000360012038BD002442F8254028469847AB
:103C9000002038BD024B01461868FFF7D3BF00BFB4
:103CA0001411002038B5074C00230546084611467C
:103CB0002360FFF7DFFA431C02D1236803B12B60B6
:103CC00038BD00BF60260020FFF7CEBA40A2E4F165
:103CD000646891064E6F20617070207369670A00F6
:103CE000426164206677206C656E67746820257574
:103CF0000A0042616420626F6172645F696420251A
:103D0000752073686F756C642062652025750A00E4
:103D10004261642061707020435243203078253026
:103D200038783A307825303878203078253038782F
:103D30003A3078253038780A00476F6F642066691A
:103D4000726D776172650A00726563656976656494
:103D50005F756E697175655F69645F6C656E203C47
:103D60002055415643414E5F50524F544F434F4CA4
:103D70005F44594E414D49435F4E4F44455F49446E
:103D80005F414C4C4F434154494F4E5F554E495152
:103D900055455F49445F4D41585F4C454E47544837
:103DA000002E2E2F2E2E2F546F6F6C732F41505FCD
:103DB000426F6F746C6F616465722F63616E2E6306
:103DC000707000616C6C6F63617465645F6E6F64CA
:103DD000655F6964203C3D20313237006F72672E89
:103DE0006172647570696C6F742E61705F7065725A
:103DF0006970685F67707300766F69642068616ED0
:103E0000646C655F616C6C6F636174696F6E5F7227
:103E10006573706F6E73652843616E617264496E7D
:103E20007374616E63652A2C2043616E6172645203
:103E3000785472616E736665722A290063616E61DF
:103E40007264496E6974000063616E6172645365E7
:103E5000744C6F63616C4E6F6465494400000000F0
:103E600063616E61726448616E646C65527846721B
:103E7000616D650063616E6172644465636F646562
:103E80005363616C6172000063616E617264456EC0
:103E9000636F64655363616C61720000696E637285
:103EA000656D656E745472616E7366657249440027
:103EB000656E717565756554784672616D657300E0
:103EC00070757368547851756575650070726570AA
:103ED000617265466F724E6578745472616E736676
:103EE00065720000636F7079426974417272617922
:103EF00000000000646573636174746572547261DC
:103F00006E736665725061796C6F616400000000C9
:103F100066726565426C6F636B0000006269745F76
:103F20006C656E677468203E20300072656D616953
:103F30006E696E675F62697473203E203000696E3F
:103F40007075745F6269745F6F6666736574203E36
:103F50003D20626C6F636B5F6269745F6F6666734E
:103F6000657400626C6F636B5F656E645F62697439
:103F70005F6F6666736574203E20626C6F636B5F73
:103F80006269745F6F66667365740072656D6169FE
:103F90006E696E675F6269745F6C656E67746820D6
:103FA0003C3D2072656D61696E696E675F62697420
:103FB0007300696E7075745F6269745F6F666673B3
:103FC0006574203C3D207472616E736665722D3E8F
:103FD0007061796C6F61645F6C656E202A203800B7
:103FE0006F75747075745F6269745F6F6666736510
:103FF00074203C3D2036340072656D61696E696ED7
:10400000675F6269745F6C656E677468203D3D2010
:10401000300028726573756C74203E20302920268C
:10402000262028726573756C74203C3D2036342937
:104030002026262028726573756C74203C3D206212
:1040400069745F6C656E67746829000064657374D9
:10405000696E6174696F6E20213D202828766F6932
:1040600064202A2930290076616C756520213D2065
:104070002828766F6964202A293029006F666673C4
:1040800065745F77697468696E5F626C6F636B20DB
:104090003C2028333255202D205F5F6275696C7497
:1040A000696E5F6F66667365746F66202843616E24
:1040B000617264427566666572426C6F636B2C2038
:1040C00064617461292900006F75745F696E7320E3
:1040D000213D202828766F6964202A293029000094
:1040E0007372635F6C656E203E20305500000000E7
:1040F0002863616E5F696420262030783146464629
:10410000464646465529203D3D2063616E5F696401
:1041100000000000616C6C6F6361746F722D3E7300
:104120007461746973746963732E63757272656EFA
:10413000745F75736167655F626C6F636B73203E5C
:10414000203000007472616E736665725F6964206E
:10415000213D202828766F6964202A293029000013
:1041600073746174652D3E6275666665725F626C1C
:104170006F636B73203D3D202828766F6964202A89
:10418000293029002E2E2F2E2E2F6D6F64756C6511
:10419000732F6C696263616E6172642F63616E611B
:1041A00072642E63006974656D2D3E6672616D6583
:1041B0002E646174615F6C656E203E2030000000EB
:1041C00000000000152F0008012F00083D2F0008F7
:1041D000292F0008352F0008212F00080D2F000877
:1041E000F92E0008492F00086D61696E000000007B
:1041F0000842000828250020602600200100000059
:104200006D3600080000000069646C650000000065
:10421000A001A80200000000FAAABEAA50001400E3
:10422000EFFF000000770000709709000000000019
:1042300000000000AAAAAAAA00000000FFFF0000D8
:10424000000000000000000000000000000000006E
:10425000AAAAAAAA00000000FFFF000000000000B8
:10426000000000000000000000000000AAAAAAAAA6
:1042700000000000FFFF0000000000000000000040
:104280000000000000000000AAAAAAAA0000000086
:10429000FFFF000000000000000000000000000020
:1042A00000000000AAAAAAAA00000000FFFF000068
:1042B00000000000000000002C2066756E63746929
:1042C0006F6E3A2000617373657274696F6E20229D
:1042D000257322206661696C65643A2066696C65A5
:1042E00020222573222C206C696E6520256425739D
:1042F00025730A000CBFFF7F0100000000000000D2
:10430000FFFFFFFF6400000000000000FE2A010024
:10431000D20400001811002000000000000000007E
:10432000000000000000000000000000000000008D
:10433000000000000000000000000000000000007D
:10434000000000000000000000000000000000006D
:10435000000000000000000000000000000000005D
:10436000000000000000000000000000000000004D
:08437000000000000000000045
:00000001FF
