:020000040800F2
:100000000004012001020008950E0008990E000866
:10001000ED0E0008990E0008C10E0008030200084A
:10002000030200080302000803020008C9300008A8
:10003000030200080302000803020008030200088C
:10004000030200080302000803020008030200087C
:10005000030200080302000825330008513300089A
:100060007D330008A9330008D533000803020008D7
:10007000030200080302000803020008030200084C
:10008000030200080302000803020008030200083C
:1000900003020008030200080302000801340008FC
:1000A000030200080302000803020008030200081C
:1000B0004931000803020008030200080302000897
:1000C00003020008030200080302000803020008FC
:1000D00003020008030200080302000803020008EC
:1000E0006934000803020008030200080302000844
:1000F00003020008030200080302000803020008CC
:1001000003020008030200080302000803020008BB
:1001100003020008030200080302000803020008AB
:10012000030200080302000803020008030200089B
:10013000030200080302000803020008030200088B
:10014000030200080302000803020008C927000890
:10015000030200080302000803020008030200086B
:10016000030200080302000803020008030200085B
:10017000030200080302000803020008030200084B
:10018000030200080302000803020008030200083B
:10019000030200080302000803020008030200082B
:1001A000030200080302000803020008030200081B
:1001B000030200080302000803020008030200080B
:1001C00003020008030200080302000803020008FB
:1001D00003020008030200080302000803020008EB
:1001E00003020008030200080302000803020008DB
:1001F00003020008030200080302000803020008CB
:1002000002E000F000F8FEE772B6394880F3088893
:10021000384880F3098838484EF60851CEF200017C
:10022000086040F20000CCF200004EF63471CEF2CD
:1002300000010860BFF34F8FBFF36F8F40F20000E3
:10024000C0F2F0004EF68851CEF200010860BFF314
:100250004F8FBFF36F8F4FF00000E1EE100A4EF6A4
:100260003C71CEF200010860062080F31488BFF3D1
:100270006F8F01F02DFF02F0AFFE4FF055301F4998
:100280001B4A91423CBF41F8040BFAE71C49194A4A
:1002900091423CBF41F8040BFAE71A491A4A1B4B3A
:1002A0009A423EBF51F8040B42F8040BF8E70020D5
:1002B0001749184A91423CBF41F8040BFAE701F094
:1002C0004BFF02F0F3FE144C144DAC4203DA54F829
:1002D000041B8847F9E700F03FF8114C114DAC4280
:1002E00003DA54F8041B8847F9E701F033BF000034
:1002F000000401200024012000000008000001206B
:100300000004012078380008002401205024012036
:10031000502401204830012000020008000200089B
:1003200000020008000200082DE9F04F2DED108AB0
:10033000C1F80CD0D0F80CD0BDEC108ABDE8F08F1D
:10034000002383F311882846A047002001F042FBD8
:1003500001F0EEFA00DFFEE71B4B6FF06E0270B5A6
:100360001A706FF07F0200245A720E225C709C702B
:10037000DC701C715C719C71DC711C729A72DC7295
:1003800001F068FE064601F09DFE054650B90F4B90
:100390009E4217D001339E4241F2883412BF054677
:1003A00000240125002001F05FFE0DB100F0B6F839
:1003B00000F044FD00F03CFC204600F051F900F054
:1003C000ADF8F9E70446EDE750240120010007B03D
:1003D00008B500F0CFFBA0F120035842584108BDFA
:1003E00007B5054B02211B88ADF8043001A800F0C9
:1003F0000FFC03B05DF804FB4C350008064991F88A
:10040000243033B100230822086A81F8243000F038
:1004100033BC0120704700BF702401202DE9F84F44
:10042000234C94F824300546884617468BBB2E464D
:10043000DFF87C90002F38D094F824A0BAF1000F98
:1004400005D12022FF214846266200F0E5FCCAF1D2
:100450000805BD4228BF3D465FFA85FBAD00414619
:100460002A4604EB8A0000F0ADFC94F82430A7EB98
:100470000B079B445FFA8BFBBBF1080F2E44A8448B
:10048000FFB284F824B0D5D1FFF7B8FF0028D1D14E
:1004900008E0266A06EB8306B042C9D0FFF7AEFF3C
:1004A0000028C4D10020BDE8F88F0120BDE8F88FF6
:1004B0007024012010B572B6202383F3118862B630
:1004C0001248C3680BB101F00DFB0023104A0F481E
:1004D0004FF47A7101F0CAFA002383F311880D4CAE
:1004E000236813B12368013B2360636813B1636819
:1004F000013B6360084B1B7833B9636823B9022062
:1005000000F056FC3223636010BD00BF5C24012064
:10051000B5040008A0250120982401202DE9F04110
:10052000454B464953F8042F013201D1BDE8F08113
:100530008B42F7D1424C434B22689A427AD9424BC4
:100540009B6803F1006303F5C0339A4272D2002026
:1005500000F08AFB3D4B0220187000F021FC3C4B60
:100560001A6C00221A64196E1A66196E596C5A6454
:10057000596E5A66596E596941F08001596159693D
:1005800021F0800159615969196941F000511961DF
:10059000196921F0005119611B6972B62D492E4B62
:1005A0000B601D682468BFF34F8FBFF36F8F2B4B19
:1005B000C3F88420BFF34F8F5A6922F480325A6106
:1005C000BFF34F8FD3F88020C2F3C906C2F34E3277
:1005D0005201B70743F6E07E02EA0E08384631467C
:1005E000013948EA000CB1F1FF3FC3F874C200F1D1
:1005F0004040F5D1203A12F1200FEDD1BFF34F8FDB
:10060000BFF36F8FBFF34F8FBFF36F8F5A6922F421
:1006100000325A610022C3F85022BFF34F8FBFF35C
:100620006F8F72B6202383F3118862B6AD4685F3CF
:1006300008882047BDE8F081FC7F01081C80010884
:1006400004800108FF7F0108502401209824012024
:100650000038024008ED00E00080010800ED00E0F5
:100660002DE9F04F99B0B44C01902022FF2110A841
:10067000A66800F0D1FBB14A1378A346B3B9B048DD
:1006800001211170C36072B6202383F3118862B612
:10069000C3680BB101F026FA0023AA4AA8484FF418
:1006A0007A7101F0E3F9002383F31188019B13B100
:1006B000A54B019A1A60A54AA349019F0292002303
:1006C00013704B6099461C461D469846012000F069
:1006D00067FB002F00F012829B4B1B68002B40F041
:1006E0000D8219B0BDE8F08F0220FFF771FE0028DF
:1006F00040F0FB81019BB9F1000F08BF1F46944BEE
:100700001B88ADF82C3002210BA800F081FADDE740
:100710004FF47A7000F02EFA031E0393EADB0220F6
:10072000FFF756FE82460028E4D0039B581E04289B
:1007300000F2DD81DFE800F0030E1114170018A8A5
:10074000052340F8343D042100F062FA54464FF08E
:10075000000856E004217848F6E704217D48F3E7D5
:1007600004217D48F0E71C24204600F07FFA043481
:100770000B9004210BA800F04BFA2C2CF4D1E5E7E8
:10078000002DB7D0002CB5D00220FFF721FE054682
:10079000002800F0AF8101206C4C00F065FA0220C7
:1007A000207000F0FDFA4FF000095FFA89FA504618
:1007B00000F06AFA074658B1504600F075FA09F1A0
:1007C00001090028F1D12C46A9460027634B97E781
:1007D00001230220237000F0D9FA3E46DBF80830EE
:1007E0009E4206D2304600F041FA0130EBD1043689
:1007F000F4E7029B00261E70534BA9465E602C4610
:10080000374600F011FB15B1002C18BF0027FFF789
:10081000E7FD5BE7002D3FF46DAF002C3FF46AAFBE
:10082000029B0220187000F0BBFA322000F0A2F9FF
:10083000B0F1000AC0F25E811AF0030540F05A815F
:10084000DBF8082006EB0A03934200F25381BAF565
:10085000807F00F24F8155450DDA4FF47A7000F039
:1008600089F90490049B002BC0F244813C4A049B0C
:10087000AB540135EFE7C820FFF7AAFD0546002875
:1008800000F038811F2E11D8C6F12004544528BF2E
:10089000544610AB26F0030022463149184400F0BC
:1008A00091FA2246FF212E4800F0B6FA4FEAAA0A32
:1008B0005FFA8AF22A493046FFF7B0FD0446002865
:1008C00000F01A8106EB8A0605469AE70220FFF738
:1008D0007FFD00283FF40EAFFFF790FD00283FF4A6
:1008E00009AF4FF0000A5346DBF8082092451CD2AE
:1008F000BAF11F0F12D8109A01320FD02AF003025A
:1009000018A90A4452F8202C0B92184604220BA96D
:1009100000F000FB0AF1040A0346E5E750460393A2
:1009200000F0A4F9039B0B90EFE718A8042140F80E
:100930004C3D00F06DF964E7502401209C25012016
:100940005C240120B5040008A02501209824012082
:100950004E35000854240120582401205035000849
:100960009C24012018A8002340F8343D642100F0A5
:100970002BF900287FF4BEAE0220FFF729FD0028E6
:100980003FF4B8AE0B9800F0A1F918AB43F8480D4E
:1009900004211846CDE718A8002340F8343D64210F
:1009A00000F012F900287FF4A5AE0220FFF710FD39
:1009B00000283FF49FAE0B9800F096F918AB43F86F
:1009C000440DE5E70220FFF703FD00283FF492AE57
:1009D00000F090F918AB43F8400DD9E70220FFF77B
:1009E000F7FC00283FF486AE0BA9142000F088F92C
:1009F000824618A8042140F83CAD00F009F95146A0
:100A00000BA896E7322000F0B5F8B0F1000AFFF627
:100A100071AE1AF0030F7FF46DAEDBF808200AEB1D
:100A2000080393423FF666AE0220FFF7D1FC002890
:100A30003FF460AE2AF0030AC244D0453FF4E1AE71
:100A4000404600F013F904210A900AA800F0E0F8EB
:100A500008F10408F1E74FF47A70FFF7B9FC0028B9
:100A60003FF448AEFFF7CAFC00283FF4AFAE109B3E
:100A700001330CD0082210A90020FFF7CFFC00287A
:100A80003FF4A4AE2022FF2110A800F0C5F9FFF723
:100A9000A7FC374800F0A6FF23E6002D3FF42AAE5E
:100AA000002C3FF427AE18A8002340F8343D642101
:100AB00000F08AF8824600287FF41CAE0220FFF77F
:100AC00087FC00283FF416AE0390FFF789FC41F243
:100AD000883000F087FF0B9800F0DAF900F0A4F9F5
:100AE000039B57461C461D46F0E5054689E64FF038
:100AF0000008FFE52546FDE52C4667E6002000F0EE
:100B000039F80490049B002BFFF6E3AD012000F0C0
:100B10003DF9049B213B122B3FF6D8AD01A252F8C0
:100B200023F000BFE906000811070008810700084C
:100B3000CD060008CD060008CD06000815080008FF
:100B4000050A0008CD080008650900089709000893
:100B5000C5090008CD060008DD090008CD0600081B
:100B6000570A000803080008CD0600089B0A000881
:100B7000A086010037B5114B1A780132D2B2002499
:100B8000012A01468DF8074011D80D4803681D6AF7
:100B90004FF47A734B4301220DF10701A847012856
:100BA00005D1084B9DF807001C7003B030BD4FF411
:100BB000FA7000F017FF4FF0FF30F6E70024012035
:100BC00070260120AC25012038B50E4B1A78013271
:100BD000D2B2012A05460ED80B4803681C6A4FF4AE
:100BE0007A734B4304222946A047042803D1074BBC
:100BF0000020187038BD4FF4FA7000F0F3FE4FF08B
:100C0000FF3038BD0024012070260120AC250120D2
:100C100030B4054C2368DD69044B0A46AC460146F6
:100C2000204630BC604700BF70260120A08601002E
:100C3000F8B501F013F9094C094E0A4F2070002550
:100C400030682378834207D901F002F933680544FC
:100C50000133BD423360F3D9F8BD00BFAD2501209B
:100C6000A8250120FF7F010001F0A6B900F1006076
:100C700000F5C0300068704700F10060920000F598
:100C8000C03001F031B90000054B1A68054B1B78E4
:100C90009B1A834202D9104401F0DAB80020704751
:100CA000A8250120AD25012038B5074D0446286848
:100CB000204401F0D5F828B928682044BDE8384020
:100CC00001F0E6B838BD00BFA825012010F00303ED
:100CD00008D1B0F5806F05D800F10050A0F5712063
:100CE0000068704700207047014BC058704700BF34
:100CF00020F4F01F014B1868704700BF002004E08B
:100D0000F0B5204B1E68204B1F885D6893F90840A2
:100D1000C6F30B02BA424FEA164622D09F89BA4266
:100D200021D01F8BBA4206D102220C2404FB0233CD
:100D30005D6893F90840B6F5805F16D041F2010373
:100D40009E4208BF5A24421E0A44013D0B4693426C
:100D500015D215F9016F581C4EB1034600F8016C0D
:100D6000F5E70022E1E70122DFE74124EBE72C254C
:100D700082421D7001D9981C5C70401AF0BD184663
:100D8000FBE700BF002004E004240120022802BF8A
:100D9000024B4FF480229A61704700BF000002406E
:100DA000022802BF014B04229A61704700000240F2
:100DB000022801BF024A536983F00403536170475C
:100DC0000000024010B50023934203D0CC5CC45411
:100DD0000133F9E710BD000030B5441E14F9010FCE
:100DE0000B4660B193F90050854201F1010106D133
:100DF0001AB993F90020801A30BD013AEEE7002AB3
:100E0000F7D1104630BD000002460346981A13F988
:100E1000011B0029FAD1704702440346934202D0D5
:100E200003F8011BFAE77047024B1A78024B1A705D
:100E3000704700BFAC2501200024012038B5104DBB
:100E4000104C284600F008F92146284600F030F9F9
:100E500024680D48E26ED2F8043843F00203C2F869
:100E6000043800F0BFFD0949204600F035FAE26E73
:100E7000D2F8043823F00203C2F8043838BD00BFAA
:100E800070260120FC35000840420F00243600087F
:100E900070470000FEE7000000B59BB0EFF309814A
:100EA00068226846FFF78EFFEFF30583034B9A6BCA
:100EB0009A6A9A6A9A6A9A6A9B6AFEE700ED00E06B
:100EC00000B59BB0EFF3098168226846FFF77AFF0F
:100ED000EFF30583044B9A6B9A6A9A6A9A6A9A6A44
:100EE0009A6A9B6AFEE700BF00ED00E000B59BB088
:100EF000EFF3098168226846FFF764FFEFF305838B
:100F0000034B5A6B9A6A9A6A9A6A9A6A9B6AFEE7D4
:100F100000ED00E030B5084D0A4491420BD011F8C5
:100F2000013B09245840013CF7D040F300032B401B
:100F300083EA5000F7E730BD2083B8ED0023044971
:100F40001A465A50C8180833802B4260F9D17047AE
:100F5000B025012072B6202383F3118862B6704752
:100F6000026843681143016003B1184770470000ED
:100F700013B5446BD4F894341A681178042915D148
:100F8000217C022912D11979128901238B40134245
:100F90000CD101A904F14C0001F092FED4F8944464
:100FA000019B21790246206800F0E6F902B010BDED
:100FB000143001F017BE00004FF0FF33143001F081
:100FC00011BE00004C3001F0E7BE00004FF0FF33CF
:100FD0004C3001F0E1BE0000143001F0E7BD00002C
:100FE0004FF0FF31143001F0E1BD00004C3001F052
:100FF000B3BE00004FF0FF324C3001F0ADBE000038
:10100000D0F8942438B5136819780429054601D01E
:10101000012038BD017C0229FAD112795C890120B6
:1010200090400440F4D105F1140001F079FD02462E
:101030000028EDD0D5F894544FF48073286869796E
:1010400000F088F9204638BD406BFFF7D9BF00009B
:1010500000207047704700007FB5124B03600023EB
:1010600043608360C360012502260F4B057404466C
:101070000290019300F18402294600964FF4807398
:10108000143001F029FD094B0193029400964FF4AE
:10109000807304F52372294604F14C0001F0ECFD45
:1010A00004B070BD8035000849100008710F0008B9
:1010B00008B50A68FFF74EFF0B7902EB830318624D
:1010C0004B790D3342F823008B7913B102EB830285
:1010D000106202230374C0F89414002383F3118870
:1010E00008BD000038B5037F044613B190F85430B2
:1010F000ABB9201D01250221FFF732FF04F11400D6
:1011000025776FF0010100F095FC84F8545004F14C
:101110004C006FF00101BDE8384000F08BBC38BDD9
:1011200010B5012104460430FFF71AFF002323778E
:1011300084F8543010BD000038B504460025143042
:1011400001F0E2FC04F14C00257701F0ADFD201D1B
:1011500084F854500121FFF703FF2046BDE83840D2
:10116000FFF74EBF90F85C3003F06003202B19D1DD
:1011700090F85D20212A0AD0222A4FF000030ED0D9
:10118000202A0FD1084A02650722426504E0064B77
:1011900003650723436500238365012070470365CA
:1011A0004365F9E70020704728240120D0F89434E3
:1011B00037B51A681178042904461AD1017C02292E
:1011C00017D11979128901238B40134211D100F1F3
:1011D0004C05284601F026FE58B101A9284601F029
:1011E0006FFDD4F89444019B21790246206800F0F9
:1011F000C3F803B030BD000000EB8103F7B51C6AF3
:1012000005460E46ECB105EB8607FFF7A3FE201D51
:101210000821FFF7A5FEFB685B691B684C3413B11E
:10122000204601F05BFD01A9204601F049FD024680
:1012300048B1019B3146284600F09EF8002383F315
:10124000118803B0F0BDFB685A691268002AF5D016
:101250001B8A013B1340F1D105F15C02EAE7000073
:101260000D3138B550F82140D4B1FFF773FED4F8F2
:1012700094241368527903EB8203DB689B695D68F1
:1012800045B104216018FFF76BFE294604F11400F4
:1012900001F050FC2046FFF7B3FE002383F31188D2
:1012A00038BD00007047000072B6202383F3118818
:1012B00062B6704700F0D6BF01230370002343607D
:1012C00000F1240200F1380142F8043B8A42136124
:1012D000FAD103814381704738B50446FFF7E4FF34
:1012E00000254160C560056145618561C561056294
:1012F00000F0C8FF0223237085F3118838BD000079
:1013000070B500EB810305465069DA600E4614465D
:1013100018B110220021FFF77FFDA06918B110223B
:101320000021FFF779FD31462846BDE8704001F005
:1013300073B80000028902F001020281428902F0C2
:10134000010242810022026142618261C261026245
:1013500001F0F6B8F0B400EB81044789E468012598
:10136000A4698D403D43458123600023A2606360F2
:10137000F0BC01F011B90000F0B400EB8104078962
:10138000E468012564698D403D43058123600023A5
:10139000A2606360F0BC01F08DB9000070B502235B
:1013A000002504460370A0F8645080F8665080F869
:1013B000675005814581C560056145618561C561ED
:1013C000056280F84C5000F0C3FF63681B6823B1CE
:1013D00029462046BDE87040184770BD4368027832
:1013E0001B6880F86820052202700BB104211847A1
:1013F00070470000436890F868201B6802700BB1CA
:10140000052118477047000090F84C3070B504462D
:1014100013B1002380F84C3004F15C02204601F047
:10142000B1F863689B6863BB94F85C5015F0600684
:1014300015D194F85D3005F07F0545EA032540F2AB
:1014400002339D4200F00B8159D8022D00F0D98063
:101450003DD8002D00F08580012D00F0CC800021CA
:10146000204601F0FFFA0021204601F0F1FA6368FE
:101470001B6813B1062120469847062384F84C3098
:1014800070BD204698470028CED094F8632094F889
:10149000623043EA0223626D934238BF636594F978
:1014A0005C30656D002B80F2FC80002D00F0EB803D
:1014B000092384F84C30FFF7F7FE636D226D00219D
:1014C0002046FFF759FF002383F3118870BDB5F55F
:1014D000817F00F0B080B5F5407F49D0B5F5807FC1
:1014E000BDD194F85E30012BB9D1B4F8643023F04B
:1014F0000203A4F8643026656665A665C5E740F278
:1015000001639D421ED8B5F5C06F3BD2B5F5A06F03
:10151000A5D1B4F85C30B3F5A06F0ED194F85E306D
:1015200084F86630204600F06BFF63681B6813B1D7
:101530000121204698470323237000232365636518
:10154000A365A2E7B5F5106F32D040F602439D4285
:1015500051D0B5F5006F82D104F1670323650123F3
:1015600024E004F16403236502236365A5658CE729
:1015700094F85E30012B7FF472AFB4F8643043F01E
:101580000203B6E794F86120616894F860304D6812
:1015900094F85F1043EA0223204694F85E20A8479F
:1015A00000283FF45CAF4368236503686365A4E7E4
:1015B0002378042B0FD1FFF777FE2046FFF7BAFE02
:1015C00086F31188636884F867601B6803212170C3
:1015D0000BB12046984794F85E30002BADD084F8CC
:1015E00067300423237063681B68002BA5D0022199
:1015F00020469847A1E7374B236502236365002304
:101600009EE794F8601011F0800F204601F00F0162
:101610000ED000F0A9FF012806D002287FF41FAFEA
:101620002D4B2365606568E72C4B2365656564E792
:1016300000F08CFFEFE794F85E30002B7FF40FAFE3
:1016400094F8603013F00F013FF477AF1A0620468C
:1016500002D501F01BFA70E701F00EFA6DE794F87D
:101660005E30002B7FF4FBAE94F8603013F00F0176
:101670003FF463AF1B06204602D501F0F3F95CE7A7
:1016800001F0E6F959E7142384F84C30FFF70CFE1B
:101690002B462A4629462046FFF75CFE85F3118833
:1016A00070BD5DB1152384F84C30FFF7FDFD636D0F
:1016B000226D00212046FFF74DFE04E70B2384F83E
:1016C0004C30FFF7F1FD2B462A4629462046FFF70E
:1016D00053FEE3E7B0350008A8350008AC35000834
:1016E00038B590F84C300446152B28D8DFE803F0C5
:1016F0003C27272727273C27270B2837272727275B
:10170000272727273C3C90F8631090F86220436D10
:1017100042EA01229A4213D9C268128AB3FBF2F557
:1017200002FB153565B9FFF7BFFD2B462A46294652
:10173000FFF722FE85F311880A2384F84C3038BD68
:10174000142384F84C30FFF7AFFD00231A461946E6
:101750002046FFF7FFFD002383F3118838BD836D1A
:1017600003B198470023E8E7002101F07BF900214D
:10177000204601F06DF963681B6813B1062120460D
:1017800098470623D9E7000090F84C20152A38B571
:10179000044621D80123934040F6416213421CD1F4
:1017A00013F480150ED19B0216D50B2380F84C3014
:1017B000FFF77AFD2B462A462946FFF7DDFD85F324
:1017C000118838BDC3689B695B682BB9836D03B111
:1017D0009847002384F84C3038BD002101F042F9CD
:1017E0000021204601F034F963681B6813B106211B
:1017F000204698470623EDE7024B00221B605B6002
:101800009A60704730260120002303748268054BDC
:101810001B6899689142FBD25A680360426010606D
:10182000586070473026012008B572B6202383F334
:10183000118862B6037C032B05D0042B0DD02BB985
:1018400083F3118808BD436900221A604FF0FF330B
:101850004361FFF7D9FF0023F2E790E80C001A601C
:1018600002685360F2E70000002303748268054BAE
:101870001B6899689142FBD85A6803604260106007
:101880005860704730260120054B196908741868A4
:1018900002681A605360186101230374FEF744BDA7
:1018A0003026012030B54B1C87B005460A4C10D0BD
:1018B00023690A4A01A800F0D9F82846FFF7E4FF97
:1018C000049B13B101A800F00DF92369586907B012
:1018D00030BDFFF7D9FFF8E73026012029180008AE
:1018E00038B50C4D41612B6981689A689142044674
:1018F00003D8BDE83840FFF787BF1846FFF784FFDD
:1019000001232C61014623742046BDE83840FEF7D0
:101910000BBD00BF30260120044B1A681B6990687C
:101920009B68984294BF0020012070473026012018
:1019300010B5084C236820691A682260546001229F
:1019400023611A74FFF790FF01462069BDE810403B
:10195000FEF7EABC3026012072B6202383F31188FB
:1019600062B670478260022202740022427470479D
:101970008368A3F17C0243F80C2C026943F83C2CE9
:10198000426943F8382C074A43F81C2CC26843F8D4
:10199000102C022203F8082C002203F8072CA3F1D4
:1019A000180070474103000810B5FFF7D5FFFFF797
:1019B000DFFF00210446FFF793FF002383F3118824
:1019C000204610BD024B1B6958610F20FFF75CBF1A
:1019D0003026012008B5FFF7BFFFBDE80840FFF73C
:1019E000F1BF000008B50146FFF7B6FF0820FFF77A
:1019F00059FF002383F3118808BD000049B1064B4D
:101A000042681B6918605A60136043600420FFF746
:101A100049BF4FF0FF3070473026012003689842DD
:101A200006D01A680260506059611846FFF7ECBE94
:101A30007047000038B504460D462068844200D146
:101A400038BD036823605C604561FFF7DDFEF4E7A5
:101A5000054B03F114025A619A614FF0FF32DA61CB
:101A600000221A62704700BF30260120F8B50361DA
:101A70004FF08043C2605C6A194B1A46022952F843
:101A8000145F38BF0221954206461F460AD15861AD
:101A900098611C620560456081600819BDE8F840E6
:101AA00001F0E2B9186AAB68241A0C1902D3E41ADF
:101AB0002D6804E09C4202D2204401F0E3F9AB68B7
:101AC0009C42F4D86B68736035601E606E60B460D1
:101AD000A9684FF0FF33091BA960FB61F8BD00BF87
:101AE0003026012010B41B4C234653F8141F8142AA
:101AF00010D0416802680A60026851609A424FF053
:101B00000001C16003D0936881680B4493605DF865
:101B1000044B70470A68626100209A425360C860B3
:101B200003D15DF8044B01F0A7B9936888680344BA
:101B300093604FF08042206A526A121A9342E6D9AB
:101B4000991A012998BF931C18445DF8044B01F0C1
:101B500099B900BF3026012000207047FEE7000041
:101B6000704700004FF0FF307047000072B620232E
:101B700083F3118862B67047022906D0032906D084
:101B80000129064818BF0020704705487047032AFE
:101B90009ABF044800EBC20000207047803600085E
:101BA000343600083024012070B59AB001AD0646E5
:101BB00008462946144600F091F82846FFF724F914
:101BC000C0B2431C5B0086E81800237003236370D7
:101BD000002302341946DAB2904204F1020401D81B
:101BE0001AB070BDEA5C04F8022C04F8011C013341
:101BF000F1E7000008B5FFF7B9FF0348FFF7D6FA91
:101C0000002383F3118808BD7026012010B5044617
:101C1000052915D8DFE801F015140315151BFFF78A
:101C2000A5FF0E4A0121FFF76BFB20460C4A02215B
:101C3000FFF766FB0B48FFF77FFA002383F3118859
:101C400010BDFFF793FF0748FFF74CFAF5E7FFF7E2
:101C50008DFF0448FFF764FAEFE700BFB4350008D2
:101C6000D83500087026012038B50C4D0C4C0D49B4
:101C70002A4604F10800FFF797FF05F1CA0204F1B4
:101C800010000949FFF790FF05F5CA7204F118002A
:101C90000649BDE83840FFF787BF00BF382B012059
:101CA00030240120043600080E36000819360008DA
:101CB00070B5044608460D46FFF7A6F8C6B22046A2
:101CC000013403780BB9184670BD32462946FFF738
:101CD00083F80028F3D1012070BD00002DE9F84FF2
:101CE00005460C46FFF790F82B49C6B22846FFF789
:101CF000DFFF08B10536F6B228492846FFF7D8FFBE
:101D000008B11036F6B2632E0DD8DFF88C80DFF8FC
:101D10008C90234FDFF890A0DFF890B02E7846B972
:101D20002670BDE8F88F29462046BDE8F84F01F03F
:101D300005BC252E2CD1072241462846FFF74CF83A
:101D400058B9DBF800302360DBF804306360DBF85F
:101D50000830A36007350C34E0E7082249462846DE
:101D6000FFF73AF8A0B90F4BA21C13F8011F09099D
:101D70005345C95D02F8021C197801F00F0102F108
:101D80000202C95D02F8031CEFD118340835C5E71B
:101D9000267001350134C1E7A03600081936000865
:101DA000B53600081FF4F01F2BF4F01FA83600080A
:101DB000BFF34F8F024AD368DB03FCD4704700BFE8
:101DC000003C024008B5074B1B7853B9FFF7F0FF02
:101DD000054B1A69002ABFBF044A5A6002F18832D3
:101DE0005A6008BD962D0120003C02402301674542
:101DF00008B5054B1B7833B9FFF7DAFF034A1369BF
:101E000043F00043136108BD962D0120003C0240C1
:101E1000072870B513D80B4A0B4C137863B90B4ED7
:101E20004FF0006144F8231056F823500133082B7B
:101E30002944F7D10123137054F8200070BD00200D
:101E400070BD00BFB82D0120982D0120C8360008B4
:101E5000014B53F820007047C8360008082070472F
:101E6000072810B5044601D9002010BDFFF7D0FFA8
:101E7000064B53F824301844C21A0BB9012010BD88
:101E800012680132F0D1043BF6E700BFC836000803
:101E9000072810B5044621D8FFF78AFFFFF792FF05
:101EA0000F4AF323D360C300DBB243F4007343F063
:101EB00002031361136943F480331361FFF778FF62
:101EC000FFF7A6FF074B53F8241000F0DDF8FFF7EB
:101ED0008FFF2046BDE81040FFF7C2BF002010BDB5
:101EE000003C0240C83600082DE9F84312F0010317
:101EF000154640D18218B2F1016F3CD22C4B1B68C1
:101F000013F0010337D02B4CFFF75CFFF323E360A2
:101F1000FFF74EFF40F20127032D01D9830713D0AD
:101F2000244C0F46401A40F20118EB1B0B44012BC6
:101F300000EB0706236924D823F001032361FFF790
:101F400057FF0120BDE8F883236923F44073236120
:101F500023693B43236151F8046B0660BFF34F8F45
:101F6000FFF726FF03689E4208D0236923F0010390
:101F70002361FFF73DFF0020BDE8F883043D0430F6
:101F8000CAE723F440732361236943EA080323610A
:101F9000B94637F8023B3380BFF34F8FFFF708FF96
:101FA0003688B9F80030B6B2B342BED0DDE700BF24
:101FB00000380240003C0240084908B50B7828B1BF
:101FC00053B9FFF7FFFE01230B7008BD23B1BDE835
:101FD00008400870FFF70CBF08BD00BF962D012018
:101FE00010B50244064B0439D2B2904200D110BD64
:101FF000441C00B253F8200041F8040FE0B2F4E7AB
:1020000050280040104B30B51C6F240407D41C6FBF
:1020100044F400741C671C6F44F400441C670B4CB0
:10202000236843F4807323600244094B0439D2B21D
:10203000904200D130BD441C00B251F8045F43F817
:102040002050E0B2F4E700BF0038024000700040CA
:102050005028004007B5012201A90020FFF7C0FF6A
:10206000019803B05DF804FB13B50446FFF7F2FFD7
:10207000A04206D002A9012241F8044D0020FFF73A
:10208000C1FF02B010BD00000144BFF34F8F064BEB
:10209000884204D3BFF34F8FBFF36F8F7047C3F8ED
:1020A0005C022030F4E700BF00ED00E0034B1B684A
:1020B0009B0042BF024B01221A70704774380240E5
:1020C000B92D0120014B1878704700BFB92D0120B0
:1020D000F0B5BFF34F8FBFF36F8F1D4B0021C3F8D7
:1020E0005012BFF34F8FBFF36F8F5A6942F4003223
:1020F0005A61BFF34F8FBFF36F8FC3F88410BFF3E4
:102100004F8FD3F88020C2F3C904C2F34E3252017C
:10211000A50743F6E07602EA060E284621464EEA77
:1021200000070139C3F860724F1C00F14040F6D13E
:10213000203A12F1200FEED1BFF34F8F5A6942F4CB
:1021400080325A61BFF34F8FBFF36F8FF0BD00BF76
:1021500000ED00E0FEE70000084A094B09498B4208
:1021600004D3094A0021934205D3704752F8040F63
:1021700043F8040BF3E743F8041BF4E7C438000802
:10218000483001204830012048300120036F30B52D
:1021900000229D68C46E11464FF0FF3004EB4213DD
:1021A00001329542C3F80019C3F81019C3F80809A1
:1021B000C3F8001BC3F8101BC3F8080BEED24FF096
:1021C0000113C4F81C3830BD890141F020010161C0
:1021D00003699B06FCD4122000F0E4BE204B03EB05
:1021E00080022DE9F047D2F80CE0DD6EDEF8142015
:1021F000461CD2F800C005EB063605EB40185168C6
:1022000061450BD3D5F83428012303FA00F022EA04
:102210000000C5F834081846BDE8F087BEF8104045
:10222000ACEB0103A34228BF2346D8F81849A4B257
:10223000B3EB840F10D894681F46A4F1040959F831
:1022400004AFC6F800A0042F01D9043FF7E71C44EF
:102250000B4494605360D2E70020BDE8F08700BFD4
:10226000BC2D012010B5054C2046FFF725F84FF096
:10227000A043E366024B236710BD00BFBC2D0120C5
:102280000C3700080378012B70B5054650D12A4B56
:10229000C46E98421BD1294B5A6B42F080025A639C
:1022A0005A6D42F080025A655A6D5A6942F08002B6
:1022B0005A615A6922F080025A610E2143205B69FB
:1022C00000F0EEFB1E4BE3601E4BC4F80038002309
:1022D000C4F8003EC0232360EE6E4FF40413A363E2
:1022E0003369002BFCDA012333610C2000F05AFE25
:1022F0003369DB07FCD4122000F054FE3369002B55
:10230000FCDA0026A6602846FFF740FF6B68C4F899
:102310001068DB68C4F81468C4F81C684BB90A4B31
:10232000A3614FF0FF336361A36843F00103A3602F
:1023300070BD064BF4E700BFBC2D01200038024001
:102340004014004003002002003C30C0083C30C074
:10235000F8B5C46E054600212046FFF735FF296F0A
:1023600000234FF001128F68C4F834384FF0006634
:10237000C4F81C284FF0FF3004EB431201339F4296
:10238000C2F80069C2F8006BC2F80809C2F8080B6D
:10239000F2D20B68EA6E6B676362102313611669F1
:1023A00016F01006FBD1122000F0FCFDD4F8003826
:1023B00023F4FE63C4F80038A36943F4402343F0D8
:1023C0001003A3610923C4F81038C4F814380A4B69
:1023D000EB604FF0C043C4F8103B084BC4F8003B1F
:1023E000C4F81069C4F800396B6F03F1100243F4AC
:1023F00080136A67A362F8BDE836000840800010C9
:10240000C26E90F86610D2F8003823F4FE6343EAF7
:102410000113C2F8003870472DE9F0410EB200EB0D
:1024200086080D46D8F80C100F6807F00303022B3E
:1024300050D0032B50D03D4A3D4F012B18BF1746BB
:10244000C46E4FEA451E04EB0E030022C3F8102BA6
:102450008A6905F1100C002A40D04A8A05F1580318
:102460005B013A43E2500123D4F81C2803FA0CF331
:102470001343A6444A69C4F81C380023CEF8103927
:1024800005F13F03002A39D00A8A898B9208012975
:1024900088BF4A43416F04EB8303561841EA024266
:1024A000466729465A602046FFF78EFED8F80C3062
:1024B0001B8A43EA85531F4305F148035B01E7503C
:1024C0000123D4F81C2803FA05F51543C4F81C5859
:1024D000BDE8F081174FB3E7174FB1E704EB4613A0
:1024E000D3F8002B22F40042C3F8002BD4F81C28A8
:1024F000012303FA0CF322EA0303BAE704EB830394
:102500000E4A5A6004EB461629462046FFF75CFE49
:10251000D6F8003923F40043C6F80039D4F81C3843
:10252000012202FA05F523EA0505CFE70080001035
:10253000008004100080081000800C1000040002CD
:10254000026F12684267FFF721BE00005831C36E68
:1025500049015B5813F4004004D013F4001F14BF6A
:1025600001200220704700004831C36E49015B58CA
:1025700013F4004004D013F4001F14BF0120022004
:102580007047000000EB8101CB68196A0B6813608B
:102590004B6853607047000000EB810330B5DD6885
:1025A000AA691368D36019B9402B84BF4023136014
:1025B0006B8A1468C26E1C44013CB4FBF3F46343A1
:1025C000033323F0030302EB411043EAC44343F017
:1025D000C043C0F8103B2B6803F00303012B09B282
:1025E0000ED1D2F8083802EB411013F4807FD0F8F6
:1025F000003B14BF43F0805343F00053C0F8003B4E
:1026000002EB4112D2F8003B43F00443C2F8003B16
:1026100030BD00002DE9F041254DEE6E06EB401374
:102620000446D3F8087BC3F8087B38070AD5D6F8E8
:102630001438190706D505EB84032146DB682846C4
:102640005B689847FA0731D5D6F81438DB072DD5E3
:1026500005EB8403D968DCB98B69488A5E68B6FBF0
:10266000F0F200FB12629AB91868DA6890420FD251
:10267000121A83E8140072B6202383F3118862B61D
:102680000B482146FFF788FF84F31188BDE8F081ED
:10269000012303FA04F26B8923EA02036B81CB68FE
:1026A00023B121460248BDE8F0411847BDE8F0815A
:1026B000BC2D012000EB810370B5DD68C36E6C6931
:1026C0002668E6604A0156BB1A444FF40020C2F85F
:1026D00010092A6802F00302012A0AB20ED1D3F8C7
:1026E000080803EB421410F4807FD4F8000914BFEB
:1026F00040F0805040F00050C4F8000903EB421253
:10270000D2F8000940F00440C2F80009D3F83408B8
:10271000012202FA01F10143C3F8341870BD19B95E
:10272000402E84BF4020206020682E8A841940F00B
:102730000050013C1A44B4FBF6F440EAC440C6E73A
:10274000F8B504461F48C56E05EB4413D3F8086975
:10275000C3F80869F10719D5D5F81038DA0715D587
:1027600000EB8403D9684B691F68DA6897421AD274
:10277000D21B00271A605F6072B6202383F3118892
:1027800062B62146FFF796FF87F31188330617D507
:10279000D5F834280123A340134211D02046BDE8C8
:1027A000F840FFF71BBD012303FA04F2038923EA73
:1027B000020303818B68002BE8D021469847E5E7A8
:1027C000F8BD00BFBC2D0120A0482DE9F84FC56E13
:1027D0006E69AB691E4016F4805F6E61044605D0D9
:1027E000FEF7DCFDBDE8F84F00F07EBC002E12DAEB
:1027F000D5F8003E95489B071EBFD5F8003E23F054
:102800000303C5F8003ED5F8043823F00103C5F8EA
:102810000438FEF7EFFD370502D58C48FEF7DEFDE4
:10282000B0040CD5D5F8083813F0060FEB6823F484
:1028300070530CBF43F4105343F4A053EB603107C3
:1028400004D56368DB680BB180489847F2026FD407
:10285000B3020CD5D4F86C80DFF8F0A100274FF05C
:102860000109236F9B68F9B28B4280F09C80F706C8
:1028700019D5E16E0A6AC2F30A1702F00F0302F4D7
:10288000F012B2F5802F00F0B680B2F5402F0AD1D9
:1028900004EB830301F58051DB68186A00231A46B4
:1028A0009F4240F09C803303D5F818481DD5E703BC
:1028B00002D50020FFF7AEFEA50302D50120FFF7E9
:1028C000A9FE600302D50220FFF7A4FE210302D572
:1028D0000320FFF79FFEE20202D50420FFF79AFED5
:1028E000A30202D50520FFF795FE77037FF57AAFA7
:1028F000E60702D50020FFF723FFA50702D5012038
:10290000FFF71EFF600702D50220FFF719FF21071E
:1029100002D50320FFF714FFE20602D50420FFF7DB
:102920000FFFA3067FF55EAF0520FFF709FF59E70C
:10293000D4F86C80DFF814A100274FF00109236F51
:102940009B685FFA87FB5B4582D308EB4B13D3F898
:10295000002902F44022B2F5802F22D1D3F80029B9
:10296000002A1EDAD3F8002942F09042C3F8002969
:10297000D3F80029002AFBDB5946E06EFFF724FC60
:10298000228909FA0BF322EA0303238104EB8B0368
:10299000DB689B6813B15946504698475846FFF785
:1029A0001DFC0137CBE708EB4112D2F8003B03F4E2
:1029B0004023B3F5802F10D1D2F8003B002B0CDA66
:1029C000628909FA01F322EA0303638104EB8103BC
:1029D000DB68DB680BB150469847013741E79C073D
:1029E00008BF0A68072B98BF027003F101039CBF60
:1029F000120A013054E7023304EB830201F58051DF
:102A0000526890690268D0F808C04068A2EB000ED6
:102A10000022104697420AD104EB830463689B6945
:102A20009A683A449A605A6817445F603BE712F02C
:102A3000030F08BF0868964588BF8CF8000002F1B4
:102A4000010284BF000A0CF1010CE3E7BC2D012058
:102A5000C36E03EB4111D1F8003B43F40013C1F8FE
:102A6000003B7047C36E03EB4111D1F8003943F4CA
:102A70000013C1F800397047C36E03EB4111D1F860
:102A8000003B23F40013C1F8003B7047C36E03EB17
:102A90004111D1F8003923F40013C1F8003970470F
:102AA00000F1604300F01F02400903F56143090192
:102AB0008000C9B200F1604083F8001300F5614066
:102AC00001239340C0F880310360704772B6202321
:102AD00083F3118862B6704730B5039C01720433EA
:102AE00004FB0325C361049B03630021059B006075
:102AF0004060C1604261026185610462426281623C
:102B0000C162436330BD00000022416A416101613E
:102B1000C2608262C2626FF00101FEF78BBF0000EB
:102B200003694269934203D1C2680AB10020704729
:102B3000181D704703691960C2680132C260C2691A
:102B4000134482690361934224BF436A03610021F5
:102B5000FEF764BF38B504460D46E3683BB16269D1
:102B6000131D1268A3621344E362002038BD237A68
:102B700033B929462046FEF741FF0028EDDA38BD7B
:102B80006FF00100FBE70000C368C269013BC3604E
:102B90004369134482694361934224BF436A43619A
:102BA00000238362036B03B11847704770B5044676
:102BB000FFF78CFF866A3EB9FFF7CCFF054618B1D8
:102BC00086F31188284670BDA36AE26A13F8015B98
:102BD000A362934202D32046FFF7D6FF002383F37C
:102BE0001188EFE72DE9F04704460E461746984650
:102BF000FFF76CFF0025A946D4F828A0BAF1000F12
:102C000009D141462046FFF7A5FF20B18AF311887C
:102C10002846BDE8F087A16AE36AA7EB050A5B1ABC
:102C20009A4528BF9A46BAF1400F1BD9334601F1A5
:102C3000400251F8040B43F8040B9142F9D1A36A06
:102C400040334036A3624035A26AE36A9A4202D317
:102C50002046FFF799FF89F31188BD42D8D2FFF7CC
:102C600035FFC9E730465246FEF7ACF8A36A534435
:102C70005644A3625544E7E710B5029C0172043341
:102C800003FB0421C36100238362C362039B0363CC
:102C9000049B00604060C460426102618161046223
:102CA0004262436310BD0000026AC260426A426130
:102CB000026100228262C2626FF00101FEF7BABEB9
:102CC000436902699A4203D1C2680AB10020704781
:102CD000184650F8043B0B6070470000C368C26997
:102CE0000133C3604369134482694361934224BF43
:102CF000436A43610021FEF791BE000038B50446E7
:102D00000D46E3683BB123691A1DA262E2691344D0
:102D1000E362002038BD237A33B929462046FEF706
:102D20006DFE0028EDDA38BD6FF00100FBE7000012
:102D300003691960C268013AC260C26913448269BA
:102D40000361934224BF436A036100238362036BE0
:102D500003B118477047000070B504460E46FFF7F0
:102D6000B5FE856A35B91146FFF7C8FF10B185F386
:102D7000118870BDA36A1E70A36AE26A0133934290
:102D8000A36204D3E16920460439FFF7D1FF002094
:102D900080F3118870BD00002DE9F04704460D4610
:102DA00090469946FFF792FE0026B246A76A4FB9B1
:102DB00049462046FFF7A2FF20B187F3118830462D
:102DC000BDE8F087A06AE76AA8EB06033F1A9F42B6
:102DD00028BF1F46402F1BD905F1400355F8042B8F
:102DE00040F8042B9D42F9D1A36A4033A3624036D8
:102DF000A26AE36A9A4204D3E16920460439FFF7E4
:102E000097FF8AF311884645D9D2FFF75FFECDE7D9
:102E100029463A46FDF7D6FFA36A3B443D44A362E8
:102E20003E44E5E7026943699A4203D1C3681BB98E
:102E3000184670470023FBE7836A002BF8D0043B59
:102E40009B1AF5D01360C368013BC360C3691A4481
:102E5000836902619A4224BF436A0361002383624B
:102E60000123E5E700F086B94FF080430022586364
:102E70001A610222DA6070474FF080430022DA6064
:102E8000704700004FF0804358637047FEE7000032
:102E900010B5194CFEF7B0FCFEF7DAFD8022174999
:102EA0002046FEF75FFD012344F8180C0374144B11
:102EB000144AD96821F4E0610904090C0A43124953
:102EC000DA60CA6842F08072CA60104A1049C2F8DB
:102ED000B01F116841F0010111601022DA77202241
:102EE00083F82220002383F3118862B60948BDE8E5
:102EF0001040FEF759BD00BF5826012018370008C2
:102F000000ED00E00003FA05F0ED00E0001000E045
:102F100055CEACC5203700082DE9F84F204C4FF0B6
:102F20000008656904F11407C1464FF08043266A22
:102F30005B6AAA689E1B96421FD34FF0200AAA68BC
:102F4000236AD5F80CB0134423622B68BB425F6040
:102F5000A6EB02066361C5F80C8001D1FFF78CFF78
:102F600089F311882869D84772B68AF3118862B646
:102F70006569AB689E42E2D2D7E76269BA420CD07B
:102F8000916823628E1B9660A86802282CBF1818CF
:102F9000981CBDE8F84FFFF775BFBDE8F88F00BF7C
:102FA00030260120034B59685A68521A9042FBD8C8
:102FB000704700BF001000E04B6843608B6883607F
:102FC000CB68C3600B6943614B6903628B694362E1
:102FD0000B6803607047000008B5274B27481A6943
:102FE00040F2FF710A431A611A6922F4FF6222F06B
:102FF00007021A611A691A6B0A431A631A6D0A43A7
:103000001A651F4A1B6D1146FFF7D6FF1D4802F1D6
:103010001C01FFF7D1FF1C4802F13801FFF7CCFF7C
:103020001A4802F15401FFF7C7FF194802F1700175
:10303000FFF7C2FF174802F18C01FFF7BDFF1648EA
:1030400002F1A801FFF7B8FF144802F1C401FFF72D
:10305000B3FF134802F1E001FFF7AEFF114802F1A0
:10306000FC01FFF7A9FF104802F58C71FFF7A4FFE0
:10307000BDE8084000F0E0B800380240000002401F
:10308000403700080004024000080240000C0240E3
:10309000001002400014024000180240001C0240D0
:1030A00000200240002402400028024008B500F041
:1030B00035FAFFF7EDFEFEF7F9FFBDE80840FEF731
:1030C000D3BD000070470000064A536823F0010397
:1030D0005360EFF30983683383F30988002383F394
:1030E0001188704730EF00E010B572B6202383F3EB
:1030F000118862B6104B5B6813F4006318D0F1EED0
:10310000103AEFF309844FF0807344F84C3C0B4BBA
:10311000DB6844F8083CA4F1680383F30988FEF7F0
:10312000FBFB18B1064B44F8503C10BD054BFAE7C9
:1031300083F3118810BD00BF00ED00E030EF00E028
:1031400051030008540300084FF0804310B51A697A
:1031500092070AD500241C6172B6202383F31188DC
:1031600062B6FFF7D9FE84F31188BDE81040FFF77F
:10317000BBBF0000104B1A6C42F001021A641A6EB9
:1031800042F001021A660D4A1B6E936843F0010378
:1031900093604FF080436B229A624FF0FF32DA6205
:1031A00000229A615A63DA605A6001225A6108214A
:1031B0001A601C20FFF774BC00380240002004E0B5
:1031C0001B4B1A696FEA42526FEA52521A611A692E
:1031D000C2F30A021A614FF0FF301A695A69586146
:1031E00000215A6959615A691A6A62F080521A625A
:1031F0001A6A02F080521A621A6A5A6A58625A6A45
:1032000059625A6A0B4A106840F480701060186F57
:1032100000F44070B0F5007F1EBF4FF48030186797
:103220001967536823F40073536000F057B900BF67
:103230000038024000700040354B4FF080521A6455
:10324000344A4FF4404111601A6842F001021A609A
:103250001A689207FCD59A6822F003029A602C4BF8
:1032600019469A6812F00C02FBD1186800F0F900B8
:1032700018609A601A6842F480321A600B689B03E7
:10328000FCD54B6F43F001034B67214B5A6F9007FE
:10329000FCD5214A5A601A6842F080721A601D4BB0
:1032A0001A4659684904FCD5196841F480311960FF
:1032B0005368D803FCD5136843F400331360154AF0
:1032C00053689903FCD5124B1A689201FCD5134A36
:1032D0009A6040F20112C3F88C200022C3F89020BB
:1032E0000F4A40F2073111609A6842F002029A6078
:1032F000074B9A6802F00C02082AFAD15A6C42F481
:1033000080425A645A6E42F480425A665B6E70473D
:103310000038024000700040086C40090094883872
:10332000003C0240084A08B5536911680B4003F09D
:103330000103536123B1054A13680BB150689847E4
:10334000BDE80840FFF7D0BE003C0140B025012099
:10335000084A08B5536911680B4003F00203536132
:1033600023B1054A93680BB1D0689847BDE808407F
:10337000FFF7BABE003C0140B0250120084A08B55D
:10338000536911680B4003F00403536123B1054AEC
:1033900013690BB150699847BDE80840FFF7A4BE18
:1033A000003C0140B0250120084A08B55369116866
:1033B0000B4003F00803536123B1054A93690BB135
:1033C000D0699847BDE80840FFF78EBE003C014039
:1033D000B0250120084A08B5536911680B4003F075
:1033E0001003536123B1054A136A0BB1506A984721
:1033F000BDE80840FFF778BE003C0140B025012041
:10340000174B10B55C691A68144004F478725A615D
:10341000A30604D5134A936A0BB1D06A9847600695
:1034200004D5104A136B0BB1506B9847210604D595
:103430000C4A936B0BB1D06B9847E20504D5094A4F
:10344000136C0BB1506C9847A30504D5054A936CD7
:103450000BB1D06C9847BDE81040FFF745BE00BFE8
:10346000003C0140B02501201A4B10B55C691A6878
:10347000144004F47C425A61620504D5164A136D67
:103480000BB1506D9847230504D5134A936D0BB1CA
:10349000D06D9847E00404D50F4A136E0BB1506EFF
:1034A0009847A10404D50C4A936E0BB1D06E98478F
:1034B000620404D5084A136F0BB1506F9847230478
:1034C00004D5054A936F0BB1D06F9847BDE8104003
:1034D000FFF70ABE003C0140B0250120062108B5D7
:1034E0000846FFF7DDFA06210720FFF7D9FA062183
:1034F0000820FFF7D5FA06210920FFF7D1FA0621A7
:103500000A20FFF7CDFA06211720FFF7C9FA062196
:103510002820BDE80840FFF7C3BA000008B5FFF750
:103520004FFEFDF70BFDFDF7C5FEFDF793FDFFF721
:10353000C9FDBDE80840FFF795BC0000034611F83F
:10354000012B03F8012B002AF9D170471210121336
:103550001211000053544D3332463F3F3F3F3F3F2F
:103560000053544D333246375B347C355D7800531D
:10357000544D333246375B367C375D7800000000AF
:1035800000000000CD0F0008B90F0008F50F00087B
:10359000E10F0008ED0F0008D90F0008C50F000863
:1035A000B10F0008511000080000000001000000E9
:1035B000000000000200000000000000F9110008F7
:1035C0006112000840004000082B0120182B012048
:1035D00002000000000000000300000000000000E6
:1035E000A51200080000000010000000282B012098
:1035F000000000000100000000000000BC2D0120C0
:10360000010102004172647550696C6F74002542BB
:103610004F415244252D424C002553455249414CBF
:10362000250000000D1C0008791B0008651100082A
:10363000F51B0008430000003C3600080902430067
:10364000020100C032090400000102020100052449
:1036500000100105240100010424020205240600D3
:1036600001070582030800FF09040100020A0000A7
:10367000000705010240000007058102400000002C
:1036800012000000883600081201100102000040FC
:10369000091241570002010203010000040309045A
:1036A00025424F41524425004B616B757465463786
:1036B0004D696E690030313233343536373839412F
:1036C00042434445460000000080000000800000A6
:1036D00000800000008000000000020000000400E4
:1036E00000000400000004000000000009140008AD
:1036F000E11600088917000840004000342E012020
:10370000342E012001000000442E01208000000022
:1037100040010000050000006D61696E00000000BE
:1037200038370008502E01204830012001000000E9
:103730008D2E00080000000069646C650000000028
:103740001000802A00000000AAAAAAAA0000000017
:10375000FBFF00000000000000A00A0000000000C5
:1037600000000000AAAAAAAA00000000FFFF0000B3
:103770000000000000000000000000000000000049
:10378000AAAAAAAA00000000FFFF00000000000093
:10379000000000000000000000000000AAAAAAAA81
:1037A00000000000FFFF000000000000000000001B
:1037B0000000000000000000AAAAAAAA0000000061
:1037C000FFFF0000000000000000000000000000FB
:1037D00000000000AAAAAAAA00000000FFFF000043
:1037E00000000000000000000000000000000000D9
:1037F000AAAAAAAA00000000FFFF00000000000023
:103800000000000000000000000000000A000000AE
:1038100000000000030000000000000000000000A5
:103820000000000000000000000000000000000098
:103830000000000000000000000000000000000088
:103840000000000000000000000000000000000078
:103850000000000000000000000000000000000068
:103860000000000000000000000000000000000058
:103870000000000000000000FF0000000000000049
:10388000543500083F00000049040000613500087D
:103890003F000000510400006F3500083F000000A9
:1038A0000096000000000800040000009C3600089C
:1038B0000000000000000000000000000000000008
:0838C000000000000000000000
:00000001FF
