:020000040800F2
:100000000004022001020008950F0008990F000863
:10001000ED0F0008990F0008C10F00080302000847
:1000200003020008030200080302000895270008E5
:10003000030200080302000803020008030200088C
:10004000030200080302000803020008030200087C
:100050000302000803020008AD390008D93900087E
:10006000053A0008313A00085D3A0008030200082A
:10007000030200080302000803020008030200084C
:10008000030200080302000803020008030200083C
:10009000030200080302000803020008893A00086E
:1000A000030200080302000803020008030200081C
:1000B000D137000803020008030200080302000809
:1000C00003020008030200080302000803020008FC
:1000D00003020008030200080302000803020008EC
:1000E000F13A0008030200080302000803020008B6
:1000F00003020008030200080302000803020008CC
:1001000003020008030200080302000803020008BB
:1001100003020008030200080302000803020008AB
:10012000030200080302000803020008030200089B
:10013000030200080302000803020008030200088B
:10014000030200080302000803020008012F000850
:10015000030200080302000803020008030200086B
:10016000030200080302000803020008030200085B
:10017000030200080302000803020008030200084B
:1001800003020008030200087D10000803020008B3
:10019000030200080302000803020008030200082B
:1001A000030200080302000803020008030200081B
:1001B000030200080302000803020008030200080B
:1001C00003020008030200080302000803020008FB
:1001D00003020008030200080302000803020008EB
:1001E00003020008030200080302000803020008DB
:1001F00003020008030200080302000803020008CB
:1002000002E000F000F8FEE772B6394880F3088893
:10021000384880F3098838484EF60851CEF200017C
:10022000086040F20000CCF200004EF63471CEF2CD
:1002300000010860BFF34F8FBFF36F8F40F20000E3
:10024000C0F2F0004EF68851CEF200010860BFF314
:100250004F8FBFF36F8F4FF00000E1EE100A4EF6A4
:100260003C71CEF200010860062080F31488BFF3D1
:100270006F8F02F0CDFA03F033FA4FF055301F497B
:100280001B4A91423CBF41F8040BFAE71C49194A4A
:1002900091423CBF41F8040BFAE71A491A4A1B4B3A
:1002A0009A423EBF51F8040B42F8040BF8E70020D5
:1002B0001749184A91423CBF41F8040BFAE702F093
:1002C000EBFA03F077FA144C144DAC4203DA54F80D
:1002D000041B8847F9E700F03FF8114C114DAC4280
:1002E00003DA54F8041B8847F9E702F0D3BA000098
:1002F0000004022000240220000000080000022068
:1003000000040220603F0008002402205024022044
:1003100050240220D8340220000200080002000805
:1003200000020008000200082DE9F04F2DED108AB0
:10033000C1F80CD0D0F80CD0BDEC108ABDE8F08F1D
:10034000002383F311882846A047002001F0A8FE6F
:1003500001F058FE00DFFEE770B5214C6FF072032C
:10036000002523706FF07F061E236570A570E57071
:1003700025716571A571E57125726672A372E572CA
:1003800000F02EFD20B10E2325726672A372E57275
:1003900002F0C2F9044602F0F7F90546D8B9114B4C
:1003A0009C421AD001339C4218BF054641F2883462
:1003B00004BF01250024002002F0B8F90DB100F0BF
:1003C000B7F800F08FFD00F05DFC204600F050F91A
:1003D00000F0AEF8F9E70024EDE70446EBE700BFD4
:1003E00050240220010007B008B500F0C9FBA0F1BD
:1003F00020035842584108BD07B5054B02211B8810
:10040000ADF8043001A800F027FC03B05DF804FB50
:10041000D83B0008064991F8243033B10023082264
:10042000086A81F8243000F051BC0120704700BFF9
:10043000702402202DE9F84F234C94F8243005460F
:10044000884617468BBB2E46DFF87C90002F38D0AD
:1004500094F824A0BAF1000F05D12022FF214846CC
:10046000266200F02DFDCAF10805BD4228BF3D46B9
:100470005FFA85FBAD0041462A4604EB8A0000F096
:10048000F5FC94F82430A7EB0B079B445FFA8BFB39
:10049000BBF1080F2E44A844FFB284F824B0D5D194
:1004A000FFF7B8FF0028D1D108E0266A06EB8306E3
:1004B000B042C9D0FFF7AEFF0028C4D10020BDE88C
:1004C000F88F0120BDE8F88F7024022010B520239A
:1004D00083F311881248C3680BB101F067FE002353
:1004E000104A0F484FF47A7101F024FE002383F381
:1004F00011880D4C236813B12368013B23606368A6
:1005000013B16368013B6360084B1B7833B96368C0
:1005100023B9022000F098FC3223636010BD00BFB5
:100520005C240220CD040008A0250220982402208B
:100530002DE9F041444B454953F8042F013201D1D4
:10054000BDE8F0818B42F7D1414C424B22689A4280
:1005500078D9414B9B6803F1006303F5C0339A429D
:1005600070D2002000F0AAFB3C4B0220187000F073
:100570005DFC3B4B1A6C00221A64196E1A66196EE8
:10058000596C5A64596E5A66596E596941F0800126
:100590005961596921F0800159615969196941F01E
:1005A00000511961196921F0005119611B6972B676
:1005B0002C492D4B0B601D682468BFF34F8FBFF390
:1005C0006F8F2A4BC3F88420BFF34F8F5A6922F4F0
:1005D00080325A61BFF34F8FD3F88020C2F3C9062F
:1005E000C2F34E325201B70743F6E07E02EA0E082C
:1005F00038463146013948EA000CB1F1FF3FC3F8F3
:1006000074C200F14040F5D1203A12F1200FEDD133
:10061000BFF34F8FBFF36F8FBFF34F8FBFF36F8F5A
:100620005A6922F400325A610022C3F85022BFF303
:100630004F8FBFF36F8F202383F31188AD4685F36F
:1006400008882047BDE8F081FC7F01081C80010874
:1006500004800108FF7F0108502402209824022012
:100660000038024008ED00E00080010800ED00E0E5
:100670002DE9F04F99B0B34C01902022FF2110A832
:10068000A66800F01DFCB04A1378A346A3B9AF4892
:100690000121C3601170202383F31188C3680BB15B
:1006A00001F084FD0023AA4AA8484FF47A7101F0B2
:1006B00041FD002383F31188019B13B1A54B019ADF
:1006C0001A60A54AA349019F0292002313704B6050
:1006D00099461C461D469846012000F0A7FB002FB6
:1006E00000F012829B4B1B68002B40F00D8219B06A
:1006F000BDE8F08F0220FFF777FE002840F0FB8175
:10070000019BB9F1000F08BF1F46944B1B88ADF841
:100710002C3002210BA800F09FFADDE74FF47A702D
:1007200000F02EFA031E0393EADB0220FFF75CFEC3
:1007300082460028E4D0039B581E042800F2DD8185
:10074000DFE800F0030E1114170018A8052340F885
:10075000343D042100F080FA54464FF0000856E082
:1007600004217848F6E704217D48F3E704217D4819
:10077000F0E71C24204600F0A3FA04340B90042177
:100780000BA800F069FA2C2CF4D1E5E7002DB7D0C6
:10079000002CB5D00220FFF727FE0546002800F008
:1007A000AF8101206C4C00F089FA0220207000F02B
:1007B0003DFB4FF000095FFA89FA504600F08EFACF
:1007C000074658B1504600F099FA09F1010900288E
:1007D000F1D12C46A9460027634B97E7012302205D
:1007E000237000F015FB3E46DBF808309E4206D22F
:1007F000304600F065FA0130EBD10436F4E7029B95
:1008000000261E70534BA9465E602C46374600F00A
:100810005FFB15B1002C18BF0027FFF7EDFD5BE76C
:10082000002D3FF46DAF002C3FF46AAF029B022015
:10083000187000F0FBFA322000F0A2F9B0F1000AC3
:10084000C0F25E811AF0030540F05A81DBF80820FF
:1008500006EB0A03934200F25381BAF5807F00F25F
:100860004F8155450DDA4FF47A7000F089F9049004
:10087000049B002BC0F244813C4A049BAB540135DD
:10088000EFE7C820FFF7B0FD0546002800F03881EB
:100890001F2E11D8C6F12004544528BF544610AB72
:1008A00026F0030022463149184400F0DFFA2246C0
:1008B000FF212E4800F004FB4FEAAA0A5FFA8AF2F1
:1008C0002A493046FFF7B6FD0446002800F01A8199
:1008D00006EB8A0605469AE70220FFF785FD002809
:1008E0003FF40EAFFFF796FD00283FF409AF4FF03D
:1008F000000A5346DBF8082092451CD2BAF11F0FBC
:1009000012D8109A01320FD02AF0030218A90A4413
:1009100052F8202C0B92184604220BA900F07AFB07
:100920000AF1040A0346E5E75046039300F0C8F9CC
:10093000039B0B90EFE718A8042140F84C3D00F012
:100940008BF964E7502402209C2502205C240220BD
:10095000CD040008A025022098240220DA3B0008DC
:100960005424022058240220DC3B00089C2402204E
:1009700018A8002340F8343D642100F039F900281C
:100980007FF4BEAE0220FFF72FFD00283FF4B8AE83
:100990000B9800F0C5F918AB43F8480D0421184630
:1009A000CDE718A8002340F8343D642100F020F979
:1009B00000287FF4A5AE0220FFF716FD00283FF4C3
:1009C0009FAE0B9800F0BAF918AB43F8440DE5E779
:1009D0000220FFF709FD00283FF492AE00F0B4F9C1
:1009E00018AB43F8400DD9E70220FFF7FDFC0028C3
:1009F0003FF486AE0BA9142000F0ACF9824618A88B
:100A0000042140F83CAD00F027F951460BA896E7C9
:100A1000322000F0B5F8B0F1000AFFF671AE1AF01E
:100A2000030F7FF46DAEDBF808200AEB0803934256
:100A30003FF666AE0220FFF7D7FC00283FF460AE19
:100A40002AF0030AC244D0453FF4E1AE404600F02C
:100A500037F904210A900AA800F0FEF808F104080A
:100A6000F1E74FF47A70FFF7BFFC00283FF448AE7F
:100A7000FFF7D0FC00283FF4AFAE109B01330CD041
:100A8000082210A90020FFF7D5FC00283FF4A4AEEF
:100A90002022FF2110A800F013FAFFF7ADFC374821
:100AA00001F004FB23E6002D3FF42AAE002C3FF4B6
:100AB00027AE18A8002340F8343D642100F098F8D0
:100AC000824600287FF41CAE0220FFF78DFC002830
:100AD0003FF416AE0390FFF78FFC41F2883001F02F
:100AE000E5FA0B9800F036FA00F0F2F9039B57464E
:100AF0001C461D46F0E5054689E64FF00008FFE577
:100B00002546FDE52C4667E6002000F039F8049004
:100B1000049B002BFFF6E3AD012000F079F9049B64
:100B2000213B122B3FF6D8AD01A252F823F000BFB3
:100B3000F50600081D0700088D070008D906000803
:100B4000D9060008D906000821080008110A000883
:100B5000D908000871090008A3090008D109000894
:100B6000D9060008E9090008D9060008630A000848
:100B70000F080008D9060008A70A0008A08601008F
:100B80002DE9F34702AE00244FF47A7506F8014DC3
:100B9000144FDFF85880454397F900305A1C5FFA2C
:100BA00084F901D0A34212D158F82400036801222D
:100BB000D3F820A031462B46D047012807D10A4B55
:100BC0009DF8070083F8009002B0BDE8F08701347B
:100BD000022CE1D14FF4FA7001F068FA4FF0FF30C7
:100BE000F2E700BF00240220C4250220E83B0008F1
:100BF0002DE9F0474FF47A75144FDFF85880064618
:100C00004D43002497F900305A1C5FFA84F901D053
:100C1000A34210D158F8240003680422D3F820A07E
:100C200031462B46D047042805D1094B83F8009064
:100C30000020BDE8F0870134022CE3D14FF4FA70B4
:100C400001F034FA4FF0FF30BDE8F08700240220B5
:100C5000C4250220E83B000830B4074B1A78074B44
:100C600053F822402368DD69054B0A46AC4601462D
:100C7000204630BC604700BFC4250220E83B000886
:100C8000A0860100F8B501F04BFC094C094E0A4F53
:100C90002070002530682378834207D901F03AFCA0
:100CA000336805440133BD423360F3D9F8BD00BF5A
:100CB000C5250220A8250220FF7F010001F0DEBC2F
:100CC00000F1006000F5C0300068704700F100607E
:100CD000920000F5C03001F069BC0000054B1A68B5
:100CE000054B1B789B1A834202D9104401F012BCB9
:100CF00000207047A8250220C525022038B5074DE1
:100D000004462868204401F00DFC28B928682044D6
:100D1000BDE8384001F01EBC38BD00BFA825022048
:100D200010F0030308D1B0F5806F05D800F1005032
:100D3000A0F571200068704700207047014BC05833
:100D4000704700BF20F4F01F014B1868704700BFC8
:100D5000002004E0F0B5204B1E68204B1F885D6822
:100D600093F90840C6F30B02BA424FEA164622D066
:100D70009F89BA4221D01F8BBA4206D102220C248D
:100D800004FB02335D6893F90840B6F5805F16D026
:100D900041F201039E4208BF5A24421E0A44013D0B
:100DA0000B46934215D215F9016F581C4EB10346FC
:100DB00000F8016CF5E70022E1E70122DFE74124BA
:100DC000EBE72C2582421D7001D9981C5C70401AFB
:100DD000F0BD1846FBE700BF002004E00424022019
:100DE000094B5B88B3F5805F09D041F20102934261
:100DF00007D10122054B03EB8203D878704700220C
:100E0000F8E70020704700BF002004E0E03B000846
:100E1000022804D14FF00062034B9A617047012809
:100E2000FCD14FF40032F7E700040240022804D15D
:100E30004FF40062034B9A6170470128FCD10222F3
:100E4000F8E700BF00040240022805D1064A5369B2
:100E500083F40063536170470128FCD1024A53694F
:100E600083F00203F6E700BF0004024010B5002340
:100E7000934203D0CC5CC4540133F9E710BD0000A9
:100E800030B5441E14F9010F0B4660B193F90050C0
:100E9000854201F1010106D11AB993F90020801AA7
:100EA00030BD013AEEE7002AF7D1104630BD000010
:100EB00002460346981A13F9011B0029FAD170471C
:100EC00002440346934202D003F8011BFAE770473D
:100ED000024B1A78024B1A70704700BFC4250220DB
:100EE0000024022038B5154C154D204600F01EFC9C
:100EF0002946204600F046FC2D681248EA6ED2F8DA
:100F0000043843F00203C2F8043801F0CFF80E4968
:100F1000284600F045FDEA6E0C48D2F804380C492A
:100F200023F00203C2F80438A0424FF4E1330B600F
:100F300003D0BDE8384000F057BB38BDF42A02208A
:100F4000D83C000840420F00F83C00084826022028
:100F5000AC25022038B50B4B1A780B4B53F82240C6
:100F60000A4B9C4205460CD0094B0021184618221A
:100F7000FFF7A6FF056001462046BDE8384000F0B7
:100F800033BB38BDC4250220E83B0008F42A022008
:100F9000AC250220FEE7000000B59BB0EFF309810D
:100FA00068226846FFF762FFEFF30583034B9A6BF5
:100FB0009A6A9A6A9A6A9A6A9B6AFEE700ED00E06A
:100FC00000B59BB0EFF3098168226846FFF74EFF3A
:100FD000EFF30583044B9A6B9A6A9A6A9A6A9A6A43
:100FE0009A6A9B6AFEE700BF00ED00E000B59BB087
:100FF000EFF3098168226846FFF738FFEFF30583B6
:10100000034B5A6B9A6A9A6A9A6A9A6A9B6AFEE7D3
:1010100000ED00E030B5084D0A4491420BD011F8C4
:10102000013B09245840013CF7D040F300032B401A
:1010300083EA5000F7E730BD2083B8ED0023044970
:101040001A465A50C8180833802B4260F9D17047AD
:10105000C8250220024A136843F0C003136070479A
:1010600000780040044B5A6810439A6858600AB1EF
:10107000181D1047704700BF482602202DE9F84F81
:10108000404EF56D2F68EC692C62210718D014F0E2
:10109000080F0CBF00208020E20748BF40F020006E
:1010A000A30748BF40F04000610748BF40F480708C
:1010B000202383F31188FFF7D5FF002383F31188E2
:1010C000E20509D5202383F311884FF40070FFF760
:1010D000C9FF002383F31188DFF8A8A04FF020098F
:1010E0004FF0000B14F0200832D13B0615D5DFF885
:1010F00098A04FF0200920060FD589F3118850469B
:1011000000F0E6F9002830DA0820FFF7ABFF27F0FF
:1011100080032B60002383F3118879060DD56206C6
:101120000BD5202383F31188F26C336D9A4201D1E1
:10113000336CFBB9002383F31188E30604D5B26E48
:1011400013690BB150699847BDE8F84F01F032BB05
:1011500089F311886B6A96F864105046194000F0C4
:1011600051FA8BF31188EC69BCE7A86288F3118807
:10117000EC69C0E7102027F04007FFF773FF2F60EE
:10118000D8E700BF482602208026022013B5104C65
:10119000204600F01DFA04F11400009400234FF4DF
:1011A00000720C4900F0DEF804F1380000940A4B9C
:1011B0000A494FF4007200F057F9094BE365094BF7
:1011C00023660B21522002B0BDE8104000F058B851
:1011D00048260220B426022055100008B428022018
:1011E0000078004080F93703224B002908BF1946D8
:1011F000037C8166012B30B50CD11F4B984209D17D
:101200001E4B1A6C42F080421A641A6E42F0804201
:101210001A661B6E0A68036EC46D03EB5203B3FBC0
:10122000F2F34A68150442BF23F0070503F00703F1
:1012300043EA4503E3608B6843F040036360CB6897
:1012400043F00103A36042F4967343F0010323606B
:1012500051054FF0FF33236205D512F0102205D05F
:10126000B2F1805F04D080F8643030BD7F23FAE7AC
:101270003F23F8E71C3C00084826022000380240C3
:1012800000F1604300F01F02400903F561430901CA
:101290008000C9B200F1604083F8001300F561409E
:1012A00001239340C0F8803103607047F8B51546BC
:1012B00082680669AA420B46816938BF8568761A3A
:1012C000B542044607D218462A46FFF7CFFDA36968
:1012D0002B44A3610DE011D932461846FFF7C6FD35
:1012E000AF1B3A46E1683044FFF7C0FDE2683A447C
:1012F000A261A3685B1BA3602846F8BD18462A4676
:10130000FFF7B4FDE368E4E783682DE9F0410446A4
:1013100093421546266938BF85684069361AB5423A
:101320000F4606D22A46FFF7A1FD63692B4463618D
:101330000DE012D93246A5EB0608FFF797FD4246AD
:10134000B919E068FFF792FDE26842446261A36860
:101350005B1BA3602846BDE8F0812A46FFF786FDA7
:10136000E368E4E710B50A440024C361029B00600F
:1013700040608460C160816141610261036210BDAF
:1013800008B582694369934201D1826882B9826853
:10139000013282605A1C42611970426903699A42A3
:1013A00001D3C3684361002100F09CFE002008BD0A
:1013B0004FF0FF3008BD000070B5202304460E46F4
:1013C00083F31188A568A5B1A368A269013BA36056
:1013D000531CA36115782269934224BFE368A3617B
:1013E000E3690BB120469847002383F31188284610
:1013F00070BD3146204600F065FE0028E2DA85F334
:10140000118870BD2DE9F74F05460F4690469A4664
:10141000D0F81C90202686F311884FF0000B14465C
:1014200064B1224639462846FFF740FF034668B9B3
:101430005146284600F046FE0028F1D0002383F3F1
:101440001188A8EB040003B0BDE8F08FB9F1000FDC
:1014500003D001902846C847019B8BF31188E41AFA
:101460001F4486F31188DBE7C16081614161C3617C
:101470001144009B0060406082600161036270471C
:10148000F8B504460E461746202383F31188A56855
:10149000A5B1A368013BA36063695A1C62611E7019
:1014A000236962699A4224BFE3686361E3690BB10F
:1014B00020469847002080F31188F8BD3946204621
:1014C00000F000FE0028E2DA85F31188F8BD000084
:1014D000836942699A4210B501D182687AB98268FB
:1014E000013282605A1C82611C7803699A4201D3DE
:1014F000C3688361002100F0F5FD204610BD4FF068
:10150000FF3010BD2DE9F74F05460F4690469A462D
:10151000D0F81C90202686F311884FF0000B14465B
:1015200064B1224639462846FFF7EEFE034668B905
:101530005146284600F0C6FD0028F1D0002383F371
:101540001188A8EB040003B0BDE8F08FB9F1000FDB
:1015500003D001902846C847019B8BF31188E41AF9
:101560001F4486F31188DBE702684368114301607A
:1015700003B11847704700001430FFF743BF000065
:101580004FF0FF331430FFF73DBF00003830FFF756
:10159000B9BF00004FF0FF333830FFF7B3BF000092
:1015A0001430FFF709BF00004FF0FF311430FFF790
:1015B00003BF00003830FFF763BF00004FF0FF3279
:1015C0003830FFF75DBF000000207047FFF7DEBD39
:1015D000044B0360002343608360C36001230374F2
:1015E000704700BF343C000810B52023044683F345
:1015F0001188FFF7F9FD02232374002383F3118878
:1016000010BD000038B5C36904460D461BB904215E
:101610000844FFF7A9FF294604F11400FFF7B0FEC4
:10162000002806DA201D4FF48061BDE83840FFF73E
:101630009BBF38BD026843681143016003B118477E
:101640007047000013B5446BD4F894341A681178CD
:10165000042915D1217C022912D11979128901237B
:101660008B4013420CD101A904F14C0001F0ACFEF7
:10167000D4F89444019B21790246206800F0E0F9F7
:1016800002B010BD143001F02FBE00004FF0FF3348
:10169000143001F029BE00004C3001F001BF000001
:1016A0004FF0FF334C3001F0FBBE0000143001F06E
:1016B000FDBD00004FF0FF31143001F0F7BD000018
:1016C0004C3001F0CDBE00004FF0FF324C3001F045
:1016D000C7BE0000D0F8942438B5136819780429DF
:1016E000054601D0012038BD017C0229FAD11279CA
:1016F0005C89012090400440F4D105F1140001F010
:101700008FFD02460028EDD0D5F894544FF4807335
:101710002868697900F082F9204638BD406BFFF7F0
:10172000D9BF000000207047704700007FB5124B02
:101730000360002343608360C360012502260F4BD2
:10174000057404460290019300F184022946009634
:101750004FF48073143001F03FFD094B0193029464
:1017600000964FF4807304F52372294604F14C006F
:1017700001F006FE04B070BD5C3C00081D170008B7
:10178000451600080B68202282F311880A7903EBC2
:10179000820210624A790D3243F822008A7912B12E
:1017A00003EB8203186202230374C0F8941400232D
:1017B00083F311887047000038B5037F044613B1E6
:1017C00090F85430ABB9201D01250221FFF732FFFC
:1017D00004F1140025776FF0010100F08FFC84F80C
:1017E000545004F14C006FF00101BDE8384000F0A6
:1017F00085BC38BD10B5012104460430FFF71AFF3F
:101800000023237784F8543010BD000038B5044617
:101810000025143001F0F8FC04F14C00257701F0AC
:10182000C7FD201D84F854500121FFF703FF204617
:10183000BDE83840FFF74EBF90F85C3003F060031E
:10184000202B19D190F85D20212A0AD0222A4FF0AE
:1018500000030ED0202A0FD1084A026507224265F4
:1018600004E0064B036507234365002383650120DD
:10187000704703654365F9E700207047282402207C
:10188000D0F8943437B51A681178042904461AD16F
:10189000017C022917D11979128901238B40134247
:1018A00011D100F14C05284601F042FE58B101A9C2
:1018B000284601F089FDD4F89444019B2179024621
:1018C000206800F0BDF803B030BD000000EB8103DC
:1018D000F7B51C6A05460E46F4B1202383F3118840
:1018E00005EB8607201D0821FFF7A4FEFB685B6956
:1018F0001B684C3413B1204601F074FD01A9204649
:1019000001F062FD024648B1019B3146284600F0D5
:1019100097F8002383F3118803B0F0BDFB685A6980
:101920001268002AF5D01B8A013B1340F1D105F162
:101930005C02EAE70D3138B550F82140DCB12023D4
:1019400083F31188D4F894241368527903EB82034B
:10195000DB689B695D6845B104216018FFF76AFE8A
:10196000294604F1140001F065FC2046FFF7B2FEA1
:10197000002383F3118838BD7047000001F012B8CE
:10198000012303700023436000F1240200F13801B9
:1019900042F8043B8A421361FAD1038143817047C4
:1019A00038B50446202383F3118800254160C560C3
:1019B000056145618561C561056201F003F8022397
:1019C000237085F3118838BD70B500EB810305469F
:1019D0005069DA600E46144618B110220021FFF754
:1019E0006FFAA06918B110220021FFF769FA314699
:1019F0002846BDE8704001F0AFB80000028902F04F
:101A000001020281428902F0010242810022026148
:101A100042618261C261026201F032B9F0B400EB4E
:101A200081044789E4680125A4698D403D434581CF
:101A300023600023A2606360F0BC01F04DB9000098
:101A4000F0B400EB81040789E468012564698D40E6
:101A50003D43058123600023A2606360F0BC01F078
:101A6000C7B9000070B50223002504460370A0F832
:101A7000645080F8665080F8675005814581C560E4
:101A8000056145618561C561056280F84C5000F0D3
:101A9000FFFF63681B6823B129462046BDE87040FC
:101AA000184770BD436802781B6880F868200522DB
:101AB00002700BB10421184770470000436890F88A
:101AC00068201B6802700BB10521184770470000A1
:101AD00090F84C3070B5044613B1002380F84C30B8
:101AE00004F15C02204601F0EDF863689B6863BB7B
:101AF00094F85C5015F0600615D194F85D3005F04F
:101B00007F0545EA032540F202339D4200F00E8135
:101B10005BD8022D00F0DC803FD8002D00F08780DC
:101B2000012D00F0CF800021204601F037FB00217D
:101B3000204601F029FB63681B6813B1062120468B
:101B40009847062384F84C3070BD204698470028FB
:101B5000CED094F8632094F8623043EA0223626D99
:101B6000934238BF636594F95C30656D002B4FF08C
:101B7000200380F2FD80002D00F0EC80092284F823
:101B80004C2083F311880021636D226D2046FFF7FE
:101B900057FF002383F3118870BDB5F5817F00F0F6
:101BA000B180B5F5407F49D0B5F5807FBBD194F8C1
:101BB0005E30012BB7D1B4F8643023F00203A4F8EF
:101BC000643026656665A665C3E740F201639D4201
:101BD0001ED8B5F5C06F3BD2B5F5A06FA3D1B4F850
:101BE0005C30B3F5A06F0ED194F85E3084F86630A7
:101BF000204600F0A5FF63681B6813B10121204651
:101C0000984703232370002323656365A365A0E73A
:101C1000B5F5106F32D040F602439D4252D0B5F573
:101C2000006F80D104F167032365012324E004F1F0
:101C30006403236502236365A5658AE794F85E3033
:101C4000012B7FF470AFB4F8643043F00203B6E7C1
:101C500094F86120616894F860304D6894F85F10E2
:101C600043EA0223204694F85E20A84700283FF468
:101C70005AAF4368236503686365A4E72378042BA0
:101C800010D1202383F311882046FFF7B7FE86F397
:101C90001188636884F867601B68032121700BB1A9
:101CA0002046984794F85E30002BACD084F867301B
:101CB0000423237063681B68002BA4D002212046F4
:101CC0009847A0E7374B23650223636500239DE710
:101CD00094F8601011F0800F204601F00F010ED033
:101CE00000F0E2FF012806D002287FF41CAF2E4B43
:101CF0002365606567E72D4B2365656563E700F045
:101D0000C5FFEFE794F85E30002B7FF40CAF94F83A
:101D1000603013F00F013FF476AF1A06204602D56B
:101D200001F050FA6FE701F043FA6CE794F85E3087
:101D3000002B7FF4F8AE94F8603013F00F013FF4FD
:101D400062AF1B06204602D501F028FA5BE701F0DE
:101D50001BFA58E7142284F84C2083F311882B4691
:101D60002A4629462046FFF759FE85F3118870BDA3
:101D70005DB1152284F84C2083F311880021636D36
:101D8000226D2046FFF74AFE03E70B2284F84C2021
:101D900083F311882B462A4629462046FFF750FE3A
:101DA000E3E700BF8C3C0008843C0008883C000846
:101DB00038B590F84C300446152B29D8DFE803F0ED
:101DC0003E28282828283E28280B29392828282872
:101DD000282828283E3E90F8631090F86220436D32
:101DE00042EA01229A4214D9C268128AB3FBF2F580
:101DF00002FB15356DB9202383F311882B462A4643
:101E00002946FFF71DFE85F311880A2384F84C301C
:101E100038BD142384F84C30202383F31188002329
:101E20001A4619462046FFF7F9FD002383F311886F
:101E300038BD836D03B198470023E7E7002101F027
:101E4000ADF90021204601F09FF963681B6813B1CA
:101E50000621204698470623D8E7000090F84C203A
:101E6000152A38B5044622D80123934040F6416232
:101E700013421DD113F480150FD19B0217D50B23EC
:101E800080F84C30202383F311882B462A462946BC
:101E9000FFF7D6FD85F3118838BDC3689B695B6881
:101EA0002BB9836D03B19847002384F84C3038BDBB
:101EB000002101F073F90021204601F065F9636803
:101EC0001B6813B10621204698470623EDE7000062
:101ED000024B00221B605B609A607047B42A0220AC
:101EE000002303748268054B1B6899689142FBD2FA
:101EF0005A6803604260106058607047B42A02203C
:101F000008B5202383F31188037C032B05D0042B11
:101F10000DD02BB983F3118808BD436900221A60E4
:101F20004FF0FF334361FFF7DBFF0023F2E790E858
:101F30000C001A6002685360F2E70000002303748B
:101F40008268054B1B6899689142FBD85A68036008
:101F50004260106058607047B42A0220054B19692E
:101F60000874186802681A605360186101230374CA
:101F7000FEF7DAB9B42A022030B54B1C87B005460B
:101F80000A4C10D023690A4A01A800F0D3F8284669
:101F9000FFF7E4FF049B13B101A800F007F92369E0
:101FA000586907B030BDFFF7D9FFF8E7B42A02201F
:101FB000011F000838B50C4D41612B6981689A6892
:101FC0009142044603D8BDE83840FFF789BF184660
:101FD000FFF786FF01232C61014623742046BDE8EC
:101FE0003840FEF7A1B900BFB42A0220044B1A689A
:101FF0001B6990689B68984294BF0020012070473D
:10200000B42A022010B5084C236820691A6822609F
:102010005460012223611A74FFF790FF0146206982
:10202000BDE81040FEF780B9B42A02208260022287
:1020300002740022427470478368A3F17C0243F863
:102040000C2C026943F83C2C426943F8382C074AAF
:1020500043F81C2CC26843F8102C022203F8082C09
:10206000002203F8072CA3F1180070474103000871
:1020700010B5202383F31188FFF7DEFF002104460B
:10208000FFF798FF002383F31188204610BD00005E
:10209000024B1B6958610F20FFF760BFB42A022072
:1020A000202383F31188FFF7F3BF000008B5014632
:1020B000202383F311880820FFF75EFF002383F3BA
:1020C000118808BD49B1064B42681B6918605A6007
:1020D000136043600420FFF74FBF4FF0FF3070479D
:1020E000B42A02200368984206D01A680260506041
:1020F00059611846FFF7F4BE7047000038B5044632
:102100000D462068844200D138BD036823605C60BE
:102110004561FFF7E5FEF4E7054B03F114025A6150
:102120009A614FF0FF32DA6100221A62704700BFF5
:10213000B42A0220F8B503614FF08043C2605C6AA4
:10214000194B1A46022952F8145F38BF02219542F2
:1021500006461F460AD1586198611C6205604560B9
:1021600081600819BDE8F84001F004BA186AAB684C
:10217000241A0C1902D3E41A2D6804E09C4202D2FE
:10218000204401F005FAAB689C42F4D86B68736098
:1021900035601E606E60B460A9684FF0FF33091BA4
:1021A000A960FB61F8BD00BFB42A022010B41B4C2B
:1021B000234653F8141F814210D0416802680A6018
:1021C000026851609A424FF00001C16003D09368E9
:1021D00081680B4493605DF8044B70470A68626144
:1021E00000209A425360C86003D15DF8044B01F0AF
:1021F000C9B993688868034493604FF08042206AAD
:10220000526A121A9342E6D9991A012998BF931C6F
:1022100018445DF8044B01F0BBB900BFB42A02209A
:1022200000207047FEE70000704700004FF0FF30CD
:1022300070470000022906D0032906D0012906486C
:1022400018BF0020704705487047032A9ABF04480A
:1022500000EBC20000207047543D0008083D000814
:102260003024022070B59AB001AD064608462946D2
:10227000144600F095F82846FEF71AFEC0B2431C3B
:102280005B0086E818002370032363700023023488
:102290001946DAB2904204F1020401D81AB070BDB6
:1022A000EA5C04F8022C04F8011C0133F1E7000099
:1022B00008B5202383F311880348FFF7E1FA0023D0
:1022C00083F3118808BD00BFF42A022010B504462C
:1022D000052916D8DFE801F016150316161D202370
:1022E00083F311880E4A0121FFF76EFB20460D4A49
:1022F0000221FFF769FB0C48FFF788FA002383F3FC
:10230000118810BD202383F311880748FFF754FA82
:10231000F4E7202383F311880348FFF76BFAEDE716
:10232000903C0008B43C0008F42A022038B50C4D5B
:102330000C4C0D492A4604F10800FFF793FF05F104
:10234000CA0204F110000949FFF78CFF05F5CA72B3
:1023500004F118000649BDE83840FFF783BF00BF0D
:10236000BC2F022030240220E03C0008E43C00089E
:10237000EF3C000870B5044608460D46FEF798FD90
:10238000C6B22046013403780BB9184670BD3246F8
:102390002946FEF775FD0028F3D1012070BD00002D
:1023A0002DE9F04704460D46FEF782FD2B49C6B2E3
:1023B0002046FFF7DFFF08B10936F6B2284920466C
:1023C000FFF7D8FF08B11036F6B2632E0BD8DFF84E
:1023D0008C80DFF88C90234FDFF894A0267846B9E4
:1023E0002E70BDE8F08721462846BDE8F04701F091
:1023F000EBBB252E2DD1072241462046FEF740FD9E
:1024000060B9194B2A4603F1100153F8040B42F846
:10241000040B8B42F9D107341035DFE70822494617
:102420002046FEF72DFDA0B9104BAA1C13F8011F82
:1024300009095345C95D02F8021C197801F00F0122
:1024400002F10202C95D02F8031CEFD1183508340D
:10245000C4E72E7001340135C0E700BF743D0008A9
:10246000EF3C00088D3D00087C3D00081FF4F01F84
:102470002BF4F01FBFF34F8F024AD368DB03FCD469
:10248000704700BF003C024008B5074B1B7853B9AA
:10249000FFF7F0FF054B1A69002ABFBF044A5A60D4
:1024A00002F188325A6008BD1A320220003C024014
:1024B0002301674508B5054B1B7833B9FFF7DAFFF1
:1024C000034A136943F00043136108BD1A32022026
:1024D000003C02400B2870B513D80B4A0B4C137804
:1024E00063B90B4E4FF0006144F8231056F82350A7
:1024F00001330C2B2944F7D10123137054F8200029
:1025000070BD002070BD00BF4C3202201C32022082
:10251000A03D0008014B53F820007047A03D000883
:102520000C2070470B2810B5044601D9002010BDBF
:10253000FFF7D0FF064B53F824301844C21A0BB9EA
:10254000012010BD12680132F0D1043BF6E700BF54
:10255000A03D00080B2810B5044621D8FFF78AFFDC
:10256000FFF792FF0F4AF323D360C300DBB243F4BB
:10257000007343F002031361136943F48033136162
:10258000FFF778FFFFF7A6FF074B53F8241000F082
:10259000DDF8FFF78FFF2046BDE81040FFF7C2BF10
:1025A000002010BD003C0240A03D00082DE9F8438A
:1025B00012F00103154640D18218B2F1026F3CD2ED
:1025C0002C4B1B6813F0010337D02B4CFFF75CFF3B
:1025D000F323E360FFF74EFF40F20127032D01D9FB
:1025E000830713D0244C0F46401A40F20118EB1B0E
:1025F0000B44012B00EB0706236924D823F00103C9
:102600002361FFF757FF0120BDE8F883236923F416
:102610004073236123693B43236151F8046B0660D7
:10262000BFF34F8FFFF726FF03689E4208D0236950
:1026300023F001032361FFF73DFF0020BDE8F8838D
:10264000043D0430CAE723F440732361236943EA5D
:1026500008032361B94637F8023B3380BFF34F8F3D
:10266000FFF708FF3688B9F80030B6B2B342BED0E3
:10267000DDE700BF00380240003C0240084908B5D1
:102680000B7828B153B9FFF7FFFE01230B7008BD8B
:1026900023B1BDE808400870FFF70CBF08BD00BFBC
:1026A0001A32022010B50244064B0439D2B29042CD
:1026B00000D110BD441C00B253F8200041F8040FB3
:1026C000E0B2F4E750280040104B30B51C6F2404F2
:1026D00007D41C6F44F400741C671C6F44F400445E
:1026E0001C670B4C236843F4807323600244094B3E
:1026F0000439D2B2904200D130BD441C00B251F82E
:10270000045F43F82050E0B2F4E700BF0038024015
:10271000007000405028004007B5012201A90020A8
:10272000FFF7C0FF019803B05DF804FB13B5044642
:10273000FFF7F2FFA04206D002A9012241F8044DA2
:102740000020FFF7C1FF02B010BD00000144BFF33D
:102750004F8F064B884204D3BFF34F8FBFF36F8F69
:102760007047C3F85C022030F4E700BF00ED00E0E2
:10277000034B1B689B0042BF024B01221A7070473B
:10278000743802404D320220014B1878704700BF68
:102790004D320220064A536823F001035360EFF3E1
:1027A0000983683383F30988002383F31188704712
:1027B00030EF00E010B5202383F31188104B5B68E5
:1027C00013F4006318D0F1EE103AEFF309844FF0E0
:1027D000807344F84C3C0B4BDB6844F8083CA4F194
:1027E000680383F30988FFF701FC18B1064B44F82E
:1027F000503C10BD054BFAE783F3118810BD00BFB4
:1028000000ED00E030EF00E0510300085403000841
:10281000F0B5BFF34F8FBFF36F8F1D4B0021C3F88F
:102820005012BFF34F8FBFF36F8F5A6942F40032DB
:102830005A61BFF34F8FBFF36F8FC3F88410BFF39C
:102840004F8FD3F88020C2F3C904C2F34E32520135
:10285000A50743F6E07602EA060E284621464EEA30
:1028600000070139C3F860724F1C00F14040F6D1F7
:10287000203A12F1200FEED1BFF34F8F5A6942F484
:1028800080325A61BFF34F8FBFF36F8FF0BD00BF2F
:1028900000ED00E0FEE70000084A094B09498B42C1
:1028A00004D3094A0021934205D3704752F8040F1C
:1028B00043F8040BF3E743F8041BF4E7AC3F0008CC
:1028C000D8340220D8340220D8340220036F30B527
:1028D00000229D68C46E11464FF0FF3004EB421396
:1028E00001329542C3F80019C3F81019C3F808095A
:1028F000C3F8001BC3F8101BC3F8080BEED24FF04F
:102900000113C4F81C3830BD890141F02001016178
:1029100003699B06FCD4122000F0C8BE204B03EBD9
:1029200080022DE9F047D2F80CE0DD6EDEF81420CD
:10293000461CD2F800C005EB063605EB401851687E
:1029400061450BD3D5F83428012303FA00F022EABD
:102950000000C5F834081846BDE8F087BEF81040FE
:10296000ACEB0103A34228BF2346D8F81849A4B210
:10297000B3EB840F10D894681F46A4F1040959F8EA
:1029800004AFC6F800A0042F01D9043FF7E71C44A8
:102990000B4494605360D2E70020BDE8F08700BF8D
:1029A0005032022010B5054C2046FEF7E9FF4FF0EB
:1029B000A043E366024B236710BD00BF50320220E4
:1029C000F43D00080378012B70B5054650D12A4B21
:1029D000C46E98421BD1294B5A6B42F080025A6355
:1029E0005A6D42F080025A655A6D5A6942F080026F
:1029F0005A615A6922F080025A610E2143205B69B4
:102A0000FEF73EFC1E4BE3601E4BC4F8003800236B
:102A1000C4F8003EC0232360EE6E4FF40413A3639A
:102A20003369002BFCDA012333610C2000F03EFEF9
:102A30003369DB07FCD4122000F038FE3369002B29
:102A4000FCDA0026A6602846FFF740FF6B68C4F852
:102A50001068DB68C4F81468C4F81C684BB90A4BEA
:102A6000A3614FF0FF336361A36843F00103A360E8
:102A700070BD064BF4E700BF503202200038024020
:102A80004014004003002002003C30C0083C30C02D
:102A9000F8B5C46E054600212046FFF735FF296FC3
:102AA00000234FF001128F68C4F834384FF00066ED
:102AB000C4F81C284FF0FF3004EB431201339F424F
:102AC000C2F80069C2F8006BC2F80809C2F8080B26
:102AD000F2D20B68EA6E6B676362102313611669AA
:102AE00016F01006FBD1122000F0E0FDD4F80038FB
:102AF00023F4FE63C4F80038A36943F4402343F091
:102B00001003A3610923C4F81038C4F814380A4B21
:102B1000EB604FF0C043C4F8103B084BC4F8003BD7
:102B2000C4F81069C4F800396B6F03F1100243F464
:102B300080136A67A362F8BDD03D00084080001092
:102B4000C26E90F86610D2F8003823F4FE6343EAB0
:102B50000113C2F8003870472DE9F0410EB200EBC6
:102B600086080D46D8F80C100F6807F00303022BF7
:102B700050D0032B50D03D4A3D4F012B18BF174674
:102B8000C46E4FEA451E04EB0E030022C3F8102B5F
:102B90008A6905F1100C002A40D04A8A05F15803D1
:102BA0005B013A43E2500123D4F81C2803FA0CF3EA
:102BB0001343A6444A69C4F81C380023CEF81039E0
:102BC00005F13F03002A39D00A8A898B920801292E
:102BD00088BF4A43416F04EB8303561841EA02421F
:102BE000466729465A602046FFF78EFED8F80C301B
:102BF0001B8A43EA85531F4305F148035B01E750F5
:102C00000123D4F81C2803FA05F51543C4F81C5811
:102C1000BDE8F081174FB3E7174FB1E704EB461358
:102C2000D3F8002B22F40042C3F8002BD4F81C2860
:102C3000012303FA0CF322EA0303BAE704EB83034C
:102C40000E4A5A6004EB461629462046FFF75CFE02
:102C5000D6F8003923F40043C6F80039D4F81C38FC
:102C6000012202FA05F523EA0505CFE700800010EE
:102C7000008004100080081000800C100004000286
:102C8000026F12684267FFF721BE00005831C36E21
:102C900049015B5813F4004004D013F4001F14BF23
:102CA00001200220704700004831C36E49015B5883
:102CB00013F4004004D013F4001F14BF01200220BD
:102CC0007047000000EB8101CB68196A0B68136044
:102CD0004B6853607047000000EB810330B5DD683E
:102CE000AA691368D36019B9402B84BF40231360CD
:102CF0006B8A1468C26E1C44013CB4FBF3F463435A
:102D0000033323F0030302EB411043EAC44343F0CF
:102D1000C043C0F8103B2B6803F00303012B09B23A
:102D20000ED1D2F8083802EB411013F4807FD0F8AE
:102D3000003B14BF43F0805343F00053C0F8003B06
:102D400002EB4112D2F8003B43F00443C2F8003BCF
:102D500030BD00002DE9F041244DEE6E06EB40132E
:102D60000446D3F8087BC3F8087B38070AD5D6F8A1
:102D70001438190706D505EB84032146DB6828467D
:102D80005B689847FA072FD5D6F81438DB072BD5A0
:102D900005EB8403D968CCB98B69488A5E68B6FBB9
:102DA000F0F200FB12628AB91868DA6890420DD21C
:102DB000121A83E81400202383F311880B4821465C
:102DC000FFF78AFF84F31188BDE8F081012303FA3D
:102DD00004F26B8923EA02036B81CB6823B121469D
:102DE0000248BDE8F0411847BDE8F08150320220AA
:102DF00000EB810370B5DD68C36E6C692668E66020
:102E00004A0156BB1A444FF40020C2F810092A6840
:102E100002F00302012A0AB20ED1D3F8080803EB2C
:102E2000421410F4807FD4F8000914BF40F08050A1
:102E300040F00050C4F8000903EB4212D2F8000938
:102E400040F00440C2F80009D3F83408012202FA25
:102E500001F10143C3F8341870BD19B9402E84BF85
:102E60004020206020682E8A841940F00050013CE8
:102E70001A44B4FBF6F440EAC440C6E7F8B5044689
:102E80001E48C56E05EB4413D3F80869C3F80869FA
:102E9000F10717D5D5F81038DA0713D500EB8403FE
:102EA000D9684B691F68DA68974218D2D21B00278D
:102EB0001A605F60202383F311882146FFF798FF93
:102EC00087F31188330617D5D5F834280123A3409A
:102ED000134211D02046BDE8F840FFF71FBD012383
:102EE00003FA04F2038923EA020303818B68002BAF
:102EF000E8D021469847E5E7F8BD00BF50320220F0
:102F0000A0482DE9F84FC56E6E69AB691E4016F4F6
:102F1000805F6E61044605D0FEF7A4FDBDE8F84F62
:102F2000FFF748BC002E12DAD5F8003E95489B0703
:102F30001EBFD5F8003E23F00303C5F8003ED5F8C8
:102F4000043823F00103C5F80438FEF7B7FD370550
:102F500002D58C48FEF7A6FDB0040CD5D5F808388C
:102F600013F0060FEB6823F470530CBF43F41053B7
:102F700043F4A053EB60310704D56368DB680BB101
:102F800080489847F2026FD4B3020CD5D4F86C8015
:102F9000DFF8F0A100274FF00109236F9B68F9B219
:102FA0008B4280F09C80F70619D5E16E0A6AC2F365
:102FB0000A1702F00F0302F4F012B2F5802F00F0AE
:102FC000B680B2F5402F0AD104EB830301F580519E
:102FD000DB68186A00231A469F4240F09C80330346
:102FE000D5F818481DD5E70302D50020FFF7B2FE3B
:102FF000A50302D50120FFF7ADFE600302D5022034
:10300000FFF7A8FE210302D50320FFF7A3FEE2028B
:1030100002D50420FFF79EFEA30202D50520FFF78C
:1030200099FE77037FF57AAFE60702D50020FFF718
:1030300025FFA50702D50120FFF720FF600702D575
:103040000220FFF71BFF210702D50320FFF716FF21
:10305000E20602D50420FFF711FFA3067FF55EAF5D
:103060000520FFF70BFF59E7D4F86C80DFF814A1B7
:1030700000274FF00109236F9B685FFA87FB5B45D0
:1030800082D308EB4B13D3F8002902F44022B2F5A7
:10309000802F22D1D3F80029002A1EDAD3F8002984
:1030A00042F09042C3F80029D3F80029002AFBDB44
:1030B0005946E06EFFF728FC228909FA0BF322EA51
:1030C0000303238104EB8B03DB689B6813B1594630
:1030D000504698475846FFF721FC0137CBE708EBED
:1030E0004112D2F8003B03F44023B3F5802F10D1F6
:1030F000D2F8003B002B0CDA628909FA01F322EACC
:103100000303638104EB8103DB68DB680BB150468A
:103110009847013741E79C0708BF0A68072B98BF0B
:10312000027003F101039CBF120A013054E702331D
:1031300004EB830201F58051526890690268D0F86F
:1031400008C04068A2EB000E0022104697420AD148
:1031500004EB830463689B699A683A449A605A68EE
:1031600017445F603BE712F0030F08BF08689645FD
:1031700088BF8CF8000002F1010284BF000A0CF144
:10318000010CE3E750320220C36E03EB4111D1F88A
:10319000003B43F40013C1F8003B7047C36E03EBE0
:1031A0004111D1F8003943F40013C1F800397047D8
:1031B000C36E03EB4111D1F8003B23F40013C1F8B7
:1031C000003B7047C36E03EB4111D1F8003923F483
:1031D0000013C1F80039704730B5039C0172043305
:1031E00004FB0325C361049B03630021059B00606E
:1031F0004060C16042610261856104624262816235
:10320000C162436330BD00000022416A4161016137
:10321000C2608262C2626FF00101FEF76FBF000000
:1032200003694269934203D1C2680AB10020704722
:10323000181D704703691960C2680132C260C26913
:10324000134482690361934224BF436A03610021EE
:10325000FEF748BF38B504460D46E3683BB16269E6
:10326000131D1268A3621344E362002038BD237A61
:1032700033B929462046FEF725FF0028EDDA38BD90
:103280006FF00100FBE70000C368C269013BC36047
:103290004369134482694361934224BF436A436193
:1032A00000238362036B03B11847704770B5202376
:1032B000044683F31188866A3EB9FFF7CBFF0546C3
:1032C00018B186F31188284670BDA36AE26A13F824
:1032D000015BA362934202D32046FFF7D5FF002390
:1032E00083F31188EFE700002DE9F84F04460E46FE
:1032F00090469946202787F311880025AA46D4F8DE
:1033000028B0BBF1000F09D149462046FFF7A2FFC4
:1033100020B18BF311882846BDE8F88FA16AE36AD3
:10332000A8EB050B5B1A9B4528BF9B46BBF1400FE2
:103330001BD9334601F1400251F8040B43F8040B4A
:103340009142F9D1A36A40334036A3624035A26A64
:10335000E36A9A4202D32046FFF796FF8AF3118868
:103360004545D8D287F31188C9E730465A46FDF75C
:103370007DFDA36A5B445E44A3625D44E7E7000011
:1033800010B5029C0172043303FB0421C3610023C6
:103390008362C362039B0363049B00604060C4605C
:1033A00042610261816104624262436310BD0000B8
:1033B000026AC260426A4261026100228262C262A3
:1033C0006FF00101FEF79ABE436902699A4203D188
:1033D000C2680AB100207047184650F8043B0B60E1
:1033E00070470000C368C2690133C3604369134476
:1033F00082694361934224BF436A43610021FEF71F
:1034000071BE000038B504460D46E3683BB1236940
:103410001A1DA262E2691344E362002038BD237AD8
:1034200033B929462046FEF74DFE0028EDDA38BDB7
:103430006FF00100FBE7000003691960C268013A00
:10344000C260C269134482690361934224BF436A24
:10345000036100238362036B03B1184770470000C8
:1034600070B5202304460E4683F31188856A35B96A
:103470001146FFF7C7FF10B185F3118870BDA36A2D
:103480001E70A36AE26A01339342A36204D3E16926
:1034900020460439FFF7D0FF002080F3118870BD6B
:1034A0002DE9F84F04460D4691469A464FF0200804
:1034B00088F311880026B346A76A4FB951462046C3
:1034C000FFF7A0FF20B187F311883046BDE8F88FE1
:1034D000A06AE76AA9EB06033F1A9F4228BF1F466E
:1034E000402F1BD905F1400355F8042B40F8042B5D
:1034F0009D42F9D1A36A4033A3624036A26AE36ACF
:103500009A4204D3E16920460439FFF795FF8BF313
:1035100011884E45D9D288F31188CDE729463A461D
:10352000FDF7A4FCA36A3B443D44A3623E44E5E7A7
:10353000026943699A4203D1C3681BB918467047B0
:103540000023FBE7836A002BF8D0043B9B1AF5D0DD
:103550001360C368013BC360C3691A448369026195
:103560009A4224BF436A0361002383620123E5E793
:1035700000F042B94FF08043002258631A610222E2
:10358000DA6070474FF080430022DA607047000035
:103590004FF0804358637047FEE7000010B5194CA8
:1035A000FEF796FCFEF7B8FD802217492046FEF78D
:1035B0003DFD012344F8180C0374144B144AD968D8
:1035C00021F4E0610904090C0A431249DA60CA686F
:1035D00042F08072CA60104A1049C2F8B01F1168E8
:1035E00041F0010111601022DA77202283F82220B5
:1035F000002383F3118862B60948BDE81040FEF746
:1036000037BD00BFDC2A0220003E000800ED00E0CC
:103610000003FA05F0ED00E0001000E055CEACC567
:10362000083E00082DE9F84F1F4C4FF0000865696F
:1036300004F11407C1464FF08043266A5B6AAA680A
:103640009E1B96421DD34FF0200AAA68236AD5F824
:103650000CB0134423622B68BB425F60A6EB0206EA
:103660006361C5F80C8001D1FFF78CFF89F31188E5
:103670002869D8478AF311886569AB689E42E4D20D
:10368000D9E76269BA420CD0916823628E1B9660BA
:10369000A86802282CBF1818981CBDE8F84FFFF73F
:1036A00077BFBDE8F88F00BFB42A0220034B5968EA
:1036B0005A68521A9042FBD8704700BF001000E0D1
:1036C0004B6843608B688360CB68C3600B69436160
:1036D0004B6903628B6943620B68036070470000AB
:1036E00008B5274B27481A6940F2FF710A431A614F
:1036F0001A6922F4FF6222F007021A611A691A6B32
:103700000A431A631A6D0A431A651F4A1B6D114654
:10371000FFF7D6FF1D4802F11C01FFF7D1FF1C483F
:1037200002F13801FFF7CCFF1A4802F15401FFF70C
:10373000C7FF194802F17001FFF7C2FF174802F1F5
:103740008C01FFF7BDFF164802F1A801FFF7B8FF93
:10375000144802F1C401FFF7B3FF134802F1E0017E
:10376000FFF7AEFF114802F1FC01FFF7A9FF104877
:1037700002F58C71FFF7A4FFBDE8084000F09EB889
:103780000038024000000240283E000800040240C9
:1037900000080240000C02400010024000140240E9
:1037A00000180240001C0240002002400024024099
:1037B0000028024008B500F0F5F9FFF7EFFEFEF72C
:1037C000D7FFBDE80840FEF7B1BD0000704700001C
:1037D0004FF0804310B51A69920708D500241C6188
:1037E000202383F31188FFF71DFF84F31188BDE8C0
:1037F0001040FEF7DFBF0000104B1A6C42F00102D0
:103800001A641A6E42F001021A660D4A1B6E936822
:1038100043F0010393604FF080436B229A624FF0B4
:10382000FF32DA6200229A615A63DA605A6001223A
:103830005A6108211A601C20FDF722BD00380240A1
:10384000002004E01B4B1A696FEA42526FEA5252A1
:103850001A611A69C2F30A021A614FF0FF301A693D
:103860005A69586100215A6959615A691A6A62F0A5
:1038700080521A621A6A02F080521A621A6A5A6AEE
:1038800058625A6A59625A6A0B4A106840F480704A
:103890001060186F00F44070B0F5007F1EBF4FF449
:1038A000803018671967536823F40073536000F081
:1038B00059B900BF0038024000700040354B364A0D
:1038C0001A64364A4FF4404111601A6842F001020E
:1038D0001A601A689207FCD59A6822F003029A606F
:1038E0002C4B19469A6812F00C02FBD1186800F0B4
:1038F000F90018609A601A6842F480321A600B6806
:103900009B03FCD54B6F43F001034B67214B5A6F70
:103910009007FCD5224A5A601A6842F080721A60F9
:103920001E4B1A4659684904FCD5196841F4803188
:1039300019605368D803FCD5136843F4003313604F
:10394000164A53689903FCD5124B1A689201FCD5AC
:10395000144A9A6040F20112C3F88C200022C3F886
:103960009020114A40F2073111609A6842F0020239
:103970009A60084B9A6802F00C02082AFAD15A6C35
:1039800042F480425A645A6E42F480425A665B6E38
:10399000704700BF00380240000400100070004073
:1039A000186C400900948838003C0240084A08B569
:1039B000536911680B4003F00103536123B1054AB9
:1039C00013680BB150689847BDE80840FEF7F2BE97
:1039D000003C0140C8250220084A08B55369116817
:1039E0000B4003F00203536123B1054A93680BB106
:1039F000D0689847BDE80840FEF7DCBE003C0140B7
:103A0000C8250220084A08B5536911680B4003F025
:103A10000403536123B1054A13690BB150699847F8
:103A2000BDE80840FEF7C6BE003C0140C8250220A4
:103A3000084A08B5536911680B4003F00803536145
:103A400023B1054A93690BB1D0699847BDE8084096
:103A5000FEF7B0BE003C0140C8250220084A08B568
:103A6000536911680B4003F01003536123B1054AF9
:103A7000136A0BB1506A9847BDE80840FEF79ABE3A
:103A8000003C0140C8250220174B10B55C691A683C
:103A9000144004F478725A61A30604D5134A936A59
:103AA0000BB1D06A9847600604D5104A136B0BB16E
:103AB000506B9847210604D50C4A936B0BB1D06B21
:103AC0009847E20504D5094A136C0BB1506C98472E
:103AD000A30504D5054A936C0BB1D06C9847BDE89B
:103AE0001040FEF767BE00BF003C0140C825022021
:103AF0001A4B10B55C691A68144004F47C425A6190
:103B0000620504D5164A136D0BB1506D9847230515
:103B100004D5134A936D0BB1D06D9847E00404D5DA
:103B20000F4A136E0BB1506E9847A10404D50C4A8E
:103B3000936E0BB1D06E9847620404D5084A136F98
:103B40000BB1506F9847230404D5054A936F0BB10E
:103B5000D06F9847BDE81040FEF72CBE003C0140F6
:103B6000C8250220062108B50846FDF789FB062175
:103B70000720FDF785FB06210820FDF781FB0621C4
:103B80000920FDF77DFB06210A20FDF779FB0621C0
:103B90001720FDF775FB06212820BDE80840FDF73A
:103BA0006FBB000008B5FFF74DFEFDF747FAFDF7C4
:103BB0000DFDFDF7E3FEFDF7B7FDFFF707FEBDE8DE
:103BC0000840FFF7D5BC0000034611F8012B03F8AD
:103BD000012B002AF9D170471210121312110000A4
:103BE0000010410001105A00F42A02204826022049
:103BF00053544D3332463F3F3F3F3F3F0053544DB8
:103C0000333246375B347C355D780053544D333264
:103C100046375B367C375D78000000000096000078
:103C20000000000000000000000000000000000094
:103C30000000000000000000951500088115000834
:103C4000BD150008A9150008B5150008A115000844
:103C50008D15000879150008C9150008000000003E
:103C6000A11600088D160008C9160008B516000830
:103C7000C1160008AD160008991600088516000840
:103C800025170008000000000100000000000000EF
:103C90000200000000000000CD18000835190008DF
:103CA000400040008C2F02209C2F022002000000C8
:103CB0000000000003000000000000007919000867
:103CC0000000000010000000AC2F022000000000E7
:103CD000010000000000000050320220010102003B
:103CE0006D526F0025424F415244252D424C002514
:103CF00053455249414C2500CD2200083522000889
:103D000039180008B122000843000000103D0008E7
:103D100009024300020100C032090400000102024E
:103D20000100052400100105240100010424020201
:103D30000524060001070582030800FF09040100AD
:103D4000020A000000070501024000000705810289
:103D500040000000120000005C3D0008120110014C
:103D60000200004009124157000201020301000055
:103D70000403090425424F41524425006D526F430C
:103D80006F6E74726F6C5A65726F463700303132E5
:103D90003334353637383941424344454600000014
:103DA0000080000000800000008000000080000013
:103DB00000000200000004000000040000000400F5
:103DC00000000400000004000000040000000400E3
:103DD00000000000D11A0008B11D00085D1E000897
:103DE00040004000C8320220C8320220010000001A
:103DF000D8320220800000004001000005000000D1
:103E00006D61696E00000000203E0008E032022073
:103E1000D83402200100000099350008000000009D
:103E200069646C65000000000000802A000000004A
:103E3000AAAAAAAA00000000FFFF000000000000DC
:103E400000A00A004400400000000000AAAAAAAA9C
:103E500000000000FFFF0000000000000000000064
:103E60000000000000000000AAAAAAAA00000000AA
:103E7000FFFF000000000000000000000000000044
:103E800000000000AAAAAAAA00000000FFFF00008C
:103E900000000000000000000080020000000000A0
:103EA000AAAAAAAA00400100FFFF000000000080AB
:103EB000080000000000000000000000AAAAAAAA52
:103EC00000000000FFFF00000000000000000000F4
:103ED0000000000000000000AAAAAAAA000000003A
:103EE000FFFF0000000000000000000000000000D4
:103EF00000000000AAAAAAAA00000000FFFF00001C
:103F000000000000000000000000000000000000B1
:103F1000AAAAAAAA00000000FFFF000000000000FB
:103F20000000000000000000000000000000000091
:103F30000000000000000000000000000000000081
:103F40000000000000000000000000000000000071
:103F50000000000000000000000000000000000061
:103F6000FF00000000000000F03B00083F000000E0
:103F700049040000FD3B00083F0000005104000020
:103F80000B3C00083F000000009600000000080005
:103F900004000000703D0008000000000000000068
:103FA0000000000000000000000000000000000011
:00000001FF
