:020000040800F2
:1000000000040020A1020008A50F0008A90F0008A5
:10001000FD0F0008A90F0008D10F0008A302000877
:10002000A3020008A3020008A302000895330008F9
:10003000A3020008A3020008A3020008A30200080C
:10004000A3020008A3020008A3020008A3020008FC
:10005000A3020008A302000891370008BD3700087A
:10006000E93700081538000841380008A3020008E5
:10007000A3020008A3020008A3020008A3020008CC
:10008000A3020008A3020008A3020008A3020008BC
:10009000A3020008A3020008A30200086D380008AC
:1000A000A3020008A3020008A3020008A30200089C
:1000B000A3020008A3020008A3020008A30200088C
:1000C000A3020008A3020008A3020008A30200087C
:1000D000A3020008A3020008A3020008A30200086C
:1000E000D5380008A3020008A3020008A3020008F4
:1000F000A3020008A3020008A3020008A30200084C
:10010000A3020008A302000811340008A30200089B
:10011000A3020008A3020008A3020008A30200082B
:10012000A3020008A3020008A3020008A30200081B
:10013000A3020008A3020008A3020008A30200080B
:10014000A3020008A3020008A3020008A3020008FB
:10015000A3020008A3020008A3020008A3020008EB
:10016000A3020008A3020008A3020008A3020008DB
:10017000A3020008DD2C0008A3020008A302000867
:10018000A3020008A3020008853A0008A3020008A1
:10019000A3020008A3020008A3020008A3020008AB
:1001A000A3020008A3020008A3020008A30200089B
:1001B000A3020008A3020008A3020008A30200088B
:1001C000A3020008A3020008A3020008A30200087B
:1001D000A3020008C92C0008A3020008A30200081B
:1001E000A3020008A3020008A3020008A30200085B
:1001F000A3020008A3020008A3020008A30200084B
:10020000A3020008A3020008A3020008A30200083A
:10021000A3020008A3020008A3020008A30200082A
:10022000A3020008A3020008A3020008A30200081A
:10023000A3020008A3020008A3020008A30200080A
:10024000A3020008A3020008A3020008A3020008FA
:10025000A3020008A3020008A3020008A3020008EA
:10026000A3020008A3020008A3020008A3020008DA
:10027000A3020008A3020008A3020008A3020008CA
:10028000A3020008A3020008A3020008A3020008BA
:10029000A3020008A3020008A3020008A3020008AA
:1002A00002E000F000F8FEE772B6394880F30888F3
:1002B000384880F3098838484EF60851CEF20001DC
:1002C000086040F20000CCF200004EF63471CEF22D
:1002D00000010860BFF34F8FBFF36F8F40F2000043
:1002E000C0F2F0004EF68851CEF200010860BFF374
:1002F0004F8FBFF36F8F4FF00000E1EE100A4EF604
:100300003C71CEF200010860062080F31488BFF330
:100310006F8F01F085FF02F0BBFF4FF055301F4992
:100320001B4A91423CBF41F8040BFAE71C49194AA9
:1003300091423CBF41F8040BFAE71A491A4A1B4B99
:100340009A423EBF51F8040B42F8040BF8E7002034
:100350001749184A91423CBF41F8040BFAE701F0F3
:10036000A3FF03F009F8144C144DAC4203DA54F81F
:10037000041B8847F9E700F03FF8114C114DAC42DF
:1003800003DA54F8041B8847F9E701F08BBF00003B
:1003900000040020002400200000000800000020CD
:1003A00000040020184200080024002044240020FB
:1003B000482400205C350020A0020008A0020008AC
:1003C000A0020008A00200082DE9F04F2DED108AD0
:1003D000C1F80CD0D0F80CD0BDEC108ABDE8F08F7D
:1003E000002383F311882846A047002001F07EFBFC
:1003F00001F02EFB00DFFEE738B5204C6FF07403F0
:10040000002523701C236570A570E570257165714A
:10041000A571E57125726572A372E57200F026FD83
:1004200020B10E2325726572A372E57201F0BAFE47
:10043000044601F0EFFE0546D8B9114B9C421AD094
:1004400001339C4218BF054641F2883404BF0125A0
:100450000024002001F0B0FE0DB100F0B7F800F06C
:100460006DFD00F059FC204600F070F900F0AEF888
:10047000F9E70024EDE70446EBE700BF482400203D
:10048000010007B008B500F0E9FBA0F120035842D5
:10049000584108BD07B5054B02211B88ADF8043053
:1004A00001A800F029FC03B05DF804FBDC3E000865
:1004B000064991F8243033B100230822086A81F8F4
:1004C000243000F04DBC0120704700BF682400209C
:1004D0002DE9F84F234C94F82430054688461746FA
:1004E0008BBB2E46DFF87C90002F38D094F824A0E8
:1004F000BAF1000F05D12022FF214846266200F004
:100500000BFDCAF10805BD4228BF3D465FFA85FBD9
:10051000AD0041462A4604EB8A0000F0D3FC94F873
:100520002430A7EB0B079B445FFA8BFBBBF1080F52
:100530002E44A844FFB284F824B0D5D1FFF7B8FF09
:100540000028D1D108E0266A06EB8306B042C9D064
:10055000FFF7AEFF0028C4D10020BDE8F88F0120CE
:10056000BDE8F88F6824002010B5202383F311889C
:100570001248C3680BB101F03FFB0023104A0F483B
:100580004FF47A7101F0FCFA002383F311880D4CCB
:10059000236813B12368013B2360636813B1636868
:1005A000013B6360084B1B7833B9636823B90220B1
:1005B00000F086FC3223636010BD00BF542400208D
:1005C0006905000898250020902400202DE9F041BD
:1005D000544B554953F8042F013201D1BDE8F08145
:1005E0008B42F7D1514C524B22689A4240F298808C
:1005F000504B9B6803F1006303F500339A4280F08F
:100600008F80002000F0A4FB4B4B0220187000F0FC
:1006100055FC4A4BD3F8E8200022C3F8E820D3F871
:100620001011C3F81021D3F81011D3F8EC10C3F84F
:10063000EC20D3F81411C3F81421D3F81411D3F813
:10064000F010C3F8F020D3F81811C3F81821D3F82C
:100650001811D3F8801041F00061C3F88010D3F86E
:10066000801021F00061C3F88010D3F88010D3F817
:10067000801041F00071C3F88010D3F8801021F091
:100680000071C3F88010D3F8803072B62C492D4B1E
:100690000B601D682468BFF34F8FBFF36F8F2A4B29
:1006A000C3F88420BFF34F8F5A6922F480325A6115
:1006B000BFF34F8FD3F88020C2F3C906C2F34E3286
:1006C0005201B70743F6E07E02EA0E08384631468B
:1006D000013948EA000CB1F1FF3FC3F874C200F1E0
:1006E0004040F5D1203A12F1200FEDD1BFF34F8FEA
:1006F000BFF36F8FBFF34F8FBFF36F8F5A6922F431
:1007000000325A610022C3F85022BFF34F8FBFF36B
:100710006F8F202383F31188AD4685F30888204727
:10072000BDE8F081FCFF01081C000208040002087B
:10073000FFFF0108482400209024002000440258B4
:1007400008ED00E00000020800ED00E02DE9F04FA8
:1007500099B0B34C01902022FF2110A8A66800F0A8
:10076000DBFBB04A1378A346A3B9AF480121C360AD
:100770001170202383F31188C3680BB101F03CFA98
:100780000023AA4AA8484FF47A7101F0F9F900232E
:1007900083F31188019B13B1A54B019A1A60A54AF6
:1007A000A349019F0292002313704B6099461C4697
:1007B0001D469846012000F081FB002F00F01282B8
:1007C0009B4B1B68002B40F00D8219B0BDE8F08FE9
:1007D0000220FFF757FE002840F0FB81019BB9F192
:1007E000000F08BF1F46944B1B88ADF82C30022128
:1007F0000BA800F081FADDE74FF47A7000F02EFAD2
:10080000031E0393EADB0220FFF73CFE824600282A
:10081000E4D0039B581E042800F2DD81DFE800F0DD
:10082000030E1114170018A8052340F8343D0421C5
:1008300000F062FA54464FF0000856E00421784870
:10084000F6E704217D48F3E704217D48F0E71C2406
:10085000204600F07FFA04340B9004210BA800F02E
:100860004BFA2C2CF4D1E5E7002DB7D0002CB5D0F5
:100870000220FFF707FE0546002800F0AF810120A7
:100880006C4C00F065FA0220207000F017FB4FF06E
:1008900000095FFA89FA504600F06AFA074658B133
:1008A000504600F075FA09F101090028F1D12C46F3
:1008B000A9460027634B97E701230220237000F02D
:1008C000FBFA3E46DBF808309E4206D2304600F086
:1008D00041FA0130EBD10436F4E7029B00261E708A
:1008E000534BA9465E602C46374600F01DFB15B100
:1008F000002C18BF0027FFF7CDFD5BE7002D3FF46C
:100900006DAF002C3FF46AAF029B0220187000F01C
:10091000D5FA322000F0A2F9B0F1000AC0F25E81EF
:100920001AF0030540F05A81DBF8082006EB0A03B1
:10093000934200F25381BAF5807F00F24F81554512
:100940000DDA4FF47A7000F089F90490049B002BC3
:10095000C0F244813C4A049BAB540135EFE7C82008
:10096000FFF790FD0546002800F038811F2E11D8B2
:10097000C6F12004544528BF544610AB26F00300AE
:1009800022463149184400F09DFA2246FF212E48A4
:1009900000F0C2FA4FEAAA0A5FFA8AF22A49304600
:1009A000FFF796FD0446002800F01A8106EB8A0640
:1009B00005469AE70220FFF765FD00283FF40EAFD9
:1009C000FFF776FD00283FF409AF4FF0000A5346C9
:1009D000DBF8082092451CD2BAF11F0F12D8109AEA
:1009E00001320FD02AF0030218A90A4452F8202C31
:1009F0000B92184604220BA900F014FB0AF1040A1A
:100A00000346E5E75046039300F0A4F9039B0B90DF
:100A1000EFE718A8042140F84C3D00F06DF964E7B9
:100A20004824002094250020542400206905000853
:100A30009825002090240020DE3E00084C24002051
:100A400050240020E03E00089424002018A8002331
:100A500040F8343D642100F02BF900287FF4BEAE4D
:100A60000220FFF70FFD00283FF4B8AE0B9800F00E
:100A7000A1F918AB43F8480D04211846CDE718A892
:100A8000002340F8343D642100F012F900287FF47F
:100A9000A5AE0220FFF7F6FC00283FF49FAE0B98AE
:100AA00000F08AF918AB43F8440DE5E70220FFF7A0
:100AB000E9FC00283FF492AE00F084F918AB43F84B
:100AC000400DD9E70220FFF7DDFC00283FF486AE99
:100AD0000BA9142000F07CF9824618A8042140F8E4
:100AE0003CAD00F009F951460BA896E7322000F022
:100AF000B5F8B0F1000AFFF671AE1AF0030F7FF4FB
:100B00006DAEDBF808200AEB080393423FF666AEB1
:100B10000220FFF7B7FC00283FF460AE2AF0030A7A
:100B2000C244D0453FF4E1AE404600F013F9042141
:100B30000A900AA800F0E0F808F10408F1E74FF481
:100B40007A70FFF79FFC00283FF448AEFFF7B0FC37
:100B500000283FF4AFAE109B01330CD0082210A93F
:100B60000020FFF7B5FC00283FF4A4AE2022FF21AF
:100B700010A800F0D1F9FFF78DFC374800F0BCFF5A
:100B800023E6002D3FF42AAE002C3FF427AE18A830
:100B9000002340F8343D642100F08AF882460028A2
:100BA0007FF41CAE0220FFF76DFC00283FF416AE68
:100BB0000390FFF76FFC41F2883000F09DFF0B9827
:100BC00000F0EEF900F0B0F9039B57461C461D46B5
:100BD000F0E5054689E64FF00008FFE52546FDE50E
:100BE0002C4667E6002000F039F80490049B002BA7
:100BF000FFF6E3AD012000F05FF9049B213B122BCF
:100C00003FF6D8AD01A252F823F000BFD10700088B
:100C1000F907000869080008B5070008B5070008CB
:100C2000B5070008FD080008ED0A0008B50900082E
:100C30004D0A00087F0A0008AD0A0008B507000841
:100C4000C50A0008B50700083F0B0008EB080008BC
:100C5000B5070008830B0008A086010037B5114BCB
:100C60001A780132D2B20024012A01468DF80740D9
:100C700011D80D4803681D6A4FF47A734B43012263
:100C80000DF10701A847012805D1084B9DF8070081
:100C90001C7003B030BD4FF4FA7000F02DFF4FF020
:100CA000FF30F6E70024002080260020BC2500202D
:100CB00038B50E4B1A780132D2B2012A05460ED849
:100CC0000B4803681C6A4FF47A734B43042229468D
:100CD000A047042803D1074B0020187038BD4FF4FB
:100CE000FA7000F009FF4FF0FF3038BD00240020FB
:100CF00080260020BC25002030B4054C2368DD6927
:100D0000044B0A46AC460146204630BC604700BF53
:100D100080260020A0860100F8B501F035F9094CC5
:100D2000094E0A4F2070002530682378834207D986
:100D300001F026F9336805440133BD423360F3D92D
:100D4000F8BD00BFBD250020A0250020FFFF010049
:100D500001F0DCB900F1006000F500300068704778
:100D600000F10060920000F5003001F069B9000068
:100D7000054B1A68054B1B789B1A834202D9104415
:100D800001F0FEB800207047A0250020BD250020FE
:100D900038B5074D04462868204401F0F7F828B913
:100DA00028682044BDE8384001F002B938BD00BFD2
:100DB000A025002000207047014BC058704700BF9D
:100DC00000E8F11F014B1868704700BF0010005C7D
:100DD000F0B5244B244C1B682788656894F90820DB
:100DE000C3F30B06BE424FEA134328D0A789BE4285
:100DF00006D101220C2505FB0244656894F9082000
:100E000041F20104A3421CD041F20304A3421AD0D0
:100E100042F20104A34218D042F20304A34208BFE5
:100E20005622441E0C44013D0B46A34217D215F92D
:100E3000016F581C5EB1034600F8016CF5E7002213
:100E4000D8E75A22EDE75922EBE75822E9E72C25AB
:100E500084421D7001D9981C5A70401AF0BD184682
:100E6000FBE700BF0010005C04240020104B5B88EF
:100E700041F201018B429AB211D041F203018B423F
:100E80000FD042F201039A420DD042F203039A427C
:100E90000BD10323074A02EB8303D8787047002362
:100EA000F8E70123F6E70223F4E70020704700BFCC
:100EB0000010005CE43E000870470000704700002E
:100EC0007047000010B50023934203D0CC5CC4549B
:100ED0000133F9E710BD000030B5441E14F9010FCD
:100EE0000B4660B193F90050854201F1010106D132
:100EF0001AB993F90020801A30BD013AEEE7002AB2
:100F0000F7D1104630BD000002460346981A13F987
:100F1000011B0029FAD1704702440346934202D0D4
:100F200003F8011BFAE77047024B1A78024B1A705C
:100F3000704700BFBC2500200024002038B5134DA9
:100F4000134C284600F00AF92146284600F032F9F1
:100F500024681048D4F89020D2F8043843F00203F3
:100F6000C2F8043800F0C8FD0B49204600F032FA00
:100F7000D4F89020D2F8043823F00203C2F80438E1
:100F8000064B4FF4E1321A6038BD00BF80260020C6
:100F90008C3F000840420F00B43F0008A425002009
:100FA00070470000FEE7000000B59BB0EFF3098139
:100FB00068226846FFF786FFEFF30583034B9A6BC1
:100FC0009A6A9A6A9A6A9A6A9B6AFEE700ED00E05A
:100FD00000B59BB0EFF3098168226846FFF772FF06
:100FE000EFF30583044B9A6B9A6A9A6A9A6A9A6A33
:100FF0009A6A9B6AFEE700BF00ED00E000B59BB077
:10100000EFF3098168226846FFF75CFFEFF3058381
:10101000034B5A6B9A6A9A6A9A6A9A6A9B6AFEE7C3
:1010200000ED00E030B5084D0A4491420BD011F8B4
:10103000013B09245840013CF7D040F300032B400A
:1010400083EA5000F7E730BD2083B8ED0023044960
:101050001A465A50C8180833802B4260F9D170479D
:10106000C0250020026843681143016003B118479E
:101070007047000013B5446BD4F894341A681178A3
:10108000042915D1217C022912D119791289012351
:101090008B4013420CD101A904F14C0001F066FF12
:1010A000D4F89444019B21790246206800F0EAF9C3
:1010B00002B010BD143001F0E9BE00004FF0FF3364
:1010C000143001F0E3BE00004C3001F0BBBF000063
:1010D0004FF0FF334C3001F0B5BF0000143001F089
:1010E000B7BE00004FF0FF31143001F0B1BE000078
:1010F0004C3001F087BF00004FF0FF324C3001F060
:1011000081BF0000D0F8942438B5136819780429F9
:10111000054601D0012038BD017C0229FAD112799F
:101120005C89012090400440F4D105F1140001F0E5
:1011300049FE02460028EDD0D5F894544FF4807350
:101140002868697900F08CF9204638BD406BFFF7BC
:10115000D9BF000000207047704700007FB5124BD8
:101160000360002343608360C360012502260F4BA8
:10117000057404460290019300F18402294600960A
:101180004FF48073143001F0F9FD094B0193029480
:1011900000964FF4807304F52372294604F14C0045
:1011A00001F0C0FE04B070BD103F00084D110008F2
:1011B000751000080A68202383F311880B790B331C
:1011C00042F823004B79133342F823008B7913B193
:1011D0000B3342F8230002230374C0F89414002355
:1011E00083F311887047000038B5037F044613B1BC
:1011F00090F85430ABB9201D01250221FFF732FFD2
:1012000004F1140025776FF0010100F09DFC84F8D3
:10121000545004F14C006FF00101BDE8384000F07B
:1012200093BC38BD10B5012104460430FFF71AFF06
:101230000023237784F8543010BD000038B50446ED
:101240000025143001F0B2FD04F14C00257701F0C7
:1012500081FE201D84F854500121FFF703FF204632
:10126000BDE83840FFF74EBF90F8803003F06003D0
:10127000202B19D190F88120212A0AD0222A4FF060
:1012800000030ED0202A0FD1084A42670722826746
:1012900004E0064B4367072383670023C3670120ED
:1012A000704743678367F9E7002070471C240020DC
:1012B000D0F8943437B51A681178042904461AD145
:1012C000017C022917D11979128901238B4013421D
:1012D00011D100F14C05284601F0FCFE58B101A9DE
:1012E000284601F043FED4F89444019B217902463C
:1012F000206800F0C7F803B030BD000001F10B0317
:10130000F7B550F8234005460E46F4B1202383F389
:10131000118805EB8607201D0821FFF7A3FEFB6857
:101320005B691B684C3413B1204601F02DFE01A906
:10133000204601F01BFE024648B1019B314628467B
:1013400000F0A0F8002383F3118803B0F0BDFB6820
:101350005A691268002AF5D01B8A013B1340F1D16B
:1013600005F18002EAE70000133138B550F821405A
:10137000DCB1202383F31188D4F8942413685279C4
:1013800003EB8203DB689B695D6845B1042160184B
:10139000FFF768FE294604F1140001F01DFD204608
:1013A000FFF7B0FE002383F3118838BD70470000BB
:1013B00001F002B8012303700023436000F1300202
:1013C00000F1500142F8043B8A42D361FAD1038113
:1013D0004381704738B50446202383F311880025E4
:1013E000416000F10C0300F1300243F8045B9342CA
:1013F000FBD1204601F002F80223237085F3118807
:1014000038BD000070B500EB810305465069DA6015
:101410000E46144618B110220021FFF77DFDA06989
:1014200018B110220021FFF777FD31462846BDE8AC
:10143000704001F0F5B80000038903F00103038157
:10144000438903F00103438100F1300200F11003EE
:10145000002143F8041B9342FBD101F079B900004D
:10146000F0B400EB81044789E4680125A4698D404C
:101470003D43458123600023A2606360F0BC01F01E
:1014800095B90000F0B400EB81040789E4680125F8
:1014900064698D403D43058123600023A260636041
:1014A000F0BC01F00DBA0000022310B50370002358
:1014B0000446A0F8883080F88A3080F88B300381A9
:1014C000438100F10C0200F1300142F8043B8A42F2
:1014D000FBD184F87030204601F036F863681B6851
:1014E00023B120460021BDE81040184710BD000080
:1014F000436802781B6880F88C20052202700BB1CB
:101500000421184770470000436890F88C201B683E
:1015100002700BB1052118477047000090F8703039
:1015200070B5044613B1002380F8703004F18002D6
:10153000204601F031F963689B6863BB94F88050E2
:1015400015F0600615D194F8813005F07F0545EA65
:10155000032540F202339D4200F00E815BD8022D3C
:1015600000F0DC803FD8002D00F08780012D00F0D6
:10157000CF800021204601F0C7FB0021204601F06A
:10158000B7FB63681B6813B1062120469847062302
:1015900084F8703070BD204698470028CED094F86B
:1015A000872094F8863043EA0223A26F934238BF23
:1015B000A36794F98030A56F002B4FF0200380F2D1
:1015C000FD80002D00F0EC80092284F8702083F368
:1015D00011880021A36F626F2046FFF753FF00239D
:1015E00083F3118870BDB5F5817F00F0B180B5F54A
:1015F000407F49D0B5F5807FBBD194F88230012B74
:10160000B7D1B4F8883023F00203A4F888306667B5
:10161000A667E667C3E740F201639D421ED8B5F5B1
:10162000C06F3BD2B5F5A06FA3D1B4F88030B3F54D
:10163000A06F0ED194F8823084F88A30204600F0F2
:10164000E1FF63681B6813B101212046984703231B
:10165000237000236367A367E367A0E7B5F5106F06
:1016600032D040F602439D4252D0B5F5006F80D192
:1016700004F18B036367012324E004F188036367AB
:101680000223A367E5678AE794F88230012B7FF491
:1016900070AFB4F8883043F00203B6E794F88520C1
:1016A000616894F884304D6894F8831043EA02230B
:1016B000204694F88220A84700283FF45AAF436898
:1016C00063670368A367A4E72378042B10D1202362
:1016D00083F311882046FFF7AFFE86F31188636815
:1016E00084F88B601B68032121700BB1204698475A
:1016F00094F88230002BACD084F88B300423237014
:1017000063681B68002BA4D0022120469847A0E7FD
:10171000374B63670223A36700239DE794F8841087
:1017200011F0800F204601F00F010ED001F026F8D5
:10173000012806D002287FF41CAF2E4B6367A067F8
:1017400067E72D4B6367A56763E701F009F8EFE7EB
:1017500094F88230002B7FF40CAF94F8843013F0AF
:101760000F013FF476AF1A06204602D501F0E4FAE5
:101770006FE701F0D5FA6CE794F88230002B7FF424
:10178000F8AE94F8843013F00F013FF462AF1B06FB
:10179000204602D501F0B8FA5BE701F0A9FA58E754
:1017A000142284F8702083F311882B462A46294698
:1017B0002046FFF755FE85F3118870BD5DB11522F7
:1017C00084F8702083F311880021A36F626F204694
:1017D000FFF746FE03E70B2284F8702083F311889D
:1017E0002B462A4629462046FFF74CFEE3E700BF7A
:1017F000403F0008383F00083C3F000838B590F8EB
:1018000070300446152B29D8DFE803F03E2828283D
:1018100028283E28280B293928282828282828283D
:101820003E3E90F8871090F88620836F42EA0122AE
:101830009A4214D9C268128AB3FBF2F502FB15353D
:101840006DB9202383F311882B462A462946FFF7DA
:1018500019FE85F311880A2384F8703038BD1423EB
:1018600084F87030202383F3118800231A46194628
:101870002046FFF7F5FD002383F3118838BDC36FC1
:1018800003B198470023E7E7002101F03DFA00216A
:10189000204601F02DFA63681B6813B1062120462B
:1018A00098470623D8E7000090F87020152A38B52D
:1018B000044622D80123934040F6416213421DD1D1
:1018C00013F480150FD19B0217D50B2380F87030CD
:1018D000202383F311882B462A462946FFF7D2FDA1
:1018E00085F3118838BDC3689B695B682BB9C36FEA
:1018F00003B19847002384F8703038BD002101F00F
:1019000003FA0021204601F0F3F963681B6813B164
:101910000621204698470623EDE70000024B0022EF
:101920001B605B609A6070474026002000230374B0
:101930008268054B1B6899689142FBD25A68036024
:1019400042601060586070474026002008B5202390
:1019500083F31188037C032B05D0042B0DD02BB906
:1019600083F3118808BD436900221A604FF0FF33EA
:101970004361FFF7DBFF0023F2E790E80C001A60F9
:1019800002685360F2E70000002303748268054B8D
:101990001B6899689142FBD85A68036042601060E6
:1019A0005860704740260020054B19690874186874
:1019B00002681A605360186101230374FEF704BDC6
:1019C0004026002030B54B1C87B005460A4C10D08D
:1019D00023690A4A01A800F0D3F82846FFF7E4FF7C
:1019E000049B13B101A800F007F92369586907B0F7
:1019F00030BDFFF7D9FFF8E7402600204D19000859
:101A000038B50C4D41612B6981689A689142044652
:101A100003D8BDE83840FFF789BF1846FFF786FFB7
:101A200001232C61014623742046BDE83840FEF7AF
:101A3000CBBC00BF40260020044B1A681B6990688D
:101A40009B68984294BF00200120704740260020E8
:101A500010B5084C236820691A682260546001227E
:101A600023611A74FFF790FF01462069BDE810401A
:101A7000FEF7AABC402600208260022202740022E7
:101A8000427470478368A3F17C0243F80C2C02690E
:101A900043F83C2C426943F8382C074A43F81C2C85
:101AA000C26843F8102C022203F8082C002203F825
:101AB000072CA3F118007047E103000810B520239C
:101AC00083F31188FFF7DEFF00210446FFF798FF3C
:101AD000002383F31188204610BD0000024B1B69D0
:101AE00058610F20FFF760BF40260020202383F3BA
:101AF0001188FFF7F3BF000008B50146202383F3E8
:101B000011880820FFF75EFF002383F3118808BDCA
:101B100049B1064B42681B6918605A601360436004
:101B20000420FFF74FBF4FF0FF30704740260020E2
:101B30000368984206D01A680260506059611846DE
:101B4000FFF7F4BE7047000038B504460D46206824
:101B5000844200D138BD036823605C604561FFF7B3
:101B6000E5FEF4E7054B03F114025A619A614FF068
:101B7000FF32DA6100221A62704700BF402600205F
:101B8000F8B503611A4BC2605C6A1A4B1A46022907
:101B900052F8145F38BF0221954206461F460AD10B
:101BA000586198611C620560456081600819BDE854
:101BB000F84001F0B1BA186AAB68241A0C1902D3C4
:101BC000E41A2D6804E09C4202D2204401F0B4FAE9
:101BD000AB689C42F4D86B68736035601E606E60C1
:101BE000B460A9684FF0FF33091BA960FB61F8BD21
:101BF000000C00404026002010B41A4C234653F835
:101C0000141F814210D0416802680A600268516066
:101C10009A424FF00001C16003D0936881680B4481
:101C200093605DF8044B70470A68626100209A4235
:101C30005360C86003D15DF8044B01F077BA936834
:101C4000886803449360084A206A526A121A9342D1
:101C5000E7D9991A012998BF931C18445DF8044BE1
:101C600001F06ABA40260020000C004000207047B6
:101C7000FEE70000704700004FF0FF3070470000A3
:101C8000022906D0032906D00129064818BF0020E2
:101C9000704705487047032A9ABF044800EBC2000A
:101CA0000020704710400008C43F00082424002092
:101CB00070B59AB001AD064608462946144600F0B4
:101CC00095F82846FFF720F9C0B2431C5B0086E870
:101CD0001800237003236370002302341946DAB21C
:101CE000904204F1020401D81AB070BDEA5C04F815
:101CF000022C04F8011C0133F1E7000008B5202391
:101D000083F311880348FFF7D3FA002383F3118884
:101D100008BD00BF8026002010B50446052916D84E
:101D2000DFE801F016150316161D202383F3118832
:101D30000E4A0121FFF766FB20460D4A0221FFF7FC
:101D400061FB0C48FFF77AFA002383F3118810BD7A
:101D5000202383F311880748FFF746FAF4E720238E
:101D600083F311880348FFF75DFAEDE7443F00086D
:101D7000683F00088026002038B50C4D0C4C0D49FA
:101D80002A4604F10800FFF793FF05F1CA0204F1A7
:101D900010000949FFF78CFF05F5CA7204F118001D
:101DA0000649BDE83840FFF783BF00BF482B00203D
:101DB00024240020943F00089E3F0008A93F00080B
:101DC00070B5044608460D46FFF79EF8C6B2204699
:101DD000013403780BB9184670BD32462946FFF727
:101DE0007BF80028F3D1012070BD00002DE9F84FE9
:101DF00005460C46FFF788F82B49C6B22846FFF780
:101E0000DFFF08B10336F6B228492846FFF7D8FFAE
:101E100008B11036F6B2632E0DD8DFF88C80DFF8EB
:101E20008C90234FDFF890A0DFF890B02E7846B961
:101E30002670BDE8F88F29462046BDE8F84F02F02D
:101E400045B8252E2CD1072241462846FFF744F8F5
:101E500058B9DBF800302360DBF804306360BBF86E
:101E60000830238107350A34E0E70822494628462E
:101E7000FFF732F8A0B90F4BA21C13F8011F090994
:101E80005345C95D02F8021C197801F00F0102F1F7
:101E90000202C95D02F8031CEFD118340835C5E70A
:101EA000267001350134C1E730400008A93F000821
:101EB00043400008FFE7F11F0BE8F11F384000081E
:101EC000BFF34F8F044B1A695107FCD1D3F810218F
:101ED0005207F8D1704700BF0020005208B50D4BE3
:101EE0001B78ABB9FFF7ECFF0B4BDA68D10741BFAA
:101EF0000A4A5A6002F188325A60D3F80C21D2079C
:101F000041BF064AC3F8042102F18832C3F8042114
:101F100008BD00BFA62D0020002000522301674508
:101F200008B5114B1B78F3B9104B1A69510742BF22
:101F3000DA6842F04002DA60D3F81021520742BF5B
:101F4000D3F80C2142F04002C3F80C21FFF7B8FF90
:101F5000064BDA6842F00102DA60D3F80C2142F055
:101F60000102C3F80C2108BDA62D0020002000525C
:101F70000E289ABF00F580604004002070470000E2
:101F80004FF40030704700000F2070470E2808B54E
:101F90000BD8FFF7EDFF00F500330268013204D1E2
:101FA00004308342F9D1012008BD002008BD0000A3
:101FB0000E2810B504463FD8FFF782FFFFF78EFFCB
:101FC0001E484FF0FF33072C4361C0F814311DD871
:101FD0000361FFF775FF230243F02403C360C36866
:101FE00043F08003C36003695A07FCD4FFF768FF1E
:101FF0002046FFF7BDFF4FF4003100F0EDF8FFF78A
:102000008FFF2046BDE81040FFF7C0BFC0F8103179
:10201000FFF756FFA4F108031B0243F02403C0F8A6
:102020000C31D0F80C3143F08003C0F80C31D0F8FB
:1020300010315B07FBD4D9E7002010BD002000520F
:102040002DE9F84F40EA0203DB0606468846914632
:102050004AD1FFF743FFDFF8B0B04546A9EB0503CF
:1020600043441F2B04D8FFF75BFF0120BDE8F88F26
:10207000204A2148214F06F178439342204B214AC0
:1020800098BF9A4603F1FC0386BF1F469246584606
:10209000FFF716FF4FF0FF3303603B6843F0020386
:1020A0003B6005F11C022B1FA6EB050EDAF8004081
:1020B00014F00504FAD153F8041F4EF803109342AC
:1020C000F4D1BFF34F8FFFF7FBFE4FF0FF330360F8
:1020D0003B6823F002033B6020222946304601F092
:1020E000E5FE20B1FFF71CFF0020BDE8F88F203689
:1020F0002035B3E7FFFF0F00142100520C200052DF
:1021000010200052102100521420005210B5084C2B
:10211000237828B153B9FFF7E1FE0123237010BDE6
:1021200023B12070BDE81040FFF7FABE10BD00BF1C
:10213000A62D002010B50244064B0439D2B29042BD
:1021400000D110BD441C00B253F8200041F8040F28
:10215000E0B2F4E7504000580F4B30B51C6F240438
:1021600005D41C6F1C671C6F44F400441C670B4CA7
:10217000236843F4807323600244094B0439D2B2CC
:10218000904200D130BD441C00B251F8045F43F8C6
:102190002050E0B2F4E700BF004402580048025863
:1021A0005040005807B5012201A90020FFF7C2FFE7
:1021B000019803B05DF804FB13B50446FFF7F2FF86
:1021C000A04206D002A9012241F8044D0020FFF7E9
:1021D000C3FF02B010BD00000144BFF34F8F064B98
:1021E000884204D3BFF34F8FBFF36F8F7047C3F89C
:1021F0005C022030F4E700BF00ED00E0034B1B68F9
:102200005B0142BF024B01221A707047D044025852
:10221000A72D0020014B1878704700BFA72D002084
:10222000F0B5BFF34F8FBFF36F8F1D4B0021C3F885
:102230005012BFF34F8FBFF36F8F5A6942F40032D1
:102240005A61BFF34F8FBFF36F8FC3F88410BFF392
:102250004F8FD3F88020C2F3C904C2F34E3252012B
:10226000A50743F6E07602EA060E284621464EEA26
:1022700000070139C3F860724F1C00F14040F6D1ED
:10228000203A12F1200FEED1BFF34F8F5A6942F47A
:1022900080325A61BFF34F8FBFF36F8FF0BD00BF25
:1022A00000ED00E0FEE70000084A094B09498B42B7
:1022B00004D3094A0021934205D3704752F8040F12
:1022C00043F8040BF3E743F8041BF4E75842000813
:1022D0005C3500205C3500205C350020D0F894305F
:1022E00030B500229D68D0F8904011464FF0FF3085
:1022F00004EB421301329542C3F80019C3F81019D8
:10230000C3F80809C3F8001BC3F8101BC3F8080B77
:10231000EED24FF00113C4F81C3830BD00EB81033E
:102320002DE9F04FD3F80CE0DEF814404F1CD4F840
:1023300000C03F034FEA41186568D0F8902065451A
:102340000AD3D2F83438012000FA01F123EA01015E
:10235000C2F83418BDE8F08FBEF81060ACEB05038E
:10236000B34228BF334602EB0806D6F81869B6B266
:10237000B3EB860F13D8A6683A44A6F1040A99462F
:102380005AF804BFC2F800B0B9F1040F02D9A9F19C
:102390000409F5E71E442B44A6606360CCE70020E7
:1023A000BDE8F08F890141F02001016103699B06BE
:1023B000FCD4122000F052BF10B50A4C2046FEF7A4
:1023C000F9FF094BC4F89030084BC4F89430084C1E
:1023D0002046FEF7EFFF074BC4F89030064BC4F8D9
:1023E000943010BDA82D002000000840784000085F
:1023F000442E002000000440844000080378012B94
:1024000070B505465DD1494BD0F89040984259D1FE
:10241000474BD3F8D82042F00062C3F8D820D3F855
:10242000002142F00062C3F80021D3F80021D3F864
:10243000802042F00062C3F88020D3F8802022F090
:102440000062C3F88020D3F880300E21652000F0B0
:102450007FFC384BE360384BC4F800380023C4F8E5
:10246000003EC0232360D5F890604FF40413A363AB
:102470003369002BFCDA012333610C2000F0EEFEFF
:102480003369DB07FCD4122000F0E8FE3369002B2F
:10249000FCDA0026A6602846FFF720FF6B68C4F828
:1024A0001068DB68C4F81468C4F81C68002B3AD1C3
:1024B000224BA3614FF0FF336361A36843F0010334
:1024C000A36070BD1E4B9842C8D1194BD3F8D820D9
:1024D00042F00072C3F8D820D3F8002142F0007215
:1024E000C3F80021D3F80021D3F8802042F0007215
:1024F000C3F88020D3F8802022F00072C3F8802037
:10250000D3F88020D3F8D82022F08062C3F8D820F6
:10251000D3F8002122F08062C3F80021D3F8003103
:102520000E214D2093E7074BC3E700BFA82D0020E5
:10253000004402584014004003002002003C30C018
:10254000442E0020083C30C0F8B5D0F89040054635
:1025500000212046FFF726FFD5F8941000234FF006
:1025600001128F68C4F834384FF00066C4F81C2894
:102570004FF0FF3004EB431201339F42C2F8006971
:10258000C2F8006BC2F80809C2F8080BF2D20B6857
:10259000D5F89020C5F8983063621023136116694E
:1025A00016F01006FBD1122000F058FED4F80038C7
:1025B00023F4FE63C4F80038A36943F4402343F0D6
:1025C0001003A3610923C4F81038C4F814380B4B66
:1025D000EB604FF0C043C4F8103B094BC4F8003B1C
:1025E000C4F81069C4F80039D5F8983003F1100226
:1025F00043F48013C5F89820A362F8BD5440000846
:1026000040800010D0F8902090F88A10D2F800385E
:1026100023F4FE6343EA0113C2F800387047000058
:102620002DE9F0410EB200EB86080D46D8F80C10EB
:102630000F6807F00303022B53D0032B53D03F4AFC
:102640003F4F012B18BF1746D0F890404FEA451E68
:1026500004EB0E030022C3F8102B8A6905F1100C5D
:10266000002A42D04A8A05F158035B013A43E250FE
:102670000123D4F81C2803FA0CF31343A6444A6937
:10268000C4F81C380023CEF8103905F13F03002AA6
:102690003BD00A8A898B9208012988BF4A43D0F827
:1026A000981004EB8303561841EA0242C0F8986080
:1026B00029465A602046FFF775FED8F80C301B8A71
:1026C00043EA85531F4305F148035B01E7500123AB
:1026D000D4F81C2803FA05F51543C4F81C58BDE8C6
:1026E000F081184FB0E7184FAEE704EB4613D3F86C
:1026F000002B22F40042C3F8002BD4F81C2801233D
:1027000003FA0CF322EA0303B8E704EB83030F4A4E
:102710005A6004EB461629462046FFF743FED6F8DA
:10272000003923F40043C6F80039D4F81C380122DC
:1027300002FA05F523EA0505CFE700BF0080001087
:10274000008004100080081000800C1000040002BB
:10275000D0F894201268C0F89820FFF7BFBD0000A1
:102760005831D0F8903049015B5813F4004004D040
:1027700013F4001F14BF0120022070474831D0F825
:10278000903049015B5813F4004004D013F4001F4B
:1027900014BF01200220704700EB8101CB68196A49
:1027A0000B6813604B6853607047000000EB8103B7
:1027B00030B5DD68AA691368D36019B9402B84BFAE
:1027C000402313606B8A1468D0F890201C44013CAD
:1027D000B4FBF3F46343033323F0030302EB411030
:1027E00043EAC44343F0C043C0F8103B2B6803F0F6
:1027F0000303012B09B20ED1D2F8083802EB4110C5
:1028000013F4807FD0F8003B14BF43F0805343F0B3
:102810000053C0F8003B02EB4112D2F8003B43F0FA
:102820000443C2F8003B30BD2DE9F041D0F8906080
:1028300006EB41130546D3F8087BC3F8087B3A073B
:102840000C4608D5D6F814381B0704D500EB8103D5
:10285000DB685B689847FA072FD5D6F81438DB0792
:102860002BD505EB8403D968CCB98B69488A5E689F
:10287000B6FBF0F200FB12628AB91868DA6890427F
:102880000DD2121A83E81400202383F31188214605
:102890002846FFF78BFF84F31188BDE8F081012300
:1028A00003FA04F26B8923EA02036B81CB6823B13C
:1028B00021462846BDE8F0411847BDE8F0810000F8
:1028C00000EB810370B5DD68D0F890306C69266844
:1028D000E6604A0156BB1A444FF40020C2F81009C2
:1028E0002A6802F00302012A0AB20ED1D3F80808BE
:1028F00003EB421410F4807FD4F8000914BF40F0B9
:10290000805040F00050C4F8000903EB4212D2F8A6
:10291000000940F00440C2F80009D3F8340801224D
:1029200002FA01F10143C3F8341870BD19B9402E01
:1029300084BF4020206020682E8A841940F0005017
:10294000013C1A44B4FBF6F440EAC440C6E7000078
:102950002DE9F041D0F8906006EB41130446D3F81E
:102960000879C3F80879FB070D461CD5D6F810384E
:10297000DA0718D500EB8103D3F80CE0DEF8143049
:10298000D3F800C0DA6894451BD2A2EB0C024FF0DA
:1029900000081A60C3F80480202383F31188FFF72E
:1029A0008FFF88F311883B0618D5D6F83428012309
:1029B000AB40134212D029462046BDE8F041FFF754
:1029C000ADBC012303FA01F2038923EA0203038168
:1029D000DEF80830002BE6D09847E4E7BDE8F08148
:1029E0002DE9F047D0F890506E69AB691E40F104B4
:1029F00004466E6103D5BDE8F047FEF755BD002ED5
:102A000011DAD5F8003E9A071EBFD5F8003E23F034
:102A10000303C5F8003ED5F8043823F00103C5F8D8
:102A20000438FEF771FD330502D52046FEF760FD40
:102A3000B7040CD5D5F8083813F0060FEB6823F46B
:102A400070530CBF43F4105343F4A053EB603007B2
:102A500004D56368DB680BB120469847F10200F1AA
:102A6000A180B2020BD5D4F8908000274FF0010965
:102A7000D4F894309B68F9B28B4280F0D280F30690
:102A80001AD5D4F890100A6AC2F30A1702F00F039D
:102A900002F4F012B2F5802F00F0EC80B2F5402F76
:102AA0000AD104EB830301F58051DB68186A002327
:102AB0001A469F4240F0D1803003D5F8185835D5DA
:102AC000E90303D500212046FFF7AEFEAA0303D594
:102AD00001212046FFF7A8FE6B0303D50221204603
:102AE000FFF7A2FE2F0303D503212046FFF79CFE2C
:102AF000E80203D504212046FFF796FEA90203D57C
:102B000005212046FFF790FE6A0203D506212046E4
:102B1000FFF78AFE2B0203D507212046FFF784FE2C
:102B2000EF0103D508212046FFF77EFE700340F138
:102B3000C980E90703D500212046FFF709FFAA074E
:102B400003D501212046FFF703FF6B0703D50221C0
:102B50002046FFF7FDFE2F0703D503212046FFF790
:102B6000F7FEEE0603D504212046FFF7F1FEA80686
:102B700003D505212046FFF7EBFE690603D50621A4
:102B80002046FFF7E5FE2A0603D507212046FFF77A
:102B9000DFFEEB0540F1968020460821BDE8F047B6
:102BA000FFF7D6BED4F890904FF000084FF0010A1E
:102BB000D4F894309B685FFA88F7BB42FFF451AFBA
:102BC00009EB4713D3F8002902F44022B2F5802F15
:102BD00024D1D3F80029002A20DAD3F8002942F0C2
:102BE0009042C3F80029D3F80029002AFBDB3946BC
:102BF000D4F89000FFF7D6FB22890AFA07F322EAFD
:102C00000303238104EB8703DB689B6813B1394618
:102C10002046984739462046FFF780FB08F1010817
:102C2000C6E708EB4112D2F8003B03F44023B3F5AA
:102C3000802F10D1D2F8003B002B0CDA628909FA00
:102C400001F322EA0303638104EB8103DB68DB68A1
:102C50000BB12046984701370AE713F0030F08BF6E
:102C60000A68072B98BF027003F101039CBF120A88
:102C700001301EE704EB830301F58051DA689069A7
:102C80000268D0F808C04068A2EB000E002210468F
:102C9000974208D1DB689B699A683A449A605A68FF
:102CA00017445F6008E712F0030F08BF08689645F5
:102CB00088BF8CF8000002F1010284BF000A0CF109
:102CC000010CE5E7BDE8F08708B50348FFF788FE8B
:102CD000BDE8084000F06EBBA82D002008B50348F1
:102CE000FFF77EFEBDE8084000F064BB442E0020E4
:102CF000D0F8903003EB4111D1F8003B43F40013BE
:102D0000C1F8003B70470000D0F8903003EB411150
:102D1000D1F8003943F40013C1F8003970470000BE
:102D2000D0F8903003EB4111D1F8003B23F40013AD
:102D3000C1F8003B70470000D0F8903003EB411120
:102D4000D1F8003923F40013C1F8003970470000AE
:102D500000F1604300F01F02400903F561430901DF
:102D60008000C9B200F1604083F8001300F56140B3
:102D700001239340C0F880310360704730B5039C55
:102D80000172043304FB0325C361049B0363002128
:102D9000059B00604060C160426102618561046220
:102DA00042628162C162436330BD00000022416A19
:102DB00041610161C2608262C2626FF00101FEF78F
:102DC000C3BE000003694269934203D1C2680AB1DD
:102DD00000207047181D704703691960C2680132EE
:102DE000C260C269134482690361934224BF436A8B
:102DF00003610021FEF79CBE38B504460D46E3682A
:102E00003BB16269131D1268A3621344E3620020A0
:102E100038BD237A33B929462046FEF779FE0028CB
:102E2000EDDA38BD6FF00100FBE70000C368C2694E
:102E3000013BC3604369134482694361934224BFE9
:102E4000436A436100238362036B03B118477047F1
:102E500070B52023044683F31188866A3EB9FFF7D4
:102E6000CBFF054618B186F31188284670BDA36ACA
:102E7000E26A13F8015BA362934202D32046FFF794
:102E8000D5FF002383F31188EFE700002DE9F84F09
:102E900004460E4690469946202787F31188002560
:102EA000AA46D4F828B0BBF1000F09D14946204604
:102EB000FFF7A2FF20B18BF311882846BDE8F88FF9
:102EC000A16AE36AA8EB050B5B1A9B4528BF9B46EA
:102ED000BBF1400F1BD9334601F1400251F8040BFE
:102EE00043F8040B9142F9D1A36A40334036A36200
:102EF0004035A26AE36A9A4202D32046FFF796FF62
:102F00008AF311884545D8D287F31188C9E730463E
:102F10005A46FDF7D7FFA36A5B445E44A3625D4453
:102F2000E7E7000010B5029C0172043303FB0421A3
:102F3000C36100238362C362039B0363049B00603D
:102F40004060C46042610261816104624262436325
:102F500010BD0000026AC260426A42610261002242
:102F60008262C2626FF00101FEF7EEBD4369026941
:102F70009A4203D1C2680AB100207047184650F83F
:102F8000043B0B6070470000C368C2690133C36033
:102F90004369134482694361934224BF436A436196
:102FA0000021FEF7C5BD000038B504460D46E368B4
:102FB0003BB123691A1DA262E2691344E362002057
:102FC00038BD237A33B929462046FEF7A1FD0028F3
:102FD000EDDA38BD6FF00100FBE70000036919600E
:102FE000C268013AC260C2691344826903619342B4
:102FF00024BF436A036100238362036B03B1184754
:103000007047000070B5202304460E4683F31188F4
:10301000856A35B91146FFF7C7FF10B185F31188EE
:1030200070BDA36A1E70A36AE26A01339342A36271
:1030300004D3E16920460439FFF7D0FF002080F374
:10304000118870BD2DE9F84F04460D4691469A4609
:103050004FF0200888F311880026B346A76A4FB9BD
:1030600051462046FFF7A0FF20B187F31188304674
:10307000BDE8F88FA06AE76AA9EB06033F1A9F42F2
:1030800028BF1F46402F1BD905F1400355F8042BDC
:1030900040F8042B9D42F9D1A36A4033A362403625
:1030A000A26AE36A9A4204D3E16920460439FFF731
:1030B00095FF8BF311884E45D9D288F31188CDE75F
:1030C00029463A46FDF7FEFEA36A3B443D44A3620F
:1030D0003E44E5E7026943699A4203D1C3681BB9DC
:1030E000184670470023FBE7836A002BF8D0043BA7
:1030F0009B1AF5D01360C368013BC360C3691A44CF
:10310000836902619A4224BF436A03610023836298
:103110000123E5E700F090B9034B002258631A61E0
:103120000222DA60704700BF000C0040014B002211
:10313000DA607047000C0040014B5863704700BFD5
:10314000000C0040FEE7000010B5194CFEF7E6FB4E
:10315000FEF708FD802217492046FEF78DFC01236B
:1031600044F8180C0374144B144AD96821F4E06134
:103170000904090C0A431249DA60CA6842F08072F5
:10318000CA60104A1049C2F8B01F116841F001012D
:1031900011601022DA77202283F82220002383F3A3
:1031A000118862B60948BDE81040FEF787BC00BF31
:1031B000682600209040000800ED00E00003FA05BA
:1031C000F0ED00E0001000E055CEACC598400008DE
:1031D0002DE9F84F1F4CDFF88090656904F1140762
:1031E0004FF00008D9F82430266AAA689E1B964240
:1031F0001DD34FF0200AAA68236AD5F80CB01344F7
:1032000023622B68BB425F60A6EB02066361C5F8D0
:103210000C8001D1FFF78AFF88F311882869D8470D
:103220008AF311886569AB689E42E4D2DAE7626985
:10323000BA420CD0916823628E1B9660A86802285F
:103240002CBF1818981CBDE8F84FFFF775BFBDE8F4
:10325000F88F00BF40260020000C0040034B596847
:103260005A68521A9042FBD8704700BF001000E025
:103270004B6843608B688360CB68C3600B694361B4
:103280004B6903628B6943620B68036070470000FF
:1032900008B52C4B2C48D3F8882040F2FF710A4324
:1032A000C3F88820D3F8882022F4FF6222F00702B6
:1032B000C3F88820D3F88820D3F8E0200A43C3F865
:1032C000E020D3F808210A43C3F808211F4AD3F8A5
:1032D00008311146FFF7CCFF1D4802F11C01FFF732
:1032E000C7FF1C4802F13801FFF7C2FF1A4802F17C
:1032F0005401FFF7BDFF194802F17001FFF7B8FF55
:10330000174802F18C01FFF7B3FF164802F1A8013C
:10331000FFF7AEFF144802F1C401FFF7A9FF1348FD
:1033200002F1E001FFF7A4FF114802F1FC01FFF7F1
:103330009FFF104802F58C71FFF79AFFBDE8084027
:1033400000F054B90044025800000258B840000888
:103350000004025800080258000C025800100258DD
:103360000014025800180258001C0258002002588D
:10337000002402580028025808B500F005FBFFF7AA
:10338000E3FEFEF73BFFBDE80840FEF7F5BC00009A
:1033900070470000064A536823F001035360EFF3BF
:1033A0000983683383F30988002383F31188704706
:1033B00030EF00E010B5202383F31188104B5B68D9
:1033C00013F4006318D0F1EE103AEFF309844FF0D4
:1033D000807344F84C3C0B4BDB6844F8083CA4F188
:1033E000680383F30988FEF727FB18B1064B44F8FE
:1033F000503C10BD054BFAE783F3118810BD00BFA8
:1034000000ED00E030EF00E0F1030008F4030008F5
:10341000084B1A69920710B508D500241C612023B7
:1034200083F31188FFF7D4FE84F31188BDE81040C0
:10343000FFF7C0BF000C0040124BD3F8E82042F069
:103440000802C3F8E820D3F8102142F00802C3F8BC
:1034500010210D4AD3F81031D36B43F00803D36326
:103460000A4B63229A624FF0FF32DA6200229A61BD
:103470005A63DA605A6001225A6108211A603220C8
:10348000FFF766BC004402580010005C000C0040CE
:10349000F8B5514BD3F880204FF0FF32C3F88020AD
:1034A0000024D3F88010C3F88040D3F88010D3F8FC
:1034B0008410C3F88420D3F88410C3F88440D3F870
:1034C0008410D96F41F0FF4141F4FF0141F4DF4125
:1034D00041F07F01D967D96F21F0FF4121F4FF014D
:1034E00021F4DF4121F07F01D967D96FD3F888102B
:1034F0006FEA41516FEA5151C3F88810D3F8881030
:10350000C1F30A01C3F88810D3F88810D3F89010DB
:10351000C3F89020D3F89010C3F89040D3F89010DF
:10352000D3F89410C3F89420D3F89410C3F89440BF
:10353000D3F89410D3F89810C3F89820D3F89810C3
:10354000C3F89840D3F89810D3F88C10C3F88C20A7
:10355000D3F88C10C3F88C40D3F88C10D3F89C109F
:10356000C3F89C20D3F89C20C3F89C40D3F89C302F
:1035700000F0EAF9194B07229A60194ADA60194AF1
:103580001A6105225A60184A536A43F48033536221
:10359000C2F88440BFF34F8FD2F88030C3F3C90420
:1035A000C3F34E335B01A50743F6E07603EA060E4C
:1035B000284621464EEA00070139C2F874724F1CB2
:1035C00000F14040F6D1203B13F1200FEED1BFF3C4
:1035D0004F8FBFF36F8FF8BD0044025890ED00E0AD
:1035E000000004301B00080300ED00E05A4B5B496B
:1035F00001221A605A4B19609A605A4ADA60002216
:103600001A614FF440429A619A699204FCD51A6893
:1036100042F480721A60544B1A6F12F4407F1FBF3D
:103620004FF480321A6700221A671A6842F00102CA
:103630001A604D4A134611684807FCD500211161F4
:103640001A6912F03802FBD1012119604FF0804154
:1036500059605A67454ADA62454A1A611A6842F463
:10366000A0221A60404A134611688903FCD51168EC
:1036700041F0800111601A68D205FCD53D4A3E49EF
:103680009A6200225A631963A1F5C0214B39DA63AB
:1036900099635A64394A1A64394ADA621A6842F0FC
:1036A000A8521A60304B1A6802F02852B2F1285F13
:1036B000F9D109229A610022DA611A624FF00052B0
:1036C000DA643049304A1A6559659A652F4A2121D2
:1036D00011601A6942F003021A61234B1A6902F061
:1036E0003802182AFAD1D3F8DC2042F00052C3F88D
:1036F000DC20D3F8042142F00052C3F80421D3F8AF
:103700000421D3F8DC2042F08042C3F8DC20D3F857
:10371000042142F08042C3F80421D3F80421D3F8F5
:10372000DC2042F00042C3F8DC20D3F8042142F050
:103730000042C3F80421D3F80421D3F8F42042F066
:103740000202C3F8F420D3F81C2142F00202C3F8AD
:103750001C21D3F81C3170470881005100C000F0D3
:103760000048025802000001004402580000FF0116
:103770000088900812102000630207014704050822
:10378000FD0BFF010010E0000000011000200052BE
:10379000084A08B5936811680B4003F00103936071
:1037A00023B1054A13680BB150689847BDE808403B
:1037B000FFF700BE80000058C0250020084A08B569
:1037C000936811680B4003F00203936023B1054A2C
:1037D00093680BB1D0689847BDE80840FFF7EABD91
:1037E00080000058C0250020084A08B59368116879
:1037F0000B4003F00403936023B1054A13690BB136
:1038000050699847BDE80840FFF7D4BD80000058D4
:10381000C0250020084A08B5936811680B4003F0E2
:103820000803936023B1054A93690BB1D0699847A7
:10383000BDE80840FFF7BEBD80000058C02500204D
:10384000084A08B5936811680B4003F010039360B1
:1038500023B1054A136A0BB1506A9847BDE8084086
:10386000FFF7A8BD80000058C0250020174B10B5F9
:103870009C681A68144004F478729A60A30604D510
:10388000134A936A0BB1D06A9847600604D5104A70
:10389000136B0BB1506B9847210604D50C4A936B00
:1038A0000BB1D06B9847E20504D5094A136C0BB1F4
:1038B000506C9847A30504D5054A936C0BB1D06CA6
:1038C0009847BDE81040FFF775BD00BF8000005865
:1038D000C02500201A4B10B59C681A68144004F4E7
:1038E0007C429A60620504D5164A136D0BB1506D87
:1038F0009847230504D5134A936D0BB1D06D9847B3
:10390000E00404D50F4A136E0BB1506E9847A10422
:1039100004D50C4A936E0BB1D06E9847620404D55F
:10392000084A136F0BB1506F9847230404D5054A1A
:10393000936F0BB1D06F9847BDE81040FFF73ABDC9
:1039400080000058C0250020062108B50846FFF772
:10395000FFF906210720FFF7FBF906210820FFF7F2
:10396000F7F906210920FFF7F3F906210A20FFF7EE
:10397000EFF906211720FFF7EBF906212820BDE813
:103980000840FFF7E5B9000008B5FFF781FDFDF736
:103990005DFB00F03DF8FDF70BFDFDF7DDFBFFF7EC
:1039A000F7FCBDE80840FFF7B5BB000002684368BC
:1039B0001143016003B1184770470000143000F054
:1039C000C3B900004FF0FF33143000F0BDB9000060
:1039D000383000F039BA00004FF0FF33383000F0D3
:1039E00033BA0000143000F089B900004FF0FF3105
:1039F000143000F083B90000383000F0E3B9000063
:103A00004FF0FF32383000F0DDB900000020704781
:103A100000F0C0B8044B0360002343608360C360C0
:103A200001230374704700BFEC41000838B5C36937
:103A300004460D461BB904210844FFF7B7FF294689
:103A400004F1140000F03EF9002806DA201D4FF4BE
:103A50008061BDE83840FFF7A9BF38BD024A13684E
:103A600043F0C0031360704700780040044B5A686D
:103A700010439A6858600AB1181D1047704700BF7C
:103A8000F03000202DE9F84F404EF56D2F68EC69BD
:103A90002C62210718D014F0080F0CBF00208020E2
:103AA000E20748BF40F02000A30748BF40F04000B5
:103AB000610748BF40F48070202383F31188FFF72B
:103AC000D5FF002383F31188E20509D5202383F372
:103AD00011884FF40070FFF7C9FF002383F31188AA
:103AE000DFF8A8A04FF020094FF0000B14F02008D9
:103AF00032D13B0615D5DFF898A04FF020092006FB
:103B00000FD589F31188504600F084F9002830DA87
:103B10000820FFF7ABFF27F080032B60002383F31F
:103B2000118879060DD562060BD5202383F3118801
:103B3000F26C336D9A4201D1336C03BB002383F3E3
:103B40001188E30604D5B26E13690BB1506998472A
:103B5000BDE8F84FFFF72EBC89F31188AB8C96F8BF
:103B6000641050461940FFF761FF8BF31188EC6930
:103B7000BCE780B2288588F31188EC69BFE7102084
:103B800027F04007FFF772FF2F60D7E7F0300020E3
:103B90002831002013B5104C2046FFF73BFF04F1FD
:103BA0001400009400234FF400720C4900F07CF8DC
:103BB00004F1380000940A4B0A494FF4007200F0F7
:103BC000F5F8094BE365094B23660C21522002B03E
:103BD000BDE81040FFF7BCB8F03000205C31002099
:103BE0005D3A00085C3300200078004000E1F505F4
:103BF000F8B5154682680669AA420B46816938BF46
:103C00008568761AB542044607D218462A46FDF75B
:103C100059F9A3692B44A3610DE011D93246184626
:103C2000FDF750F9AF1B3A46E1683044FDF74AF919
:103C3000E2683A44A261A3685B1BA3602846F8BD12
:103C400018462A46FDF73EF9E368E4E783682DE964
:103C5000F041044693421546266938BF856840699D
:103C6000361AB5420F4606D22A46FDF72BF963698C
:103C70002B4463610DE012D93246A5EB0608FDF72F
:103C800021F94246B919E068FDF71CF9E26842449F
:103C90006261A3685B1BA3602846BDE8F0812A46E9
:103CA000FDF710F9E368E4E710B50A440024C361A6
:103CB000029B006040608460C1608161416102617B
:103CC000036210BD08B582694369934201D18268DD
:103CD00082B98268013282605A1C4261197042695D
:103CE00003699A4201D3C36843610021FDF720FFB5
:103CF000002008BD4FF0FF3008BD000070B5202344
:103D000004460E4683F31188A568A5B1A368A2698D
:103D1000013BA360531CA36115782269934224BF21
:103D2000E368A361E3690BB120469847002383F35E
:103D30001188284670BD31462046FDF7E9FE00286F
:103D4000E2DA85F3118870BD2DE9F74F05460F467D
:103D500090469A46D0F81C90202686F311884FF0A2
:103D6000000B144664B1224639462846FFF740FF4F
:103D7000034668B951462846FDF7CAFE0028F1D02F
:103D8000002383F31188A8EB040003B0BDE8F08F93
:103D9000B9F1000F03D001902846C847019B8BF36F
:103DA0001188E41A1F4486F31188DBE7C160816142
:103DB0004161C3611144009B006040608260016109
:103DC00003627047F8B504460E461746202383F376
:103DD0001188A568A5B1A368013BA36063695A1C5B
:103DE00062611E70236962699A4224BFE36863615D
:103DF000E3690BB120469847002080F31188F8BD95
:103E000039462046FDF784FE0028E2DA85F3118862
:103E1000F8BD0000836942699A4210B501D18268F9
:103E20007AB98268013282605A1C82611C78036907
:103E30009A4201D3C36883610021FDF779FE2046D1
:103E400010BD4FF0FF3010BD2DE9F74F05460F466E
:103E500090469A46D0F81C90202686F311884FF0A1
:103E6000000B144664B1224639462846FFF7EEFEA1
:103E7000034668B951462846FDF74AFE0028F1D0AE
:103E8000002383F31188A8EB040003B0BDE8F08F92
:103E9000B9F1000F03D001902846C847019B8BF36E
:103EA0001188E41A1F4486F31188DBE710B5013945
:103EB0000244904201D1002010BD10F8013B11F8DE
:103EC000014FA342F5D0181B10BD0000034611F8A6
:103ED000012B03F8012B002AF9D17047121012139D
:103EE0001211000001105A0003105900012058005F
:103EF0000320560053544D333248373F3F3F005361
:103F0000544D3332483734332F37353300000000F7
:103F100000000000D1100008BD100008F9100008D2
:103F2000E5100008F1100008DD100008C9100008B5
:103F3000B510000855110008000000000100000045
:103F4000000000000200000000000000FD12000858
:103F50006913000840004000182B0020282B002087
:103F6000020000000000000003000000000000004C
:103F7000AD1300080000000010000000382B0020E6
:103F8000000000000100000000000000A82D00203B
:103F9000010102004172647550696C6F7400254222
:103FA0004F415244252D424C002553455249414C26
:103FB00025000000191D0008811C00086912000876
:103FC000FD1C000843000000CC3F0008090243002C
:103FD000020100C0320904000001020201000524B0
:103FE000001001052401000104240202052406003A
:103FF00001070582030800FF09040100020A00000E
:104000000007050102400000070581024000000092
:1040100012000000184000081201100102000040C8
:1040200009124157000201020301000004030904C0
:1040300025424F41524425004E75636C656F4837E9
:104040003433003031323334353637383941424336
:1040500044454600000000001D150008FD1700083B
:10406000A918000840004000E02E0020E02E0020AB
:1040700001000000F02E0020800000004001000040
:10408000080000000001000000040000080000001B
:104090006D61696E00000000B0400008F82E00203D
:1040A000F030002001000000453100080000000051
:1040B00069646C65000000000000802A00000000B8
:1040C000AAAAAAAA00000000FFFF0000000000004A
:1040D00000A00A000000000000000000AAAAAAAA8E
:1040E00000000000FFFF00000000000000000000D2
:1040F0000000000000000000AAAAAAAA0000000018
:10410000FFFF0000000000000000000000000000B1
:1041100000000000AAAAAAAA00000000FFFF0000F9
:10412000000000000000000000000200000000008D
:10413000AAAAAAAA00000100FFFF000000000000D8
:10414000070000000020000000000000AAAAAAAAA0
:1041500000100000FFFF000000000007000000004A
:104160000000000000000000AAAAAAAA00000000A7
:10417000FFFF000000000000000000000000000041
:1041800000000000AAAAAAAA00000000FFFF000089
:10419000000000000000000000000000000000001F
:1041A000AAAAAAAA00000000FFFF00000000000069
:1041B000000000000000000000000000AAAAAAAA57
:1041C00000000000FFFF00000000000000000000F1
:1041D0000000000000000000AAAAAAAA0000000037
:1041E000FFFF0000000000000000000000000000D1
:1041F000D9390008C5390008013A0008ED3900082E
:10420000F9390008E5390008D1390008BD3900083E
:104210000D3A000800000000FF0000000000000050
:10422000F43E00083F00000050040000FF3E00087C
:104230003F0000000096000000000800040000009D
:104240002C400008000000000000000000000000FA
:0C42500000000000000000000000000062
:00000001FF
